:1000000011308A00F8290000FF00030E8301A100CF
:100010000A08A0008A010408A2007708A300780853
:10002000A4007908A5007A08A600831383128B1D0B
:100030001B280B182C28220884002308F70024080A
:10004000F8002508F9002608FA0020088A00210E89
:100050008300FF0E7F0E09008A110A12B9280A10C8
:100060008A100A118207533445344E3453344F34C6
:10007000523400340A108A100A11820720342034C6
:100080006D3441342034203400340A108A100A11AF
:100090008207203476346F346C3474342034003466
:1000A0000A108A100A118207203420342034433485
:1000B00041344C344934423452344134543445345C
:1000C000203420342034203400340A108A100A11DD
:1000D0008207203420344F344B34203421342134EF
:1000E0002134203400340A108A100A118207203487
:1000F00020345434683469347334203454346F34C5
:100100006F346C34203421342134213420340034D1
:100110000A108A100A118207523445345334453488
:1001200054342034433441344C344934423452340E
:1001300041345434453400340A108A100A118207BD
:100140004F344B34203421342134213400340A100C
:100150008A100A11820754346834693473342034A5
:1001600054346F346F346C342034213421342134CE
:1001700000348316861583128619C228A818C2284F
:1001800028140429831686158312861DCC28A81CE2
:10019000CC282810A81004298316061583120619E6
:1001A000D528A819D52828150429831606158312E1
:1001B000061DDF28A81DDF282811A8110429831691
:1001C000861483128618E828A81AE8282816042915
:1001D000831686148312861CF228A81EF228281281
:1001E000A8120429831606168312061AFB28A81BD8
:1001F000FB2828170429831606168312061E0429D5
:10020000A81F04292813A8130B108A110A121B28EF
:10021000D3306D38EC34EE33BA060A00D332EE39FF
:100220006F39203B6136F532A01EA012CC3A0D0585
:100230000000C126D022D222A01EA012CC3A0D0569
:100240000001D027D72252103D102526F5060A00BE
:100250000B08C1008B13831603178C170C140000B6
:10026000000083120C087F39031971290313C2009F
:1002700003170D080313C30003170F080313C4006B
:1002800042080C1E41299900430803178D000313EF
:10029000440803178F0083168C170C14000000000D
:1002A00083120C0D0E0D7F39031971290313C2003F
:1002B00003170D080313C30003170F080313C4002B
:1002C00042080C1E61299900430803178D0003138F
:1002D000440803178F008D0A03198F0A03132B2973
:1002E00003170313C11B8B178A110A166B2A63307D
:1002F00084008313000803198A290630F800F701E7
:10030000F70B8029F80B7F297B30F700F70B862944
:10031000800B7D2908008E30F70083163908F8001D
:100320003808F900FA01F808031DA0297908F80037
:10033000F9010830F702F808031DA029F701A829E0
:100340000310F81BA729F90DF80DF703A029F813DE
:100350008312080083163508BC003908BC06BC1F90
:10036000B62903110310B51B0314E9293508BC0095
:100370003808BD003408BD020319C429BC1FE9298F
:100380000308013A8300E9293908BD003508BD0298
:100390000319D029BC1FE9290308013A8300E92980
:1003A0003A08BD003608BD020319DC29BC1FE92943
:1003B0000308013A8300E9293B08BD003708BD0264
:1003C0000319E829BC1FE9290308013A8300E92938
:1003D00003108312080083162D080319B12AB900EF
:1003E00031080319B12AB902031CFB297F30B90770
:1003F0000318B12A012A8130B902031CB12A03195A
:10040000B12A3908F700F801F901FA01B8012E08FC
:10041000B700B7172F08B6003008B5001930B9007B
:100420003408B5020318242A0130B6020318242A1E
:10043000B7020318242AB8020318242AB80AB70AF4
:10044000B60A3408B507562A3308B60203183F2AFD
:100450000130B70203183F2AB80203183F2AB80A2E
:10046000B70A3308B6073408B507031C562AB60A7C
:10047000031D562AB70A031D562AB80A562A3208FF
:100480008038B7020318552A0130B8020318552ADC
:10049000B80A32088038B7073308B607031C332A76
:1004A000B70A031D332AB80A332A7A14B90B592A1A
:1004B000642A0310B50DB60DB70DB80D0310FA0D73
:1004C000F90DF80DBA0D102A3A1C6C2A0310F80C1D
:1004D000F90CFA0CBA0C6F2AF7030319B12ABA1BEC
:1004E000982A0310B50DB60DB70DB80D3408B50236
:1004F0000318842A0130B6020318842AB7020318AD
:10050000842AB802031CA72A3308B60203188F2ACC
:100510000130B70203188F2AB802031CA72A320839
:100520008038B7020318982A0130B802031CA72AA2
:10053000FA0A031DA72AF90A031DA72AF80A031DB0
:10054000A72AF70A0319B12AF80CF90CFA0C2E089D
:10055000B9003208B906B91FAF2AF817B52AF8133F
:10056000B52AF701F801F901FA01831208008E306B
:10057000F70083163408F7023508F9003608F8004A
:10058000F917F7080319CF2A0310F908031DCB2A1E
:10059000F8080319CF2AF90CF80CF70BC42AB51F79
:1005A000D62AF809F909F80A0319F90A831208008A
:1005B000831634080319492BBC0038080319492B4A
:1005C000BC070318EA2A7F30BC02031C492B03191D
:1005D000492BEE2A8130BC070318492B3C08F70051
:1005E000F801F901FA013508C000C0173608BF004C
:1005F0003708BE001830BC00BD013E1C172B3B085D
:10060000FA07031C092BF90A031D092BF80A031921
:10061000BD173A08F907031C102BF80A0319BD1778
:100620003908B600B6173608F8070318BD17BD0D10
:10063000F80CF90CFA0CC00CBF0CBE0C0310BC0B70
:10064000FC2A0130F7070318492BF81B2E2BC00D8D
:10065000FA0DF90DF80DF7030319492BC01F3F2BB5
:10066000FA0A031D3F2BF90A031D3F2BF80A031D4D
:100670003F2BF80CF90CFA0CF70A0319492B350833
:10068000BD003908BD06BD1F472BF8174D2BF813C9
:100690004D2BF701F801F901FA01831208008030AF
:1006A000831C552B8316BD0683128316C201C3011A
:1006B0003908C1003D08C10638080319432CC000A1
:1006C000F7003C0803194C2CC0020319E82B031C4B
:1006D000A62B3D08C600C6173E08C5003F08C4004B
:1006E000C3010310C60CC50CC40CC30CC00B702B8B
:1006F000C11F7D2B4214602C421040104216BB30AB
:1007000084008313752C4212C11B902B401C9B2B21
:10071000C60CC50CC40CC30CF70A03195B2C9B2B2D
:10072000C61B9E2B0310C30DC40DC50DC60DF703CC
:1007300003195B2C902B4217082C42133908C10077
:10074000C11FA42BC617542CC613542C3C08C00040
:10075000F7003808C0023908C600C6173A08C500B5
:100760003B08C400C3010310C60CC50CC40CC30C69
:10077000C00BB22BC11FBF2BC214602CC210401083
:10078000C216BF3084008313752CC212C11BD22B3A
:10079000401CDD2BC60CC50CC40CC30CF70A031996
:1007A0005B2CDD2BC61BE02B0310C30DC40DC50D48
:1007B000C60DF70303195B2CD22BC217082CC213EA
:1007C0003D08C100C11FE62BC617542CC613542C7C
:1007D0003D08C600C6173E08C5003F08C400C11F3B
:1007E000F52BC6134215602C4211C3014010BB30DB
:1007F00084008313752CC11B1E2C3908C100401CBA
:10080000082CC60CC50CC40CC30CF70A03195B2CCE
:10081000C31F192CC40A031D192CC50A031D192C4A
:10082000C60A031D192CC60CC50CC40CF70A031903
:100830005B2C421B9D2BC21BDF2B3D2C8030C60640
:10084000C61F262C602C3D08C100332C3908C1007E
:10085000C608031D332CC508031D332CC408031D13
:10086000332CF701542CC61B3D2C0310C30DC40DB3
:10087000C50DC60DF70B332C5B2CC11F412CC617C1
:10088000542CC613542C3C08F7003D08C6003E0803
:10089000C5003F08C400542C3808F7003908C600CA
:1008A0003A08C5003B08C4004608F8004508F900AE
:1008B0004408FA00932CF701F801F901FA01932C8E
:1008C000C301C409C509C609C309C30A031D6E2CA7
:1008D000C40A031D6E2CC50A0319C60A42187C2BD4
:1008E000C218BE2B4219F42B232C0008C407031C8A
:1008F0007F2CC50A031D7F2CC60A031940148403EC
:100900000008C507031C872CC60A0319401484037A
:100910000008801F803AC60703184014421A832B30
:10092000C21AC52BFB2B831208008316331027082D
:10093000AC002608AB002508AA002408A900270857
:10094000B7002608B6002508B5002408B400BB018E
:10095000BA01B901B8018312AA21031CB52C831670
:1009600033142A08803AAA00831283162C08B70091
:100970002B08B6002A08B5002908B400BB01BA014B
:10098000B9018E30B8008312AA210318C92C031DA7
:10099000E62C83162C08B7002B08B6002A08B500F1
:1009A0002908B4008312B72279088316B9007808A1
:1009B000B80083128B217A088316B0007908AF0043
:1009C0007808AE007708AD00BE2D831283162C0880
:1009D000B7002B08B6002A08B5002908B4008030FB
:1009E000BB009630BA001830B9009630B8008312B8
:1009F000AA21031CB52D83162C08B7002B08B600BE
:100A00002A08B5002908B400BB01BA01B901703049
:100A1000B8008312D8227A088316B7007908B60086
:100A20007808B5007708B4008312B72279088316D6
:100A3000B2007808B1002C08B7002B08B6002A08CD
:100A4000B5002908B400BB01BA01B9017030B80083
:100A50008312D8227A088316B7007908B60078087E
:100A6000B5007708B4003208B9003108B800831225
:100A70008B21831483163708BB003608BA0035086B
:100A8000B9003408B8007A08BF007908BE007808B9
:100A9000BD007708BC0083124F238316B701B6014F
:100AA000B5018E30B4007A08BB007908BA00780826
:100AB000B9007708B8008312D8227A088316AC00F0
:100AC0007908AB007808AA007708A9003208B900B5
:100AD0003108B80083128B218316B701B601B50126
:100AE0008E30B4007A08BB007908BA007808B900E3
:100AF0007708B8008312D8227A088316B0007908E4
:100B0000AF007808AE007708AD002C08B7002B08BE
:100B1000B6002A08B5002908B4008312B722790864
:100B20008316B9007808B80083128B2183108316CE
:100B30003008BB002F08BA002E08B9002D08B800F5
:100B40007A08BF007908BE007808BD007708BC00AD
:100B500083124F237A088316B0007908AF00780813
:100B6000AE007708AD00BE2D831283162C08B000AE
:100B70002B08AF002A08AE002908AD002C08B700EA
:100B80002B08B6002A08B5002908B4008312B72242
:100B900079088316B9007808B80083128B21831472
:100BA00083162C08BB002B08BA002A08B9002908B4
:100BB000B8007A08BF007908BE007808BD00770841
:100BC000BC0083124F237A088316AC007908AB006F
:100BD0007808AA007708A900331CF12D2E08803A66
:100BE000AE002C08B7002B08B6002A08B50029086B
:100BF000B400BB01BA01B901B8018312AA210319DB
:100C00003E2E8316331C202EA808031D202E83148D
:100C10003008BB002F08BA002E08B9002D08B80014
:100C2000BF01BE01BD017F30BC0083124F237A0893
:100C30008316B0007908AF007808AE007708AD00E1
:100C400033183D2E280B3D2E83103008BB002F0893
:100C5000BA002E08B9002D08B800BF01BE01BD01C1
:100C60007F30BC0083124F237A088316B0007908C6
:100C7000AF007808AE007708AD008312831627080E
:100C8000B7002608B6002508B5002408B400BB014B
:100C9000BA01B901B8018312AA21031D552E83168A
:100CA000B001AF01AE01AD01831283162D08F7002C
:100CB0002E08F8002F08F9003008FA008312080007
:100CC00070088316B70083126F088316B60083126C
:100CD0006E088316B50083126D088316B400BB013D
:100CE000BA01B901B8018312AA210319632F6C0854
:100CF0008316B00083126B088316AF0083126A0854
:100D00008316AE00831269088316AD007008B40024
:100D100083126F088316B30083126E088316B20025
:100D200083126D088316B1008312EB217A08FE004E
:100D30007908FD007808FC007708FB007E08831620
:100D4000B7007D08B6007C08B5007B08B400BB0185
:100D5000BA01B901B8018312AA21031CEC2E6C0858
:100D60008316B00083126B088316AF0083126A08E3
:100D70008316AE00831269088316AD007008B400B4
:100D800083126F088316B30083126E088316B200B5
:100D900083126D088316B1008312EB217A08FE00DE
:100DA0007908FD007808FC007708FB007E088316B0
:100DB000A3007D08A2007C08A1007B08A0002308F6
:100DC000A7002208A6002108A5002008A4000130E1
:100DD000A80083129524272F6C088316B000831275
:100DE0006B088316AF0083126A088316AE00831265
:100DF00069088316AD007008B40083126F0883166B
:100E0000B30083126E088316B20083126D08831636
:100E1000B1008312EB217A08FE007908FD00780802
:100E2000FC007708FB007E088316A3007D08A20063
:100E30007C08A1007B08A0002308A7002208A600C8
:100E40002108A5002008A400A801831295247A088F
:100E5000F4007908F3007808F2007708F1007408CC
:100E60008316B7007308B6007208B5007108B400A5
:100E70007008BB0083126F088316BA0083126E08D5
:100E80008316B90083126D088316B8008312D82226
:100E900083146C088316BB0083126B088316BA0098
:100EA00083126A088316B900831269088316B80092
:100EB0007A08BF007908BE007808BD007708BC003A
:100EC00083124F23632F08008E30F70083162B0800
:100ED000F8002A08F900FA01AB1F732FF809F90985
:100EE000F90A0319F80AF808031D802F7908F80099
:100EF000F9010830F702F808031D802FF701892F48
:100F00000310F81B872FF90DF80DF703802FAB1F87
:100F1000F81383120800C601C501C401C3014208C9
:100F20008316B900831241088316B80083128B21FF
:100F30001F308316B7008530B6006B30B5007C30AB
:100F4000B4007A08BB007908BA007808B9007708BD
:100F5000B8008312D8227A08C6007908C50078083C
:100F6000C4007708C30046088316B70083124508FB
:100F70008316B600831244088316B5008312430813
:100F80008316B4008312B7227908B0007808AF0046
:100F90008A110A16CC2A4208F80141020318D32FFD
:100FA0004108F700DF2FF7010830C300C10DF70D2E
:100FB000420877020318F700F80DC30BD62F8A11E9
:100FC0000A162E2B94138C11690893000230941B7F
:100FD000F02F8C1DE92F00308316111B0130831276
:100FE000F8000800A81AFC2F281EFC2FA8160130B4
:0E0FF000E3028A15BE278A116308F800080084
:101000007008F4006F08F3006E08F2006D08F1003C
:1010100074088316B7007308B6007208B50071082B
:10102000B400BB01BA01B9017F30B8008A11831244
:10103000AA218A150319DB298316A9017130A8009A
:10104000280884008313291883177E3080008314B6
:101050007408BB007308BA007208B9007108B800C0
:10106000BF01BE01BD017F30BC008A1183124F2336
:101070008A157A088316AB007908AA007808A900B7
:101080007708A80083107408BB007308BA007208C0
:10109000B9007108B800BF01BE01BD017F30BC00BE
:1010A0008A1183124F238A1583162B08B0002A0851
:1010B000AF002908AE002808AD007A08B40079080E
:1010C000B3007808B2007708B1008A118312EB21CF
:1010D0008A157A08F4007908F3007808F200770896
:1010E000F10074088316B7007308B6007208B500E3
:1010F0007108B4007408BB007308BA007208B90024
:101100007108B8008A118312D8228A157A088316CA
:10111000A7007908A6007808A5007708A4009930F0
:10112000B7004730B6008A30B5007F30B4002708DA
:10113000BB002608BA002508B9002408B8008A11A7
:101140008312D8228A157A088316AB007908AA0080
:101150007808A9007708A80083102B08BB002A088C
:10116000BA002908B9002808B800BF01BE01BD01B6
:101170008030BC008A1183124F238A157A08FE0042
:101180007908FD007808FC007708FB004C308316D6
:10119000B700F330B6003A30B5007B30B400270812
:1011A000BB002608BA002508B9002408B8008A1137
:1011B0008312D8228A157A088316AB007908AA0010
:1011C0007808A9007708A80083102B08BB002A081C
:1011D000BA002908B9002808B8002B30BF009D309C
:1011E000BE00DF30BD007E30BC008A1183124F2369
:1011F0008A157A088316A3007908A2007808A1004E
:101200007708A0002308B7002208B6002108B5001F
:101210002008B4002708BB002608BA002508B9003A
:101220002408B8008A118312D8228A157A088316F6
:10123000AB007908AA007808A9007708A8008310F5
:101240002B08BB002A08BA002908B9002808B800F2
:10125000BF01BE01BD017F30BC008A1183124F2344
:101260008A157A088316A3007908A2007808A100DD
:101270007708A0007408B7007308B6007208B500BC
:101280007108B4007E08BB007D08BA007C08B90074
:101290007B08B8008A118312D8228A157A0883162F
:1012A000AB007908AA007808A9007708A8002B08E5
:1012B000B0002A08AF002908AE002808AD002308B6
:1012C000B4002208B3002108B2002008B1008A113E
:1012D0008312EB218A157A08FE007908FD00780850
:1012E000FC007708FB008316A9016D30A8002808D0
:1012F00084008313291883177E300002F500F51F40
:1013000096297508003CAB01AA00AA1BAB038A1101
:10131000831264278A1577088316A0007808803A1C
:10132000A1007908A2007A08A300A829AB017508DA
:10133000AA00AA1BAB038A11831264278A157A08B4
:101340008316A3007908A2007808A1007708A000FE
:101350002308B7002208B6002108B5002008B40011
:101360001830BB007230BA003130B9007E30B8009E
:101370008A118312D8228A1583107E088316BB0037
:101380007D08BA007C08B9007B08B8007A08BF0065
:101390007908BE007808BD007708BC008A11831266
:1013A0004F238A157A08FE007908FD007808FC00B2
:1013B0007708FB00DF29FE01FD01FC01FB017B0832
:1013C000F7007C08F8007D08F9007E08FA000800A4
:1013D00070088316B70083126F088316B600831255
:1013E0006E088316B50083126D088316B4003B3077
:1013F000BB00AA30BA003830B9007F30B8008A117B
:101400008312D8228A157A088316B7007908B600A5
:101410007808B5007708B4008A118312B7228A15BC
:101420007808F50076107008F4006F08F3006E0875
:10143000F2006D08F10070088316B70083126F0880
:101440008316B60083126E088316B50083126D08EA
:101450008316B400BB01BA01B901B8018A11831225
:10146000AA218A15031C3A2A7614F509F50A72088E
:10147000803AF200FE01FD01FC01FB018316A5018B
:101480007B30A400240884008313251883177F3041
:10149000750780007408B7007308B6007208B500BD
:1014A0007108B4003B30BB00AA30BA003830B90034
:1014B0007F30B8008A118312D8228A157A088316E1
:1014C000A7007908A6007808A5007708A400AB015A
:1014D0007508AA00AA1BAB038A11831264278A1518
:1014E000831483162708BB002608BA002508B90014
:1014F0002408B8007A08BF007908BE007808BD004B
:101500007708BC008A1183124F238A157A08F400E9
:101510007908F3007808F2007708F1007C30831630
:10152000B7008830B6005930B5007230B400740886
:10153000BB007308BA007208B9007108B8008A11BC
:101540008312D8228A157A088316A7007908A60084
:101550007808A5007708A40083102708BB00260898
:10156000BA002508B9002408B800E030BF00973061
:10157000BE002630BD007530BC008A1183124F2397
:101580008A157A088316A3007908A2007808A100BA
:101590007708A0002308B7002208B6002108B5008C
:1015A0002008B4007408BB007308BA007208B900C0
:1015B0007108B8008A118312D8228A157A08831616
:1015C000A7007908A6007808A5007708A400831072
:1015D0002708BB002608BA002508B9002408B8006F
:1015E000C430BF001D30BE001E30BD007830BC00CE
:1015F0008A1183124F238A157A088316A30079086B
:10160000A2007808A1007708A0002308B7002208EC
:10161000B6002108B5002008B4007408BB007308A8
:10162000BA007208B9007108B8008A118312D82272
:101630008A157A088316A7007908A6007808A500FD
:101640007708A40083102708BB002608BA002508E5
:10165000B9002408B8005E30BF005030BE006330CF
:10166000BD007A30BC008A1183124F238A157A0894
:101670008316A3007908A2007808A1007708A000CB
:101680002308B7002208B6002108B5002008B400DE
:101690007408BB007308BA007208B9007108B8007A
:1016A0008A118312D8228A157A088316A70079082E
:1016B000A6007808A5007708A40083102708BB00BF
:1016C0002608BA002508B9002408B8001A30BF005F
:1016D000FE30BE007530BD007C30BC008A11831224
:1016E0004F238A157A088316A3007908A200780888
:1016F000A1007708A0002308B7002208B60021083F
:10170000B5002008B4007408BB007308BA00720862
:10171000B9007108B8008A118312D8228A157A0894
:101720008316A7007908A6007808A5007708A4000A
:1017300083102708BB002608BA002508B900240832
:10174000B8001830BF007230BE003130BD007E30AE
:10175000BC008A1183124F238A157A088316A300CE
:101760007908A2007808A1007708A0007408B700E3
:101770007308B6007208B5007108B4002308BB00F6
:101780002208BA002108B9002008B8008A11831283
:10179000D8228A1583108316BB01BA01B9017F30A4
:1017A000B8007A08BF007908BE007808BD00770845
:1017B000BC008A1183124F238A157E088316B70056
:1017C0007D08B6007C08B5007B08B4007A08BB0031
:1017D0007908BA007808B9007708B8008A1183122E
:1017E000D8228A157A08FE007908FD007808FC00E6
:1017F0007708FB00761C162C8316B001AF01AE01F2
:101800007F30AD007E08B4007D08B3007C08B200D4
:101810007B08B1008A118312EB218A157A08FE0039
:101820007908FD007808FC007708FB007B08F700CA
:101830007C08F8007D08F9007E08FA0008006408BA
:101840008316B700831263088316B60083126208FA
:101850008316B500831261088316B400BB01BA0178
:10186000B901B8018A118312AA218A15031C3A2DE5
:101870006808EC006708EB006608EA006508E90004
:10188000F001EF01EE017F30ED008A1160268A152C
:101890007A08EC007908EB007808EA007708E9009C
:1018A0006C088316B70083126B088316B600831288
:1018B0006A088316B500831269088316B400BB0159
:1018C000BA01B901B8018A118312AA218A15031D30
:1018D0003A2D6808EC006708EB006608EA00650826
:1018E000E900F001EF01EE018030ED008A11602681
:1018F0008A157A08EC007908EB007808EA00770886
:10190000E9006C088316B70083126B088316B600D3
:1019100083126A088316B500831269088316B4001F
:10192000BB01BA01B901B8018A118312AA218A1533
:10193000031DE92C6108E9006208803AEA006308A7
:10194000EB006408EC00F0006B08EF006A08EE00A2
:101950006908ED0000207A08EC007908EB007808AF
:10196000EA007708E9006C088316B70083126B0859
:101970008316B60083126A088316B50083126908BD
:101980008316B400831268088316BB0083126708AD
:101990008316BA00831266088316B900831265089D
:1019A0008316B8008A118312D8228A157A08EC00AF
:1019B0007908EB007808EA007708E9006C08F00085
:1019C0006B08EF006A08EE006908ED00E821032EBD
:1019D000392D6108E9006208803AEA006308EB00EB
:1019E0006408EC00F0006B08EF006A08EE0069087C
:1019F000ED0000207A08EC007908EB007808EA0096
:101A00007708E9006C088316B70083126B08831609
:101A1000B60083126A088316B5008312690883161C
:101A2000B400831268088316BB008312670883160C
:101A3000BA00831266088316B900831265088316FC
:101A4000B8008A118312D8228A157A08EC00790826
:101A5000EB007808EA007708E9006C08F0006B08F2
:101A6000EF006A08EE006908ED00E8218030F80612
:101A7000032E032E64088316B700831263088316AF
:101A8000B600831262088316B500831261088316BC
:101A9000B400BB01BA01B901B8018A118312AA21AD
:101AA0008A15031C8A2D6808EC006708EB0066089D
:101AB000EA006508E900F001EF01EE017F30ED007A
:101AC0008A1160268A157A08EC007908EB007808FC
:101AD000EA007708E9006C088316B70083126B08E8
:101AE0008316B60083126A088316B500831269084C
:101AF0008316B400BB01BA01B901B8018A1183127F
:101B0000AA218A1503198A2DF701F801F901FA01B2
:101B1000032E032E64088316B7008312630883160E
:101B2000B600831262088316B5008312610883161B
:101B3000B400BB01BA01B901B8018A118312AA210C
:101B40008A15031DBE2D68088316B7008312670827
:101B50008316B600831266088316B50083126508E3
:101B60008316B400BB01BA01B901B8018A1183120E
:101B7000AA218A150318BE2D031D032E6408F00048
:101B80006308EF006208EE006108ED0000207A08AB
:101B9000EC007908EB007808EA007708E9006C08A7
:101BA0008316B70083126B088316B60083126A0887
:101BB0008316B500831269088316B400831268087F
:101BC0008316BB00831267088316BA008312660867
:101BD0008316B900831265088316B8008A11831230
:101BE000D8228A157A08EC007908EB007808EA0018
:101BF0007708E9006C08F0006B08EF006A08EE0057
:101C00006908ED00E8210800FA30D000A230CF00CA
:101C10004830CE007130CD00AC30D4001930D30044
:101C20003930D2007C30D1001030D8009830D70045
:101C30006A30D6008530D5009A30DC00F830DB0001
:101C40004730DA008D30D90042088316B90083127C
:101C500041088316B8008A1183128B218A157A08ED
:101C6000C6007908C5007808C4007708C300460894
:101C7000E4004508E3004408E2004308E100E8010D
:101C8000E7014030E6008030E5001F24500883164D
:101C9000B70083124F088316B60083124E088316CE
:101CA000B50083124D088316B4007A08BB0079088A
:101CB000BA007808B9007708B8008A118312D822D0
:101CC0008A157A08E0007908DF007808DE007708D6
:101CD000DD004608E4004508E3004408E20043084C
:101CE000E100E801E701E6018030E5001F24540827
:101CF0008316B700831253088316B6008312520866
:101D00008316B500831251088316B4007A08BB000D
:101D10007908BA007808B9007708B8008A118312E8
:101D2000D8228A15E2010408E1006210831B6214C4
:101D3000831460088316BB0083125F088316BA0001
:101D400083125E088316B90083125D088316B800FB
:101D50007A08BF007908BE007808BD007708BC008B
:101D60008A1183124F238A15610884008313621835
:101D700083177A08E0007908DF007808DE0077082A
:101D8000DD0058088316B700831257088316B60083
:101D9000831256088316B500831255088316B400C3
:101DA000831246088316BB00831245088316BA00C7
:101DB000831244088316B900831243088316B800BF
:101DC0008A118312D8228A15E4010408E300641002
:101DD000831B6414831060088316BB0083125F08A2
:101DE0008316BA0083125E088316B90083125D0859
:101DF0008316B8007A08BF007908BE007808BD00D5
:101E00007708BC008A1183124F238A156308840067
:101E10008313641883177A08E0007908DF007808D4
:101E2000DE007708DD00E6010408E5006610831B8C
:101E3000661483147A088316BB008312790883160C
:101E4000BA00831278088316B900831277088316C4
:101E5000B80083125C088316BF0083125B088316E8
:101E6000BE0083125A088316BD00831259088316D8
:101E7000BC008A1183124F238A15650884008313DE
:101E8000661883177A08CA007908C9007808C8005C
:101E90007708C7004A088316B700831249088316DB
:101EA000B600831248088316B500831247088316CC
:101EB000B4008A118312B7228A157908CC007808F9
:101EC000CB004B08F8004C08F9008A110A16C02A0A
:101ED0000B08C2008B13831603178C170C14000019
:101EE000000003189B2F83120C087F390313C300D3
:101EF00003170D080313C40003170F080313C500CD
:101F000043080C1E812F9900440803178D0003130A
:101F1000450803178F0083168C170C14000000006F
:101F200083120313C10B952F982F831603179B2F32
:101F3000BB2F8316031783120C0D0E0D7F3903136D
:101F4000C30003170D080313C40003170F0803137E
:101F5000C50043080C1EAA2F9900440803178D00E2
:101F60000313450803178F008D0A03198F0A031006
:101F70000313C10B6B2FC21B8B17080083161114A0
:101F80001118C02FB4308312E9008A11E2278A1594
:101F90000630E9008A11E2278A15831611151119F6
:101FA000CF2F83120800A81BDB2F281FDB2FA817B9
:101FB0000130E307BE276308F800080083161114F8
:101FC0001118E02FB4308312E9008A11E2278A1534
:101FD0000830E9008A11E2278A156308E9008A11AE
:101FE000E2278A15E9018A11E2278A15831611155D
:081FF0001119F82F83120800FB
:10200000C9010408C8004910831B4914420EF03866
:10201000C400C407E23EC500323EC70042080F3983
:10202000C507C507C707E93EC600C607C607410E74
:102030000F39C607C707C60DC70DC709C70D410829
:102040000F39C707C40D0730C3000A30C707C603DE
:10205000031C2628C607C503031C2A28C507C4037A
:10206000031C2E28C407C303031C322843308400FA
:1020700083130730480548138407473004020319C7
:1020800048170008F700031D4D28481B4D28481A23
:102090005528C8194D2820305028C815481230300E
:1020A000F70777080C1E52289900840A481F3D281C
:1020B00008008316111411185B28B4308312E9004C
:1020C0000A12E2270A160530E9000A12E2270A1668
:1020D000E701670865078400831366188317800883
:1020E000031980286708650784008313661883171F
:1020F0000008E800E9000A12E2270A16E70A692840
:10210000E9010A12E2270A16831611151119862809
:10211000831208008316111411188C28B43083120E
:10212000E9000A12E2270A160230E9000A12E22741
:102130000A164208FA01C300E9000A12E2270A1649
:102140004108F700FA014108C300E9000A12E2273A
:102150000A16E9010A12E2270A1683161115111947
:10216000AF2883120800A818BF28281CBF28A8146D
:102170000130E4070A128A15BE270A168A1164087C
:10218000F800080000302A180130E300E400B32012
:102190002A1078182A1400302A180130003A03193E
:1021A00018292C08E4002B08E3006308F8006408F1
:1021B000F9007908AE007808AD002A100130E3007C
:1021C0000A128A15DE270A168A11F8011130F70063
:1021D00041308400831378080A1250200A168000C8
:1021E000F80A840AF70BEB28E6014130E500592094
:1021F0001130E3000A128A15DE270A168A11F80147
:102200000A30F70041308400831378080A126520F1
:102210000A168000F80A840AF70B0529E601413006
:10222000E5005920C830E3000A1277210A165C291C
:102230002908E3000A12F2270A167808A9002908DB
:10224000E3000A128A15D3270A168A117808A90012
:102250000130E3000A128A15DE270A168A11F801F6
:102260001130F70052308400831378080A1250208E
:102270000A168000F80A840AF70B3529E601523065
:10228000E50059201130E3000A128A15DE270A16EC
:102290008A11F8011130F700523084008313780856
:1022A0000A1273200A168000F80A840AF70B4F29D5
:1022B000E6015230E50059208A110A163E2D003001
:1022C0002A180130E100E400B3202A1078182A14FB
:1022D00000302A180130003A0319B1290D30F800F6
:1022E0000230F9007908AE007808AD002A100130FC
:1022F000E3000A128A15DE270A168A11F801103047
:10230000F70041308400831378080A1288200A16E7
:102310008000F80A840AF70B8429E6014130E500C1
:1023200059201230E3000A128A15DE270A168A1194
:10233000F8010730F70041308400831378080A124F
:102340009C200A168000F80A840AF70B9E29E601F1
:102350004130E5005920C830E3000A1277210A16FF
:10236000F5292908E3000A12F2270A167808A900BD
:102370002908E3000A128A15D3270A168A11780859
:10238000A9000130E3000A128A15DE270A168A1115
:10239000F8011030F70051308400831378080A12D6
:1023A00088200A168000F80A840AF70BCE29E60175
:1023B0005130E50059201230E3000A128A15DE2759
:1023C0000A168A11F8010E30F70051308400831389
:1023D00078080A12A7200A168000F80A840AF70B68
:1023E000E829E6015130E50059208A110A16432DEB
:1023F00083160317871508300313990002309A00DB
:10240000A6309800903083129800FF30A700A715DF
:10241000270883168700831227162708831687004C
:1024200031309300293083129400831694171413CB
:10243000FF3093002830831294002810A81428112C
:10244000A8152812A8162813A8170130A9002A10C9
:102450000230AE000D30AD00B001AF01831603179E
:102460000908C039890003131F129F120030031797
:102470008800831287018801890103138B15831655
:10248000961583128B158316161583128B158316DA
:10249000961483128B1583161616C03083128B0484
:1024A000831603170908C039890003131F129F12EE
:1024B000023003178800831203131F179F17831618
:1024C0009F1783121F14083003178D0001308F00EF
:1024D0000A12031328290A160430F8001F08C3390A
:1024E00078049F00A630F700F70B742A00009F14B1
:1024F0009F18782A83161E088312AB001E08AC00B2
:102500006430E3000A1277210A162E08013C0318F2
:10251000A02AFF3A031D902A2D080D3C0318A02A7B
:102520000D302D02F7002E08FA000230031C033094
:10253000FA027708AB027A08031C7A0FAC02B92AB8
:102540002E08023C031CB92A031DAA2A2D080C3CA4
:10255000031CB92A2D080D3CF7000230FA002E08A2
:10256000031C2E0FFA027708AB077A0803187A0FBC
:10257000AC072C08C2002B08C1000A128A15042ED1
:102580000A168A117908B2007808B1003208C20030
:102590003108C1000A128B2F0A160E3003178D0066
:1025A00001308F0003100F300313C1000A128A1587
:1025B00068270A168A11103084002C08C2002B08E4
:1025C000C10000200D300C1EE32A99000A300C1EB9
:1025D000E72A9900193003178D0001308F0003108E
:1025E00009300313C1000A128A1568270A168A11D6
:1025F000103084003208C2003108C10000200D30C4
:102600000C1E002B99000A300C1E042B990021305F
:1026100003178D0001308F00031008300313C10031
:102620000A128A1568270A168A11103084003008A9
:10263000C2002F08C10000200D300C1E1D2B990078
:102640000A300C1E212B99002908053C0318322B57
:102650002908C1000630C2000A12CB2F0A167708DB
:10266000A900432DA908031D382B0130A900432DD3
:10267000290B392C2908E3000A12F2270A167808D8
:10268000A9002908E3000A128A15D3270A168A111D
:102690007808A9000130E3000A128A15DE270A161D
:1026A0008A11F8010730F70033308400831378086B
:1026B0000A122F200A168000F80A840AF70B572BFB
:1026C000E6013330E50059200730E3000A128A158D
:1026D000DE270A168A11F8010730F700333084002C
:1026E000831378080A123A200A168000F80A840A2E
:1026F000F70B712BE6013330E50059200D30E30074
:102700000A128A15DE270A168A115730B3004130A3
:10271000B4005430B500B600B701E6013330E5002F
:1027200059202C08033C031CA82B031D9B2B2B08B2
:10273000E73C031CA82B1230E3000A128A15DE279F
:102740000A168A112C08C2002B08C1008A20B42B5B
:102750001130E3000A128A15DE270A168A112C08A6
:10276000C2002B08C1008A203208033C031CDC2B6A
:10277000031DBE2B3108E73C031CDC2B1530E300A6
:102780000A128A15DE270A168A112030B300B40017
:10279000B500B600B701E6013330E5005920193025
:1027A000E3000A128A15DE270A168A113208C200CF
:1027B0003108C1008A20F82B1530E3000A128A156F
:1027C000DE270A168A112030B300B400B500B60126
:1027D000E6013330E50059201830E3000A128A156B
:1027E000DE270A168A113208C2003108C1008A2089
:1027F0003008033C031C1E2C031D022C2F08E73C51
:10280000031C1E2C1C30E3000A128A15DE270A1650
:102810008A112030B300B400B501E6013330E50081
:1028200059201E30E3000A128A15DE270A168A1183
:102830003008C2002F08C1008A20382C1C30E30069
:102840000A128A15DE270A168A112030B300B40155
:10285000E6013330E50059201D30E3000A128A15E5
:10286000DE270A168A113008C2002F08C1008A200C
:10287000432D2908023C031D242D2908E3000A12D8
:10288000F2270A167808A9002908E3000A128A1517
:10289000D3270A168A117808A9000130E3000A122A
:1028A0008A15DE270A168A11F8010730F7003A3038
:1028B0008400831378080A1245200A168000F80A5B
:1028C000840AF70B5A2CE6013A30E500592007300C
:1028D000E3000A128A15DE270A168A11F80107306A
:1028E000F7003A308400831378080A123A200A1657
:1028F0008000F80A840AF70B742CE6013A30E500F0
:1029000059200D30E3000A128A15DE270A168A11B3
:102910005730BA004130BB005430BC00BD00BE018E
:10292000E6013A30E50059201230E3000A128A1518
:10293000DE270A168A11C201E630C1008A20320859
:10294000033C031CC72C031DA92C3108E73C031CC6
:10295000C72C1530E3000A128A15DE270A168A11E1
:102960002030BA00BB00BC00BD00BE01E6013A3019
:10297000E50059201930E3000A128A15DE270A16ED
:102980008A113208C2003108C1008A20E32C1530B8
:10299000E3000A128A15DE270A168A112030BA00CF
:1029A000BB00BC00BD01E6013A30E50059201830FB
:1029B000E3000A128A15DE270A168A113208C200BD
:1029C0003108C1008A203008033C031C092D031D77
:1029D000ED2C2F08E73C031C092D1C30E3000A12E4
:1029E0008A15DE270A168A112030BA00BB00BC0106
:1029F000E6013A30E50059201E30E3000A128A153C
:102A0000DE270A168A113008C2002F08C1008A206A
:102A1000232D1C30E3000A128A15DE270A168A11BC
:102A20002030BA00BB01E6013A30E50059201D30E4
:102A3000E3000A128A15DE270A168A113008C2003E
:102A40002F08C1008A20432D2908033C031D392D7E
:102A50002908E3000A12F2270A167808A9002908B3
:102A6000E3000A128A15D3270A168A117808A900EA
:102A7000432D2908043C031D3F2DC228432D29085E
:0A2A8000053C03195F29772A630063
:04400E00C22FFF3F7F
:00000001FF
;PIC16F886
;CRC=57F0  CREATED="03-¡.¾.-14 01:01"
