:1000000010308A0000280000FF00030E8301A100C9
:100010000A08A0008A010408A2007708A300780853
:10002000A4007908A5007A08A600831383128B1D0B
:100030001B280B182C28220884002308F70024080A
:10004000F8002508F9002608FA0020088A00210E89
:100050008300FF0E7F0E09008A110A1250280A1031
:100060008A100A118207533445344E3453344F34C6
:10007000523400340A108A100A11820720342034C6
:100080006D3441342034203400340A108A100A11AF
:100090008207203476346F346C3474342034003466
:1000A00083168615831286195928A81859282814EA
:1000B0009B28831686158312861D6328A81C632837
:1000C0002810A8109B2883160615831206196C2881
:1000D000A8196C2828159B28831606158312061D5F
:1000E0007628A81D76282811A8119B288316861427
:1000F000831286187F28A81A7F2828169B28831623
:1001000086148312861C8928A81E89282812A81202
:100110009B28831606168312061A9228A81B92287B
:1001200028179B28831606168312061E9B28A81FD5
:100130009B282813A8130B108A110A121B28D330EE
:100140006D38EC34EE33BA060A00D332EE396F392B
:10015000203B6136F532A01EA012CC3A0D050000FE
:10016000C126D022D222A01EA012CC3A0D05000139
:10017000D027D72252103D102526F5060A000B087D
:10018000DE008B13831603178C170C14000000007D
:1001900083120C087F39031908290313DF000317A2
:1001A0000D080313E00003170F080313E1005F08B5
:1001B0000C1ED8289900600803178D0003136108EE
:1001C00003178F0083168C170C1400000000831295
:1001D0000C0D0E0D7F39031908290313DF000317D7
:1001E0000D080313E00003170F080313E1005F0875
:1001F0000C1EF8289900600803178D00031361088E
:1002000003178F008D0A03198F0A0313C2280317DF
:100210000313DE1B8B178A110A1690285F308400A7
:1002200083130008031921290630F800F701F70BA2
:100230001729F80B16297B30F700F70B1D29800BC7
:10024000142908008E30F70083163908F8003808A2
:10025000F900FA01F808031D37297908F800F901B7
:100260000830F702F808031D3729F7013F2903106A
:10027000F81B3E29F90DF80DF7033729F8138312FF
:10028000080083163508BC003908BC06BC1F4D2980
:1002900003110310B51B031480293508BC0038086E
:1002A000BD003408BD0203195B29BC1F8029030867
:1002B000013A830080293908BD003508BD020319C1
:1002C0006729BC1F80290308013A830080293A0866
:1002D000BD003608BD0203197329BC1F802903081D
:1002E000013A830080293B08BD003708BD0203198D
:1002F0007F29BC1F80290308013A8300802903104D
:100300008312080083162D080319482AB900310802
:100310000319482AB902031C92297F30B907031830
:10032000482A98298130B902031C482A0319482A0F
:100330003908F700F801F901FA01B8012E08B700F1
:10034000B7172F08B6003008B5001930B9003408C7
:10035000B5020318BB290130B6020318BB29B70246
:100360000318BB29B8020318BB29B80AB70AB60A92
:100370003408B507ED293308B6020318D629013031
:10038000B7020318D629B8020318D629B80AB70A43
:100390003308B6073408B507031CED29B60A031D58
:1003A000ED29B70A031DED29B80AED293208803876
:1003B000B7020318EC290130B8020318EC29B80A77
:1003C00032088038B7073308B607031CCA29B70AB2
:1003D000031DCA29B80ACA297A14B90BF029FB29C6
:1003E0000310B50DB60DB70DB80D0310FA0DF90DCC
:1003F000F80DBA0DA7293A1C032A0310F80CF90CC2
:10040000FA0CBA0C062AF7030319482ABA1B2F2A3A
:100410000310B50DB60DB70DB80D3408B5020318AD
:100420001B2A0130B60203181B2AB70203181B2A25
:10043000B802031C3E2A3308B6020318262A0130EC
:10044000B7020318262AB802031C3E2A3208803855
:10045000B70203182F2A0130B802031C3E2AFA0AF9
:10046000031D3E2AF90A031D3E2AF80A031D3E2AEF
:10047000F70A0319482AF80CF90CFA0C2E08B900EF
:100480003208B906B91F462AF8174C2AF8134C2A25
:10049000F701F801F901FA01831208008E30F70024
:1004A00083163408F7023508F9003608F800F91702
:1004B000F7080319662A0310F908031D622AF808D1
:1004C0000319662AF90CF80CF70B5B2AB51F6D2A85
:1004D000F809F909F80A0319F90A831208008316C2
:1004E00034080319E02ABC0038080319E02ABC07C5
:1004F0000318812A7F30BC02031CE02A0319E02A7A
:10050000852A8130BC070318E02A3C08F700F8016F
:10051000F901FA013508C000C0173608BF003708D6
:10052000BE001830BC00BD013E1CAE2A3B08FA07D5
:10053000031CA02AF90A031DA02AF80A0319BD17F3
:100540003A08F907031CA72AF80A0319BD17390846
:10055000B600B6173608F8070318BD17BD0DF80C1E
:10056000F90CFA0CC00CBF0CBE0C0310BC0B932A88
:100570000130F7070318E02AF81BC52AC00DFA0D51
:10058000F90DF80DF7030319E02AC01FD62AFA0A5D
:10059000031DD62AF90A031DD62AF80A031DD62AF6
:1005A000F80CF90CFA0CF70A0319E02A3508BD001B
:1005B0003908BD06BD1FDE2AF817E42AF813E42A1D
:1005C000F701F801F901FA01831208008030831C59
:1005D000EC2A8316BD0683128316C201C3013908B3
:1005E000C1003D08C10638080319DA2BC000F70026
:1005F0003C080319E32BC00203197F2B031C3D2B7E
:100600003D08C600C6173E08C5003F08C400C30128
:100610000310C60CC50CC40CC30CC00B072BC11FA8
:10062000142B4214F72B421040104216BB308400AA
:1006300083130C2C4212C11B272B401C322BC60CDF
:10064000C50CC40CC30CF70A0319F22B322BC61BC2
:10065000352B0310C30DC40DC50DC60DF7030319CB
:10066000F22B272B42179F2B42133908C100C11FC1
:100670003B2BC617EB2BC613EB2B3C08C000F70037
:100680003808C0023908C600C6173A08C5003B083A
:10069000C400C3010310C60CC50CC40CC30CC00BB2
:1006A000492BC11F562BC214F72BC2104010C21683
:1006B000BF30840083130C2CC212C11B692B401C59
:1006C000742BC60CC50CC40CC30CF70A0319F22B0F
:1006D000742BC61B772B0310C30DC40DC50DC60D9F
:1006E000F7030319F22B692BC2179F2BC2133D0886
:1006F000C100C11F7D2BC617EB2BC613EB2B3D088A
:10070000C600C6173E08C5003F08C400C11F8C2B99
:10071000C6134215F72B4211C3014010BB308400B1
:1007200083130C2CC11BB52B3908C100401C9F2B17
:10073000C60CC50CC40CC30CF70A0319F22BC31F5B
:10074000B02BC40A031DB02BC50A031DB02BC60A6B
:10075000031DB02BC60CC50CC40CF70A0319F22BF1
:10076000421B342BC21B762BD42B8030C606C61FEF
:10077000BD2BF72B3D08C100CA2B3908C100C608A4
:10078000031DCA2BC508031DCA2BC408031DCA2B91
:10079000F701EB2BC61BD42B0310C30DC40DC50DE5
:1007A000C60DF70BCA2BF22BC11FD82BC617EB2B8C
:1007B000C613EB2B3C08F7003D08C6003E08C500F9
:1007C0003F08C400EB2B3808F7003908C6003A0888
:1007D000C5003B08C4004608F8004508F900440875
:1007E000FA002A2CF701F801F901FA012A2CC301B9
:1007F000C409C509C609C309C30A031D052CC40AD7
:10080000031D052CC50A0319C60A4218132BC2186A
:10081000552B42198B2BBA2B0008C407031C162C2E
:10082000C50A031D162CC60A0319401484030008C8
:10083000C507031C1E2CC60A0319401484030008B4
:10084000801F803AC60703184014421A1A2BC21A96
:100850005C2B922B83120800831633102708AC0000
:100860002608AB002508AA002408A9002708B7001D
:100870002608B6002508B5002408B400BB01BA015B
:10088000B901B80183124121031C4C2C8316331487
:100890002A08803AAA00831283162C08B7002B0876
:1008A000B6002A08B5002908B400BB01BA01B90195
:1008B0008E30B800831241210318602C031D7D2C5B
:1008C00083162C08B7002B08B6002A08B5002908A3
:1008D000B40083124E2279088316B9007808B80054
:1008E000831222217A088316B0007908AF007808B5
:1008F000AE007708AD00552D831283162C08B70083
:100900002B08B6002A08B5002908B4008030BB00C7
:100910009630BA001830B9009630B80083124121E1
:10092000031C4C2D83162C08B7002B08B6002A0890
:10093000B5002908B400BB01BA01B9017030B80094
:1009400083126F227A088316B7007908B6007808F8
:10095000B5007708B40083124E2279088316B200DE
:100960007808B1002C08B7002B08B6002A08B5009B
:100970002908B400BB01BA01B9017030B800831274
:100980006F227A088316B7007908B6007808B50098
:100990007708B4003208B9003108B8008312222168
:1009A000831483163708BB003608BA003508B9002F
:1009B0003408B8007A08BF007908BE007808BD0086
:1009C0007708BC008312E6228316B701B601B50191
:1009D0008E30B4007A08BB007908BA007808B900F4
:1009E0007708B80083126F227A088316AC00790862
:1009F000AB007808AA007708A9003208B9003108CE
:100A0000B800831222218316B701B601B5018E30DA
:100A1000B4007A08BB007908BA007808B9007708F2
:100A2000B80083126F227A088316B0007908AF00ED
:100A30007808AE007708AD002C08B7002B08B60088
:100A40002A08B5002908B40083124E2279088316BB
:100A5000B9007808B8008312222183108316300869
:100A6000BB002F08BA002E08B9002D08B8007A087C
:100A7000BF007908BE007808BD007708BC0083126B
:100A8000E6227A088316B0007908AF007808AE0035
:100A90007708AD00552D831283162C08B0002B0863
:100AA000AF002A08AE002908AD002C08B7002B08BB
:100AB000B6002A08B5002908B40083124E2279082E
:100AC0008316B9007808B800831222218314831694
:100AD0002C08BB002B08BA002A08B9002908B80066
:100AE0007A08BF007908BE007808BD007708BC000E
:100AF0008312E6227A088316AC007908AB007808E6
:100B0000AA007708A900331C882D2E08803AAE0071
:100B10002C08B7002B08B6002A08B5002908B40035
:100B2000BB01BA01B901B801831241210319D52DC6
:100B30008316331CB72DA808031DB72D8314300866
:100B4000BB002F08BA002E08B9002D08B800BF015D
:100B5000BE01BD017F30BC008312E6227A088316F5
:100B6000B0007908AF007808AE007708AD00331800
:100B7000D42D280BD42D83103008BB002F08BA00C9
:100B80002E08B9002D08B800BF01BE01BD017F309D
:100B9000BC008312E6227A088316B0007908AF0001
:100BA0007808AE007708AD00831283162708B700D7
:100BB0002608B6002508B5002408B400BB01BA0118
:100BC000B901B80183124121031DEC2D8316B00138
:100BD000AF01AE01AD01831283162D08F7002E0878
:100BE000F8002F08F9003008FA0083120800710895
:100BF0008316B7007008B60083126F088316B5001D
:100C000083126E088316B400BB01BA01B901B801A2
:100C1000831241210319F02E6D088316B000831250
:100C20006C088316AF0083126B088316AE00831224
:100C30006A088316AD007108B4007008B30083120F
:100C40006F088316B20083126E088316B1008312F8
:100C500082217A08FE007908FD007808FC007708F8
:100C6000FB007E088316B7007D08B6007C08B5003F
:100C70007B08B400BB01BA01B901B801831241215C
:100C8000031C7D2E6D088316B00083126C0883163A
:100C9000AF0083126B088316AE0083126A088316B6
:100CA000AD007108B4007008B30083126F0883169A
:100CB000B20083126E088316B100831282217A0873
:100CC000FE007908FD007808FC007708FB007E082C
:100CD0008316A3007D08A2007C08A1007B08A00069
:100CE0002308A7002208A6002108A5002008A400C8
:100CF0000130A80083122C24B62E6D088316B00094
:100D000083126C088316AF0083126B088316AE0043
:100D100083126A088316AD007108B4007008B3002E
:100D200083126F088316B20083126E088316B10017
:100D3000831282217A08FE007908FD007808FC0001
:100D40007708FB007E088316A3007D08A2007C08BC
:100D5000A1007B08A0002308A7002208A600210804
:100D6000A5002008A400A80183122C247A08F5000D
:100D70007908F4007808F3007708F2007508831604
:100D8000B7007408B6007308B5007208B4007108A3
:100D9000BB007008BA0083126F088316B900831273
:100DA0006E088316B80083126F2283146D088316B1
:100DB000BB0083126C088316BA0083126B0883167B
:100DC000B90083126A088316B8007A08BF00790850
:100DD000BE007808BD007708BC008312E622F02E22
:100DE00008008E30F70083162B08F8002A08F90057
:100DF000FA01AB1F002FF809F909F90A0319F80ADB
:100E0000F808031D0D2F7908F800F9010830F702E2
:100E1000F808031D0D2FF701162F0310F81B142FD0
:100E2000F90DF80DF7030D2FAB1FF813831208000F
:100E30000B08DF008B13831603178C170C140000AC
:100E4000000003184B2F83120C087F390313E000B6
:100E500003170D080313E10003170F080313E20043
:100E600060080C1E312F9900610803178D000313D1
:100E7000620803178F0083168C170C140000000003
:100E800083120313DE0B452F482F831603174B2FB6
:100E90006B2F8316031783120C0D0E0D7F3903136E
:100EA000E00003170D080313E10003170F080313F5
:100EB000E20060080C1E5A2F9900610803178D008C
:100EC0000313620803178F008D0A03198F0A03109A
:100ED0000313DE0B1B2FDF1B8B170800E601040832
:100EE000E5006610831B66145F0EF038E100E10731
:100EF000E23EE200323EE4005F080F39E207E2071B
:100F0000E407E93EE300E307E3075E0E0F39E3077A
:100F1000E407E30DE40DE409E40D5E080F39E4078E
:100F2000E10D0730E0000A30E407E303031C942FCF
:100F3000E307E203031C982FE207E103031C9C2F45
:100F4000E107E003031CA02F603084008313073007
:100F500065056513840764300402031965170008EA
:100F6000F700031DBB2F651BBB2F651AC32FE519A7
:100F7000BB2F2030BE2FE51565123030F7077708FC
:100F80000C1EC02F9900840A651FAB2F0800941314
:100F90008C11640893000230941BD52F8C1DCE2F2A
:100FA00000308316111B01308312F80008008316ED
:100FB00011141118D92FB4308312E400C72706305A
:100FC000E400C727831611151119E42F83120800B6
:100FD000A81AF02F281EF02FA8160130DE02D727FE
:0A0FE0005E08F8008A110A16C62AFE
:101000007108F5007008F4006F08F3006E08F20034
:1010100075088316B7007408B6007308B500720827
:10102000B400BB01BA01B9017F30B8008A11831244
:1010300041218A150319DB298316A9017230A80002
:10104000280884008313291883177E3080008314B6
:101050007508BB007408BA007308B9007208B800BC
:10106000BF01BE01BD017F30BC008A118312E622A0
:101070008A157A088316AB007908AA007808A900B7
:101080007708A80083107508BB007408BA007308BD
:10109000B9007208B800BF01BE01BD017F30BC00BD
:1010A0008A118312E6228A1583162B08B0002A08BB
:1010B000AF002908AE002808AD007A08B40079080E
:1010C000B3007808B2007708B1008A118312822138
:1010D0008A157A08F5007908F4007808F300770893
:1010E000F20075088316B7007408B6007308B500DF
:1010F0007208B4007508BB007408BA007308B90020
:101100007208B8008A1183126F228A157A08831632
:10111000A7007908A6007808A5007708A4009930F0
:10112000B7004730B6008A30B5007F30B4002708DA
:10113000BB002608BA002508B9002408B8008A11A7
:1011400083126F228A157A088316AB007908AA00E9
:101150007808A9007708A80083102B08BB002A088C
:10116000BA002908B9002808B800BF01BE01BD01B6
:101170008030BC008A118312E6228A157A08FE00AC
:101180007908FD007808FC007708FB004C308316D6
:10119000B700F330B6003A30B5007B30B400270812
:1011A000BB002608BA002508B9002408B8008A1137
:1011B00083126F228A157A088316AB007908AA0079
:1011C0007808A9007708A80083102B08BB002A081C
:1011D000BA002908B9002808B8002B30BF009D309C
:1011E000BE00DF30BD007E30BC008A118312E622D3
:1011F0008A157A088316A3007908A2007808A1004E
:101200007708A0002308B7002208B6002108B5001F
:101210002008B4002708BB002608BA002508B9003A
:101220002408B8008A1183126F228A157A0883165F
:10123000AB007908AA007808A9007708A8008310F5
:101240002B08BB002A08BA002908B9002808B800F2
:10125000BF01BE01BD017F30BC008A118312E622AE
:101260008A157A088316A3007908A2007808A100DD
:101270007708A0007508B7007408B6007308B500B9
:101280007208B4007E08BB007D08BA007C08B90073
:101290007B08B8008A1183126F228A157A08831698
:1012A000AB007908AA007808A9007708A8002B08E5
:1012B000B0002A08AF002908AE002808AD002308B6
:1012C000B4002208B3002108B2002008B1008A113E
:1012D000831282218A157A08FE007908FD007808B9
:1012E000FC007708FB008316A9016E30A8002808CF
:1012F00084008313291883177E300002F600F61F3E
:1013000096297608003CAB01AA00AA1BAB038A1100
:101310008312F1268A1577088316A0007808803A90
:10132000A1007908A2007A08A300A829AB017608D9
:10133000AA00AA1BAB038A118312F1268A157A0828
:101340008316A3007908A2007808A1007708A000FE
:101350002308B7002208B6002108B5002008B40011
:101360001830BB007230BA003130B9007E30B8009E
:101370008A1183126F228A1583107E088316BB00A0
:101380007D08BA007C08B9007B08B8007A08BF0065
:101390007908BE007808BD007708BC008A11831266
:1013A000E6228A157A08FE007908FD007808FC001C
:1013B0007708FB00DF29FE01FD01FC01FB017B0832
:1013C000F7007C08F8007D08F9007E08FA000800A4
:1013D00071088316B7007008B60083126F08831671
:1013E000B50083126E088316B4003B30BB00AA30F0
:1013F000BA003830B9007F30B8008A1183126F22EA
:101400008A157A088316B7007908B6007808B500FF
:101410007708B4008A1183124E228A157808F600E4
:10142000831624107108F5007008F40083126F0809
:10143000F3006E08F20071088316B7007008B6005A
:1014400083126F088316B50083126E088316B400EA
:10145000BB01BA01B901B8018A11831241218A1571
:10146000031C3A2A83162414F609F60A7308803AF4
:10147000F3008312FE01FD01FC01FB018316A601AE
:101480007B30A500250884008313261883177F303E
:10149000760780007508B7007408B6007308B500B9
:1014A0007208B4003B30BB00AA30BA003830B90033
:1014B0007F30B8008A1183126F228A157A0883164A
:1014C000A8007908A7007808A6007708A500AB0156
:1014D0007608AA00AA1BAB038A118312F1268A158B
:1014E000831483162808BB002708BA002608B90011
:1014F0002508B8007A08BF007908BE007808BD004A
:101500007708BC008A118312E6228A157A08F50052
:101510007908F4007808F3007708F2007C3083162D
:10152000B7008830B6005930B5007230B400750885
:10153000BB007408BA007308B9007208B8008A11B9
:1015400083126F228A157A088316A8007908A700EB
:101550007808A6007708A50083102808BB00270894
:10156000BA002608B9002508B800E030BF0097305F
:10157000BE002630BD007530BC008A118312E62201
:101580008A157A088316A3007908A2007808A100BA
:101590007708A0002308B7002208B6002108B5008C
:1015A0002008B4007508BB007408BA007308B900BD
:1015B0007208B8008A1183126F228A157A0883167E
:1015C000A8007908A7007808A6007708A50083106E
:1015D0002808BB002708BA002608B9002508B8006B
:1015E000C430BF001D30BE001E30BD007830BC00CE
:1015F0008A118312E6228A157A088316A3007908D5
:10160000A2007808A1007708A0002308B7002208EC
:10161000B6002108B5002008B4007508BB007408A6
:10162000BA007308B9007208B8008A1183126F22D9
:101630008A157A088316A8007908A7007808A600FA
:101640007708A50083102808BB002708BA002608E1
:10165000B9002508B8005E30BF005030BE006330CE
:10166000BD007A30BC008A118312E6228A157A08FE
:101670008316A3007908A2007808A1007708A000CB
:101680002308B7002208B6002108B5002008B400DE
:101690007508BB007408BA007308B9007208B80076
:1016A0008A1183126F228A157A088316A800790896
:1016B000A7007808A6007708A50083102808BB00BB
:1016C0002708BA002608B9002508B8001A30BF005C
:1016D000FE30BE007530BD007C30BC008A11831224
:1016E000E6228A157A088316A3007908A2007808F2
:1016F000A1007708A0002308B7002208B60021083F
:10170000B5002008B4007508BB007408BA0073085F
:10171000B9007208B8008A1183126F228A157A08FC
:101720008316A8007908A7007808A6007708A50006
:1017300083102808BB002708BA002608B90025082E
:10174000B8001830BF007230BE003130BD007E30AE
:10175000BC008A118312E6228A157A088316A30038
:101760007908A2007808A1007708A0007508B700E2
:101770007408B6007308B5007208B4002308BB00F3
:101780002208BA002108B9002008B8008A11831283
:101790006F228A1583108316BB01BA01B9017F300D
:1017A000B8007A08BF007908BE007808BD00770845
:1017B000BC008A118312E6228A157E088316B700C0
:1017C0007D08B6007C08B5007B08B4007A08BB0031
:1017D0007908BA007808B9007708B8008A1183122E
:1017E0006F228A157A08FE007908FD007808FC004F
:1017F0007708FB008316241C172CB001AF01AE0143
:101800007F30AD007E08B4007D08B3007C08B200D4
:101810007B08B1008A11831282218A157A08FE00A2
:101820007908FD007808FC007708FB0083167B0828
:10183000F7007C08F8007D08F9007E08FA008312A2
:10184000080065088316B700831264088316B60083
:10185000831263088316B500831262088316B400EE
:10186000BB01BA01B901B8018A11831241218A155D
:10187000031C3C2D6908ED006808EC006708EB00CC
:101880006608EA00F101F001EF017F30EE008A11F5
:10189000F7258A157A08ED007908EC007808EB0046
:1018A0007708EA006D088316B70083126C08831668
:1018B000B60083126B088316B50083126A0883167C
:1018C000B400BB01BA01B901B8018A1183124121E8
:1018D0008A15031D3C2D6908ED006808EC006708B7
:1018E000EB006608EA00F101F001EF018030EE0044
:1018F0008A11F7258A157A08ED007908EC00780836
:10190000EB007708EA006D088316B70083126C08B5
:101910008316B60083126B088316B50083126A081B
:101920008316B400BB01BA01B901B8018A11831250
:1019300041218A15031DEB2C6208EA006308803AF6
:10194000EB006408EC006508ED00F1006C08F000A5
:101950006B08EF006A08EE0000207A08ED007908B5
:10196000EC007808EB007708EA006D088316B700F2
:1019700083126C088316B60083126B088316B500B9
:1019800083126A088316B400831269088316BB00A9
:10199000831268088316BA00831267088316B90099
:1019A000831266088316B8008A1183126F228A1583
:1019B0007A08ED007908EC007808EB007708EA0077
:1019C0006D08F1006C08F0006B08EF006A08EE008B
:1019D000E821052E3B2D6208EA006308803AEB00FF
:1019E0006408EC006508ED00F1006C08F0006B087D
:1019F000EF006A08EE0000207A08ED007908EC009C
:101A00007808EB007708EA006D088316B7008312A8
:101A10006C088316B60083126B088316B500831218
:101A20006A088316B400831269088316BB00831208
:101A300068088316BA00831267088316B9008312F8
:101A400066088316B8008A1183126F228A157A08F5
:101A5000ED007908EC007808EB007708EA006D08E3
:101A6000F1006C08F0006B08EF006A08EE00E82156
:101A70008030F806052E052E65088316B700831200
:101A800064088316B600831263088316B5008312B8
:101A900062088316B400BB01BA01B901B8018A110A
:101AA000831241218A15031C8C2D6908ED006808FA
:101AB000EC006708EB006608EA00F101F001EF01B5
:101AC0007F30EE008A11F7258A157A08ED00790833
:101AD000EC007808EB007708EA006D088316B70081
:101AE00083126C088316B60083126B088316B50048
:101AF00083126A088316B400BB01BA01B901B801A8
:101B00008A11831241218A1503198C2DF701F801DE
:101B1000F901FA01052E052E65088316B700831218
:101B200064088316B600831263088316B500831217
:101B300062088316B400BB01BA01B901B8018A1169
:101B4000831241218A15031DC02D69088316B70031
:101B5000831268088316B600831267088316B500DF
:101B6000831266088316B400BB01BA01B901B8013B
:101B70008A11831241218A150318C02D031D052ED9
:101B80006508F1006408F0006308EF006208EE00E9
:101B900000207A08ED007908EC007808EB0077085F
:101BA000EA006D088316B70083126C088316B6002E
:101BB00083126B088316B50083126A088316B4007B
:101BC000831269088316BB00831268088316BA0063
:101BD000831267088316B900831266088316B8005B
:101BE0008A1183126F228A157A08ED007908EC00B9
:101BF0007808EB007708EA006D08F1006C08F00047
:101C00006B08EF006A08EE00E8210800A81B102E00
:101C1000281F102EA8170130DE078A11D7278A1532
:101C20005E08F8008A110A16CE2A5F08F8015E02E3
:101C300003181D2E5E08F700292EF7010830E0007A
:101C4000DE0DF70D5F0877020318F700F80DE00BC3
:101C5000202E8A110A16DD2A8316111411182E2E31
:101C6000B4308312E4008A11C7278A150830E400D3
:101C70008A11C7278A155E08E4008A11C7278A15CA
:101C8000E4018A11C7278A15831611151119462EEA
:101C9000831208008316111411184C2EB4308312CD
:101CA000E4008A11C7278A150530E4008A11C72786
:101CB0008A15E201620860078400831361188317A4
:101CC00080080319712E620860078400831361186D
:101CD00083170008E300E4008A11C7278A15E20A87
:101CE0005A2EE4018A11C7278A1583161115111976
:101CF000772E831208008316111411187D2EB4302C
:101D00008312E4008A11C7278A150230E4008A1181
:101D1000C7278A155F08FA01E000E4008A11C72787
:101D20008A155E08F700FA015E08E000E4008A11F7
:101D3000C7278A15E4018A11C7278A15831611154A
:081D40001119A02E8312080006
:1020000083160317871508300313990002309A00CE
:10201000A6309800903083129800FF30A700A715D3
:102020002708831687008312271627088316870040
:1020300031309300293083129400831694171413BF
:10204000FF3093002830831294002810A814281120
:10205000A8152812A8162813A8178316031709080D
:10206000C039890003131F129F1200300317880024
:10207000831287018801890102300313BE000D30ED
:10208000BD00FA30C200A230C1004830C00071303B
:10209000BF00AC30C6001930C5003930C4007C30F8
:1020A000C3001030CA009830C9006A30C8008530BB
:1020B000C7009A30CE00F830CD004730CC008D30CC
:1020C000CB000130CF008B158316961583128B152C
:1020D0008316161583128B158316961483128B158F
:1020E00083161616C03083128B0483160317090853
:1020F000C039890003131F129F1202300317880092
:10210000831203131F179F1783169F1783121F1421
:102110009F3003178D0000308F000A120313BF2871
:102120000A160430F8001F08C33978049F00A6304F
:10213000F700F70B992800009F149F189D2883161D
:102140001E088312A9001E08AA006430DF000A12CC
:102150000E210A163E08013C0318C528FF3A031D4C
:10216000B5283D080D3C0318C5280D303D02F70089
:102170003E08FA000230031C0330FA027708A90275
:102180007A08031C7A0FAA02DE283E08023C031CD0
:10219000DE28031DCF283D080C3C031CDE283D082B
:1021A0000D3CF7000230FA003E08031C3E0FFA0215
:1021B0007708A9077A0803187A0FAA072A0883164E
:1021C000B900831229088316B8000A12831222214B
:1021D0000A167A08B0007908AF007808AE007708D0
:1021E000AD003008E5002F08E4002E08E3002D08BC
:1021F000E200E901E8014030E7008030E6000A1221
:102200008A1521240A168A1142088316B700831200
:1022100041088316B600831240088316B500831266
:102220003F088316B4007A08BB007908BA00780822
:10223000B9007708B8000A1283126F220A167A08CA
:10224000E1007908E0007808DF007708DE00300858
:10225000E5002F08E4002E08E3002D08E200E90164
:10226000E801E7018030E6000A128A1521240A16E7
:102270008A1146088316B700831245088316B600F4
:10228000831244088316B500831243088316B400F2
:102290007A08BB007908BA007808B9007708B80056
:1022A0000A1283126F220A16E3010408E200631087
:1022B000831B6314831461088316BB0083126008B8
:1022C0008316BA0083125F088316B90083125E0872
:1022D0008316B8007A08BF007908BE007808BD00F0
:1022E0007708BC000A128312E6220A1662088400EC
:1022F0008313631883177A08E1007908E0007808EF
:10230000DF007708DE004A088316B7008312490809
:102310008316B600831248088316B5008312470857
:102320008316B400831230088316BB0083122F0873
:102330008316BA0083122E088316B90083122D0863
:102340008316B8000A1283126F220A16E5010408E8
:10235000E4006510831B6514831061088316BB00BD
:10236000831260088316BA0083125F088316B900CF
:1023700083125E088316B8007A08BF007908BE0091
:102380007808BD007708BC000A128312E6220A16FC
:10239000640884008313651883177A08E1007908BC
:1023A000E0007808DF007708DE00E7010408E600B7
:1023B0006710831B6714831461088316BB008312A4
:1023C00060088316BA0083125F088316B90083126F
:1023D0005E088316B80083124E088316BF0083126E
:1023E0004D088316BE0083124C088316BD0083126D
:1023F0004B088316BC000A128312E6220A166608EE
:1024000084008313671883177A08B4007908B3002F
:102410007808B2007708B10034088316B700831239
:1024200033088316B600831232088316B500831270
:1024300031088316B4000A1283124E220A16790854
:10244000BA007808B9003A088316B900831239082F
:102450008316B8000A12831222210A161F3083162F
:10246000B7008530B6006B30B5007C30B4007A0818
:10247000BB007908BA007808B9007708B8000A12DA
:1024800083126F220A167A08B8007908B700780814
:10249000B6007708B50038088316B70083123708EE
:1024A0008316B600831236088316B50083123508EA
:1024B0008316B4000A1283124E220A167908BC0051
:1024C0007808BB00A53003178D0000308F00031083
:1024D0000F300313DE000A1218270A16103084008A
:1024E0002A08DF002908DE000A126E270A160D30BE
:1024F0000C1E782A99000A300C1E7C2A9900B030F4
:1025000003178D0000308F00031009300313DE0025
:102510000A1218270A16103084003A08DF0039081A
:10252000DE000A126E270A160D300C1E952A99003D
:102530000A300C1E992A9900B83003178D0000301C
:102540008F00031008300313DE000A1218270A1642
:10255000103084003C08DF003B08DE000A126E27C2
:102560000A160D300C1EB22A99000A300C1EB62A2B
:1025700099000230DE00FA30DF000A120E210A163E
:10258000DE0BBB2A4F08DE000A12E82F0A16780875
:10259000CF004F08DE000A128A15062E0A168A118D
:1025A0007808CF004F08063C0318E22A4F08DE00E7
:1025B0000630DF000A128A15152E0A168A117708CE
:1025C000CF003A2C4F0B8E2B0130DE000A128A15F9
:1025D0002C260A168A11F8010730F70050308400C3
:1025E000831378080A122F200A168000F80A840A3A
:1025F000F70BF12AE1015030E0000A128A154A2651
:102600000A168A110730DE000A128A152C260A16CD
:102610008A11F8010730F7005030840083137808DE
:102620000A123A200A168000F80A840AF70B0F2BC8
:10263000E1015030E0000A128A154A260A168A1172
:102640000D30DE000A128A152C260A168A11573020
:10265000D0004130D1005430D200D300D401E10188
:102660005030E0000A128A154A260A168A111230E2
:10267000DE000A128A152C260A168A112A08DF00A3
:102680002908DE000A128A157B260A168A111530DF
:10269000DE000A128A152C260A168A112030D00074
:1026A000D100D200D301E1015030E0000A128A15B6
:1026B0004A260A168A111830DE000A128A152C26BC
:1026C0000A168A113A08DF003908DE000A128A1554
:1026D0007B260A168A111C30DE000A128A152C2667
:1026E0000A168A112030D000D101E1015030E000FB
:1026F0000A128A154A260A168A111D30DE000A12AD
:102700008A152C260A168A113C08DF003B08DE00D9
:102710000A128A157B260A168A113A2C4F08023CA7
:10272000031D3A2C0130DE000A128A152C260A16E7
:102730008A11F8010730F7005730840083137808B6
:102740000A1245200A168000F80A840AF70B9F2B0C
:10275000E1015730E0000A128A154A260A168A114A
:102760000730DE000A128A152C260A168A11F80193
:102770000730F70057308400831378080A123A2094
:102780000A168000F80A840AF70BBD2BE1015730C6
:10279000E0000A128A154A260A168A110D30DE0058
:1027A0000A128A152C260A168A115730D700413092
:1027B000D8005430D900DA00DB01E1015730E000E5
:1027C0000A128A154A260A168A111230DE000A12E7
:1027D0008A152C260A168A11DF01E630DE000A125D
:1027E0008A157B260A168A111530DE000A128A1510
:1027F0002C260A168A112030D700D800D900DA0119
:10280000E1015730E0000A128A154A260A168A1199
:102810001830DE000A128A152C260A168A113A0888
:10282000DF003908DE000A128A157B260A168A1193
:102830001C30DE000A128A152C260A168A11203056
:10284000D700D801E1015730E0000A128A154A2664
:102850000A168A111D30DE000A128A152C260A1665
:102860008A113C08DF003B08DE000A128A157B262D
:082870000A168A119C2863007E
:04400E00C22FFF3F7F
:00000001FF
;PIC16F886
;CRC=4287  CREATED="01-¡.¾.-14 17:41"
