:1000000010308A00C7280000FF00030E8301A10002
:100010000A08A0008A010408A2007708A300780853
:10002000A4007908A5007A08A600831383128B1D0B
:100030001B280B182C28220884002308F70024080A
:10004000F8002508F9002608FA0020088A00210E89
:100050008300FF0E7F0E09008A110A12B9280A10C8
:100060008A100A118207533445344E3453344F34C6
:10007000523400340A108A100A11820720342034C6
:100080006D3441342034203400340A108A100A11AF
:100090008207203476346F346C3474342034003466
:1000A0000A108A100A118207203420342034433485
:1000B00041344C344934423452344134543445345C
:1000C000203420342034203400340A108A100A11DD
:1000D0008207203420344F344B34203421342134EF
:1000E0002134203400340A108A100A118207203487
:1000F00020345434683469347334203454346F34C5
:100100006F346C34203421342134213420340034D1
:100110000A108A100A118207523445345334453488
:1001200054342034433441344C344934423452340E
:1001300041345434453400340A108A100A118207BD
:100140004F344B34203421342134213400340A100C
:100150008A100A11820754346834693473342034A5
:1001600054346F346F346C342034213421342134CE
:1001700000348316861583128619C228A818C2284F
:1001800028140429831686158312861DCC28A81CE2
:10019000CC282810A81004298316061583120619E6
:1001A000D528A819D52828150429831606158312E1
:1001B000061DDF28A81DDF282811A8110429831691
:1001C000861483128618E828A81AE8282816042915
:1001D000831686148312861CF228A81EF228281281
:1001E000A8120429831606168312061AFB28A81BD8
:1001F000FB2828170429831606168312061E0429D5
:10020000A81F04292813A8130B108A110A121B28EF
:10021000D3306D38EC34EE33BA060A00D332EE39FF
:100220006F39203B6136F532A01EA012CC3A0D0585
:100230000000C126D022D222A01EA012CC3A0D0569
:100240000001D027D72252103D102526F5060A00BE
:100250000B08DF008B13831603178C170C14000098
:10026000000083120C087F39031971290313E00081
:1002700003170D080313E10003170F080313E2002F
:1002800060080C1E41299900610803178D000313B3
:10029000620803178F0083168C170C1400000000EF
:1002A00083120C0D0E0D7F39031971290313E00021
:1002B00003170D080313E10003170F080313E200EF
:1002C00060080C1E61299900610803178D00031353
:1002D000620803178F008D0A03198F0A03132B2955
:1002E00003170313DF1B8B178A110A165C29B13021
:1002F00084008313000803198A290630F800F701E7
:10030000F70B8029F80B7F297B30F700F70B862944
:10031000800B7D2908008E30F70083163908F8001D
:100320003808F900FA01F808031DA0297908F80037
:10033000F9010830F702F808031DA029F701A829E0
:100340000310F81BA729F90DF80DF703A029F813DE
:100350008312080083163508BC003908BC06BC1F90
:10036000B62903110310B51B0314E9293508BC0095
:100370003808BD003408BD020319C429BC1FE9298F
:100380000308013A8300E9293908BD003508BD0298
:100390000319D029BC1FE9290308013A8300E92980
:1003A0003A08BD003608BD020319DC29BC1FE92943
:1003B0000308013A8300E9293B08BD003708BD0264
:1003C0000319E829BC1FE9290308013A8300E92938
:1003D00003108312080083162D080319B12AB900EF
:1003E00031080319B12AB902031CFB297F30B90770
:1003F0000318B12A012A8130B902031CB12A03195A
:10040000B12A3908F700F801F901FA01B8012E08FC
:10041000B700B7172F08B6003008B5001930B9007B
:100420003408B5020318242A0130B6020318242A1E
:10043000B7020318242AB8020318242AB80AB70AF4
:10044000B60A3408B507562A3308B60203183F2AFD
:100450000130B70203183F2AB80203183F2AB80A2E
:10046000B70A3308B6073408B507031C562AB60A7C
:10047000031D562AB70A031D562AB80A562A3208FF
:100480008038B7020318552A0130B8020318552ADC
:10049000B80A32088038B7073308B607031C332A76
:1004A000B70A031D332AB80A332A7A14B90B592A1A
:1004B000642A0310B50DB60DB70DB80D0310FA0D73
:1004C000F90DF80DBA0D102A3A1C6C2A0310F80C1D
:1004D000F90CFA0CBA0C6F2AF7030319B12ABA1BEC
:1004E000982A0310B50DB60DB70DB80D3408B50236
:1004F0000318842A0130B6020318842AB7020318AD
:10050000842AB802031CA72A3308B60203188F2ACC
:100510000130B70203188F2AB802031CA72A320839
:100520008038B7020318982A0130B802031CA72AA2
:10053000FA0A031DA72AF90A031DA72AF80A031DB0
:10054000A72AF70A0319B12AF80CF90CFA0C2E089D
:10055000B9003208B906B91FAF2AF817B52AF8133F
:10056000B52AF701F801F901FA01831208008E306B
:10057000F70083163408F7023508F9003608F8004A
:10058000F917F7080319CF2A0310F908031DCB2A1E
:10059000F8080319CF2AF90CF80CF70BC42AB51F79
:1005A000D62AF809F909F80A0319F90A831208008A
:1005B000831634080319492BBC0038080319492B4A
:1005C000BC070318EA2A7F30BC02031C492B03191D
:1005D000492BEE2A8130BC070318492B3C08F70051
:1005E000F801F901FA013508C000C0173608BF004C
:1005F0003708BE001830BC00BD013E1C172B3B085D
:10060000FA07031C092BF90A031D092BF80A031921
:10061000BD173A08F907031C102BF80A0319BD1778
:100620003908B600B6173608F8070318BD17BD0D10
:10063000F80CF90CFA0CC00CBF0CBE0C0310BC0B70
:10064000FC2A0130F7070318492BF81B2E2BC00D8D
:10065000FA0DF90DF80DF7030319492BC01F3F2BB5
:10066000FA0A031D3F2BF90A031D3F2BF80A031D4D
:100670003F2BF80CF90CFA0CF70A0319492B350833
:10068000BD003908BD06BD1F472BF8174D2BF813C9
:100690004D2BF701F801F901FA01831208008030AF
:1006A000831C552B8316BD0683128316C201C3011A
:1006B0003908C1003D08C10638080319432CC000A1
:1006C000F7003C0803194C2CC0020319E82B031C4B
:1006D000A62B3D08C600C6173E08C5003F08C4004B
:1006E000C3010310C60CC50CC40CC30CC00B702B8B
:1006F000C11F7D2B4214602C421040104216BB30AB
:1007000084008313752C4212C11B902B401C9B2B21
:10071000C60CC50CC40CC30CF70A03195B2C9B2B2D
:10072000C61B9E2B0310C30DC40DC50DC60DF703CC
:1007300003195B2C902B4217082C42133908C10077
:10074000C11FA42BC617542CC613542C3C08C00040
:10075000F7003808C0023908C600C6173A08C500B5
:100760003B08C400C3010310C60CC50CC40CC30C69
:10077000C00BB22BC11FBF2BC214602CC210401083
:10078000C216BF3084008313752CC212C11BD22B3A
:10079000401CDD2BC60CC50CC40CC30CF70A031996
:1007A0005B2CDD2BC61BE02B0310C30DC40DC50D48
:1007B000C60DF70303195B2CD22BC217082CC213EA
:1007C0003D08C100C11FE62BC617542CC613542C7C
:1007D0003D08C600C6173E08C5003F08C400C11F3B
:1007E000F52BC6134215602C4211C3014010BB30DB
:1007F00084008313752CC11B1E2C3908C100401CBA
:10080000082CC60CC50CC40CC30CF70A03195B2CCE
:10081000C31F192CC40A031D192CC50A031D192C4A
:10082000C60A031D192CC60CC50CC40CF70A031903
:100830005B2C421B9D2BC21BDF2B3D2C8030C60640
:10084000C61F262C602C3D08C100332C3908C1007E
:10085000C608031D332CC508031D332CC408031D13
:10086000332CF701542CC61B3D2C0310C30DC40DB3
:10087000C50DC60DF70B332C5B2CC11F412CC617C1
:10088000542CC613542C3C08F7003D08C6003E0803
:10089000C5003F08C400542C3808F7003908C600CA
:1008A0003A08C5003B08C4004608F8004508F900AE
:1008B0004408FA00932CF701F801F901FA01932C8E
:1008C000C301C409C509C609C309C30A031D6E2CA7
:1008D000C40A031D6E2CC50A0319C60A42187C2BD4
:1008E000C218BE2B4219F42B232C0008C407031C8A
:1008F0007F2CC50A031D7F2CC60A031940148403EC
:100900000008C507031C872CC60A0319401484037A
:100910000008801F803AC60703184014421A832B30
:10092000C21AC52BFB2B831208008316331027082D
:10093000AC002608AB002508AA002408A900270857
:10094000B7002608B6002508B5002408B400BB018E
:10095000BA01B901B8018312AA21031CB52C831670
:1009600033142A08803AAA00831283162C08B70091
:100970002B08B6002A08B5002908B400BB01BA014B
:10098000B9018E30B8008312AA210318C92C031DA7
:10099000E62C83162C08B7002B08B6002A08B500F1
:1009A0002908B4008312B72279088316B9007808A1
:1009B000B80083128B217A088316B0007908AF0043
:1009C0007808AE007708AD00BE2D831283162C0880
:1009D000B7002B08B6002A08B5002908B4008030FB
:1009E000BB009630BA001830B9009630B8008312B8
:1009F000AA21031CB52D83162C08B7002B08B600BE
:100A00002A08B5002908B400BB01BA01B901703049
:100A1000B8008312D8227A088316B7007908B60086
:100A20007808B5007708B4008312B72279088316D6
:100A3000B2007808B1002C08B7002B08B6002A08CD
:100A4000B5002908B400BB01BA01B9017030B80083
:100A50008312D8227A088316B7007908B60078087E
:100A6000B5007708B4003208B9003108B800831225
:100A70008B21831483163708BB003608BA0035086B
:100A8000B9003408B8007A08BF007908BE007808B9
:100A9000BD007708BC0083124F238316B701B6014F
:100AA000B5018E30B4007A08BB007908BA00780826
:100AB000B9007708B8008312D8227A088316AC00F0
:100AC0007908AB007808AA007708A9003208B900B5
:100AD0003108B80083128B218316B701B601B50126
:100AE0008E30B4007A08BB007908BA007808B900E3
:100AF0007708B8008312D8227A088316B0007908E4
:100B0000AF007808AE007708AD002C08B7002B08BE
:100B1000B6002A08B5002908B4008312B722790864
:100B20008316B9007808B80083128B2183108316CE
:100B30003008BB002F08BA002E08B9002D08B800F5
:100B40007A08BF007908BE007808BD007708BC00AD
:100B500083124F237A088316B0007908AF00780813
:100B6000AE007708AD00BE2D831283162C08B000AE
:100B70002B08AF002A08AE002908AD002C08B700EA
:100B80002B08B6002A08B5002908B4008312B72242
:100B900079088316B9007808B80083128B21831472
:100BA00083162C08BB002B08BA002A08B9002908B4
:100BB000B8007A08BF007908BE007808BD00770841
:100BC000BC0083124F237A088316AC007908AB006F
:100BD0007808AA007708A900331CF12D2E08803A66
:100BE000AE002C08B7002B08B6002A08B50029086B
:100BF000B400BB01BA01B901B8018312AA210319DB
:100C00003E2E8316331C202EA808031D202E83148D
:100C10003008BB002F08BA002E08B9002D08B80014
:100C2000BF01BE01BD017F30BC0083124F237A0893
:100C30008316B0007908AF007808AE007708AD00E1
:100C400033183D2E280B3D2E83103008BB002F0893
:100C5000BA002E08B9002D08B800BF01BE01BD01C1
:100C60007F30BC0083124F237A088316B0007908C6
:100C7000AF007808AE007708AD008312831627080E
:100C8000B7002608B6002508B5002408B400BB014B
:100C9000BA01B901B8018312AA21031D552E83168A
:100CA000B001AF01AE01AD01831283162D08F7002C
:100CB0002E08F8002F08F9003008FA008312080007
:100CC00072088316B7007108B6007008B500831269
:100CD0006F088316B400BB01BA01B901B8018312D1
:100CE000AA2103194F2F6E088316B00083126D08D6
:100CF0008316AF0083126C088316AE0083126B0854
:100D00008316AD007208B4007108B3007008B20019
:100D100083126F088316B1008312EB217A08FE005C
:100D20007908FD007808FC007708FB007E08831630
:100D3000B7007D08B6007C08B5007B08B400BB0195
:100D4000BA01B901B8018312AA21031CE02E6E0872
:100D50008316B00083126D088316AF0083126C08EF
:100D60008316AE0083126B088316AD007208B400C0
:100D70007108B3007008B20083126F088316B100C7
:100D80008312EB217A08FE007908FD007808FC0048
:100D90007708FB007E088316A3007D08A2007C086C
:100DA000A1007B08A0002308A7002208A6002108B4
:100DB000A5002008A4000130A80083129524172F55
:100DC0006E088316B00083126D088316AF0083127D
:100DD0006C088316AE0083126B088316AD00720890
:100DE000B4007108B3007008B20083126F08831654
:100DF000B1008312EB217A08FE007908FD00780823
:100E0000FC007708FB007E088316A3007D08A20083
:100E10007C08A1007B08A0002308A7002208A600E8
:100E20002108A5002008A400A801831295247A08AF
:100E3000F6007908F5007808F4007708F3007608E2
:100E40008316B7007508B6007408B5007308B400BF
:100E50007208BB007108BA007008B90083126F08ED
:100E60008316B8008312D82283146E088316BB0041
:100E700083126D088316BA0083126C088316B900BA
:100E800083126B088316B8007A08BF007908BE0089
:100E90007808BD007708BC0083124F234F2F08004D
:100EA0008E30F70083162B08F8002A08F900FA01A3
:100EB000AB1F5F2FF809F909F90A0319F80AF808B6
:100EC000031D6C2F7908F800F9010830F702F808C3
:100ED000031D6C2FF701752F0310F81B732FF90DED
:100EE000F80DF7036C2FAB1FF813831208000B08E3
:100EF000E0008B13831603178C170C1400000000FE
:100F00000318AA2F83120C087F390313E10003177B
:100F10000D080313E20003170F080313E300610831
:100F20000C1E902F9900620803178D0003136308AD
:100F300003178F0083168C170C1400000000831217
:100F40000313DF0BA42FA72F83160317AA2FCA2F73
:100F50008316031783120C0D0E0D7F390313E10066
:100F600003170D080313E20003170F080313E30030
:100F700061080C1EB92F9900620803178D00031336
:100F8000630803178F008D0A03198F0A03100313D8
:100F9000DF0B7A2FE01B8B1708006008F8015F0257
:100FA0000318D52F5F08F700E12FF7010830E100A3
:100FB000DF0DF70D600877020318F700F80DE10B5D
:100FC000D82F8A110A16A22B94138C118316370876
:100FD000831293000230941BF42F8C1DED2F0030F0
:0C0FE0008316111B01308312F80008007A
:101000007208F6007108F5007008F4006F08F3002C
:1010100076088316B7007508B6007408B500730823
:10102000B400BB01BA01B9017F30B8008A11831244
:10103000AA218A150319DB298316AA017330A90096
:101040002908840083132A1883177E3080008314B4
:101050007608BB007508BA007408B9007308B800B8
:10106000BF01BE01BD017F30BC008A1183124F2336
:101070008A157A088316AC007908AB007808AA00B4
:101080007708A90083107608BB007508BA007408B9
:10109000B9007308B800BF01BE01BD017F30BC00BC
:1010A0008A1183124F238A1583162C08B0002B084F
:1010B000AF002A08AE002908AD007A08B40079080C
:1010C000B3007808B2007708B1008A118312EB21CF
:1010D0008A157A08F6007908F5007808F400770890
:1010E000F30076088316B7007508B6007408B500DB
:1010F0007308B4007608BB007508BA007408B9001C
:101100007308B8008A118312D8228A157A088316C8
:10111000A7007908A6007808A5007708A4009930F0
:10112000B7004730B6008A30B5007F30B4002708DA
:10113000BB002608BA002508B9002408B8008A11A7
:101140008312D8228A157A088316AC007908AB007E
:101150007808AA007708A90083102C08BB002B0888
:10116000BA002A08B9002908B800BF01BE01BD01B4
:101170008030BC008A1183124F238A157A08FE0042
:101180007908FD007808FC007708FB004C308316D6
:10119000B700F330B6003A30B5007B30B400270812
:1011A000BB002608BA002508B9002408B8008A1137
:1011B0008312D8228A157A088316AC007908AB000E
:1011C0007808AA007708A90083102C08BB002B0818
:1011D000BA002A08B9002908B8002B30BF009D309A
:1011E000BE00DF30BD007E30BC008A1183124F2369
:1011F0008A157A088316A3007908A2007808A1004E
:101200007708A0002308B7002208B6002108B5001F
:101210002008B4002708BB002608BA002508B9003A
:101220002408B8008A118312D8228A157A088316F6
:10123000AC007908AB007808AA007708A9008310F1
:101240002C08BB002B08BA002A08B9002908B800EE
:10125000BF01BE01BD017F30BC008A1183124F2344
:101260008A157A088316A3007908A2007808A100DD
:101270007708A0007608B7007508B6007408B500B6
:101280007308B4007E08BB007D08BA007C08B90072
:101290007B08B8008A118312D8228A157A0883162F
:1012A000AC007908AB007808AA007708A9002C08E0
:1012B000B0002B08AF002A08AE002908AD002308B3
:1012C000B4002208B3002108B2002008B1008A113E
:1012D0008312EB218A157A08FE007908FD00780850
:1012E000FC007708FB008316AA016F30A9002908CB
:1012F000840083132A1883177E300002A800A81FD9
:1013000096292808003CAB01AA00AA1BAB038A114E
:10131000831250278A1577088316A0007808803A30
:10132000A1007908A2007A08A300A829AB01280827
:10133000AA00AA1BAB038A11831250278A157A08C8
:101340008316A3007908A2007808A1007708A000FE
:101350002308B7002208B6002108B5002008B40011
:101360001830BB007230BA003130B9007E30B8009E
:101370008A118312D8228A1583107E088316BB0037
:101380007D08BA007C08B9007B08B8007A08BF0065
:101390007908BE007808BD007708BC008A11831266
:1013A0004F238A157A08FE007908FD007808FC00B2
:1013B0007708FB00DF29FE01FD01FC01FB017B0832
:1013C000F7007C08F8007D08F9007E08FA000800A4
:1013D00072088316B7007108B6007008B500831252
:1013E0006F088316B4003B30BB00AA30BA00383017
:1013F000B9007F30B8008A118312D8228A157A0882
:101400008316B7007908B6007808B5007708B400ED
:101410008A118312B7228A1578088316A400251032
:101420007208F6007108F5007008F40083126F0866
:10143000F30072088316B7007108B6007008B50093
:1014400083126F088316B400BB01BA01B901B80159
:101450008A118312AA218A15031C362A83162514A1
:10146000A409A40A7408803AF4008312FE01FD0165
:10147000FC01FB018316A7017B30A600260884002F
:101480008313271883177F30240780007608B7005E
:101490007508B6007408B5007308B4003B30BB0093
:1014A000AA30BA003830B9007F30B8008A118312F0
:1014B000D8228A157A088316A9007908A800780826
:1014C000A7007708A600AB012408AA00AA1BAB035B
:1014D0008A11831250278A15831483162908BB00AA
:1014E0002808BA002708B9002608B8007A08BF0003
:1014F0007908BE007808BD007708BC008A11831205
:101500004F238A157A08F6007908F5007808F40068
:101510007708F3007C308316B7008830B600593066
:10152000B5007230B4007608BB007508BA007408C4
:10153000B9007308B8008A118312D8228A157A0874
:101540008316A9007908A8007808A7007708A600E4
:1015500083102908BB002808BA002708B90026080C
:10156000B800E030BF009730BE002630BD007530B7
:10157000BC008A1183124F238A157A088316A300B0
:101580007908A2007808A1007708A0002308B70016
:101590002208B6002108B5002008B4007608BB0078
:1015A0007508BA007408B9007308B8008A1183126C
:1015B000D8228A157A088316A9007908A800780825
:1015C000A7007708A60083102908BB002808BA00E6
:1015D0002708B9002608B800C430BF001D30BE007F
:1015E0001E30BD007830BC008A1183124F238A154B
:1015F0007A088316A3007908A2007808A10077086A
:10160000A0002308B7002208B6002108B500200872
:10161000B4007608BB007508BA007408B9007308F6
:10162000B8008A118312D8228A157A088316A90075
:101630007908A8007808A7007708A6008310290871
:10164000BB002808BA002708B9002608B8005E3099
:10165000BF005030BE006330BD007A30BC008A113C
:1016600083124F238A157A088316A3007908A200F3
:101670007808A1007708A0002308B7002208B60068
:101680002108B5002008B4007608BB007508BA0030
:101690007408B9007308B8008A118312D8228A1519
:1016A0007A088316A9007908A8007808A7007708A7
:1016B000A60083102908BB002808BA002708B90033
:1016C0002608B8001A30BF00FE30BE007530BD00DD
:1016D0007C30BC008A1183124F238A157A08831646
:1016E000A3007908A2007808A1007708A0002308C9
:1016F000B7002208B6002108B5002008B40076081B
:10170000BB007508BA007408B9007308B8008A11E4
:101710008312D8228A157A088316A9007908A800AE
:101720007808A7007708A60083102908BB002808BE
:10173000BA002708B9002608B8001830BF00723078
:10174000BE003130BD007E30BC008A1183124F23B1
:101750008A157A088316A3007908A2007808A100E8
:101760007708A0007608B7007508B6007408B500C1
:101770007308B4002308BB002208BA002108B9008E
:101780002008B8008A118312D8228A158310831684
:10179000BB01BA01B9017F30B8007A08BF007908EF
:1017A000BE007808BD007708BC008A1183124F2361
:1017B0008A157E088316B7007D08B6007C08B50040
:1017C0007B08B4007A08BB007908BA007808B90031
:1017D0007708B8008A118312D8228A157A08FE0089
:1017E0007908FD007808FC007708FB008316251CAB
:1017F000132CB001AF01AE017F30AD007E08B40004
:101800007D08B3007C08B2007B08B1008A11831206
:10181000EB218A157A08FE007908FD007808FC00A3
:101820007708FB0083167B08F7007C08F8007D082A
:10183000F9007E08FA008312080066088316B700D4
:10184000831265088316B600831264088316B500F8
:10185000831263088316B400BB01BA01B901B80151
:101860008A118312AA218A15031C382D6A08EE00FA
:101870006908ED006808EC006708EB00F201F1016F
:10188000F0017F30EF008A1160268A157A08EE0099
:101890007908ED007808EC007708EB006E088316F5
:1018A000B70083126D088316B60083126C08831686
:1018B000B50083126B088316B400BB01BA01B901ED
:1018C000B8018A118312AA218A15031D382D6A08CE
:1018D000EE006908ED006808EC006708EB00F20113
:1018E000F101F0018030EF008A1160268A157A0834
:1018F000EE007908ED007808EC007708EB006E0840
:101900008316B70083126D088316B60083126C0825
:101910008316B50083126B088316B400BB01BA01AD
:10192000B901B8018A118312AA218A15031DE72C77
:101930006308EB006408803AEC006508ED00660877
:10194000EE00F2006D08F1006C08F0006B08EF008B
:1019500000207A08EE007908ED007808EC0077089E
:10196000EB006E088316B70083126D088316B6006D
:1019700083126C088316B50083126B088316B400BB
:1019800083126A088316BB00831269088316BA00A3
:10199000831268088316B900831267088316B8009B
:1019A0008A118312D8228A157A08EE007908ED0090
:1019B0007808EC007708EB006E08F2006D08F10083
:1019C0006C08F0006B08EF00E821012E372D63084A
:1019D000EB006408803AEC006508ED006608EE0054
:1019E000F2006D08F1006C08F0006B08EF000020B9
:1019F0007A08EE007908ED007808EC007708EB0033
:101A00006E088316B70083126D088316B600831222
:101A10006C088316B50083126B088316B40083121A
:101A20006A088316BB00831269088316BA00831202
:101A300068088316B900831267088316B8008A11F4
:101A40008312D8228A157A08EE007908ED0078080A
:101A5000EC007708EB006E08F2006D08F1006C08EE
:101A6000F0006B08EF00E8218030F806012E012E0F
:101A700066088316B700831265088316B6008312C2
:101A800064088316B500831263088316B400BB0193
:101A9000BA01B901B8018A118312AA218A15031C5F
:101AA000882D6A08EE006908ED006808EC006708F8
:101AB000EB00F201F101F0017F30EF008A116026A6
:101AC0008A157A08EE007908ED007808EC007708AE
:101AD000EB006E088316B70083126D088316B600FC
:101AE00083126C088316B50083126B088316B4004A
:101AF000BB01BA01B901B8018A118312AA218A1562
:101B00000319882DF701F801F901FA01012E012EC0
:101B100066088316B700831265088316B600831221
:101B200064088316B500831263088316B400BB01F2
:101B3000BA01B901B8018A118312AA218A15031DBD
:101B4000BC2D6A088316B700831269088316B60095
:101B5000831268088316B500831267088316B400E1
:101B6000BB01BA01B901B8018A118312AA218A15F1
:101B70000318BC2D031D012E6608F2006508F10054
:101B80006408F0006308EF0000207A08EE0079088E
:101B9000ED007808EC007708EB006E088316B700BC
:101BA00083126D088316B60083126C088316B50085
:101BB00083126B088316B40083126A088316BB0075
:101BC000831269088316BA00831268088316B90065
:101BD000831267088316B8008A118312D8228A15E7
:101BE0007A08EE007908ED007808EC007708EB0041
:101BF0006E08F2006D08F1006C08F0006B08EF0051
:101C0000E8210800E7010408E6006710831B671459
:101C1000600EF038E200E207E23EE300323EE5000B
:101C200060080F39E307E307E507E93EE400E4074E
:101C3000E4075F0E0F39E407E507E40DE50DE5095C
:101C4000E50D5F080F39E507E20D0730E1000A30C6
:101C5000E507E403031C282EE407E303031C2C2EF2
:101C6000E307E203031C302EE207E103031C342EDA
:101C7000613084008313073066056613840765307E
:101C80000402031966170008F700031D4F2E661B98
:101C90004F2E661A572EE6194F2E2030522EE6157B
:101CA00066123030F70777080C1E542E9900840A0C
:101CB000661F3F2E08008316111411185D2EB430D4
:101CC000B7008A118312E4278A1506308316B700FD
:101CD0008A118312E4278A158316111511196E2EA5
:101CE00083120800A81A7C2E281E7C2EA81601300C
:101CF0008316B10283125B2683163108F800831223
:101D00000800A81B8B2E281F8B2EA81701308316C6
:101D1000B10783125B2683163108F800831208008E
:101D2000831611141118922EB430B7008A11831241
:101D3000E4278A1508308316B7008A118312E42736
:101D40008A1583163108B7008A118312E4278A1591
:101D50008316B7018A118312E4278A158316111599
:101D60001119B02E83120800831611141118B62E03
:101D7000B430B7008A118312E4278A150530831620
:101D8000B7008A118312E4278A158316B501350836
:101D90003307840083133418831780080319E02E57
:101DA0003508330784008313341883170008B600FE
:101DB000B7008A118312E4278A158316B50AC72E45
:101DC000B7018A118312E4278A1583161115111998
:101DD000E72E83120800831611141118ED2EB4306B
:101DE000B7008A118312E4278A1502308316B700E0
:101DF0008A118312E4278A156008FA01E10083162C
:101E0000B7008A118312E4278A155F08F700FA01E8
:101E10005F08E1008316B7008A118312E4278A1550
:101E20008316B7018A118312E4278A1583161115C8
:101E30001119182F83120800A818262F281C262FE6
:101E4000A81401308316B20783125B26831632086A
:101E5000F8008312080000302A180130F0008316C1
:101E6000B20083121C272A1078182A1400302A186E
:101E70000130003A0319892F2C088316B20083120F
:101E80002B088316B1003108F8003208F9007908F0
:101E90008312AE007808AD002A1001308316B1001D
:101EA00083129026F8011130F7005F30840083130D
:101EB00078088A1150208A158000F80A840AF70BE6
:101EC000582F8316B4015F30B3008312B42611304B
:101ED0008316B10083129026F8010A30F7005F30B4
:101EE0008400831378088A1165208A158000F80A17
:101EF000840AF70B722F8316B4015F30B30083128C
:101F0000B426C8308316B1008A11831277218A154E
:101F1000CB2F29088316B100831272267808A900F6
:101F200029088316B100831281267808A9000130A0
:101F30008316B10083129026F8011130F700A0300B
:101F40008400831378088A1150208A158000F80ACB
:101F5000840AF70BA22F8316B401A030B3008312BA
:101F6000B42611308316B10083129026F801113087
:101F7000F700A0308400831378088A1173208A1533
:101F80008000F80A840AF70BBC2F8316B401A03036
:0C1F9000B3008312B4268A110A16592EE1
:1020000000302A180130EF008316B2000A128A1538
:1020100083121C270A168A112A1078182A140030F5
:102020002A180130003A03196A280D30F8000230EE
:10203000F9007908AE007808AD002A100130831647
:10204000B1000A128A15831290260A168A11F80125
:102050001030F7005F308400831378080A1288205C
:102060000A168000F80A840AF70B2D288316B4019B
:102070005F30B3000A128A158312B4260A168A1139
:1020800012308316B1000A128A15831290260A169E
:102090008A11F8010730F7005F3084008313780855
:1020A0000A129C200A168000F80A840AF70B4F28AF
:1020B0008316B4015F30B3000A128A158312B42666
:1020C0000A168A11C8308316B1000A1283127721CA
:1020D0000A16C42829088316B1000A128A15831229
:1020E00072260A168A117808A90029088316B100F9
:1020F0000A128A15831281260A168A117808A90005
:1021000001308316B1000A128A15831290260A162E
:102110008A11F8011030F700A0308400831378088A
:102120000A1288200A168000F80A840AF70B8F2802
:102130008316B401A030B3000A128A158312B426A4
:102140000A168A1112308316B1000A128A158312F8
:1021500090260A168A11F8010E30F700A03084008C
:10216000831378080A12A7200A168000F80A840A46
:10217000F70BB1288316B401A030B3000A128A15F8
:102180008312B4260A168A118A110A16602E831643
:102190000317871508300313990002309A00A63000
:1021A0009800903083129800FF30A700A7152708E9
:1021B000831687008312271627088316870031307D
:1021C0009300293083129400831694171413FF3060
:1021D00093002830831294002810A8142811A81501
:1021E0002812A8162813A8170130A9002A100230B7
:1021F000AE000D30AD00831603170908C039890001
:1022000003131F129F1200300317880083128701E7
:1022100088018901FA300313C200A230C10048309E
:10222000C0007130BF00AC30C6001930C500393075
:10223000C4007C30C3001030CA009830C9006A3036
:10224000C8008530C7009A30CE00F830CD00473046
:10225000CC008D30CB00CF015010D01050118B1519
:102260008316961583128B158316161583128B15FC
:102270008316961483128B1583161616C03083129C
:102280008B04831603170908C039890003131F1232
:102290009F12023003178800831203131F179F1722
:1022A00083169F1783121F14083003178D00013007
:1022B0008F000A12031328290A160430F8001F0899
:1022C000C33978049F00A630F700F70B652900009A
:1022D0009F149F18692983161E088312AB001E08DD
:1022E000AC0064308316B1000A12831277210A16FB
:1022F0002E08013C03189329FF3A031D83292D085A
:102300000D3C031893290D302D02F7002E08FA001A
:102310000230031C0330FA027708AB027A08031C70
:102320007A0FAC02AC292E08023C031CAC29031D19
:102330009D292D080C3C031CAC292D080D3CF700F1
:102340000230FA002E08031C2E0FFA027708AB07A2
:102350007A0803187A0FAC072C088316B900831289
:102360002B088316B8000A1283128B210A167A08EA
:10237000B2007908B1007808B0007708AF003208E1
:10238000E6003108E5003008E4002F08E300EA0128
:10239000E9014030E8008030E7000A128A151D2468
:1023A0000A168A1142088316B70083124108831661
:1023B000B600831240088316B50083123F088316C7
:1023C000B4007A08BB007908BA007808B900770829
:1023D000B8000A128312D8220A167A08E200790895
:1023E000E1007808E0007708DF003208E6003108F5
:1023F000E5003008E4002F08E300EA01E901E80104
:102400008030E7000A128A151D240A168A11460830
:102410008316B700831245088316B600831244085A
:102420008316B500831243088316B4007A08BB00F4
:102430007908BA007808B9007708B8000A12831240
:10244000D8220A16E4010408E3006410831B641414
:10245000831462088316BB00831261088316BA00D6
:10246000831260088316B90083125F088316B800D0
:102470007A08BF007908BE007808BD007708BC0064
:102480000A1283124F230A16630884008313641808
:1024900083177A08E2007908E1007808E0007708FD
:1024A000DF004A088316B700831249088316B60076
:1024B000831248088316B500831247088316B400B8
:1024C000831232088316BB00831231088316BA00C8
:1024D000831230088316B90083122F088316B800C0
:1024E0000A128312D8220A16E6010408E5006610D3
:1024F000831B6614831062088316BB008312610875
:102500008316BA00831260088316B90083125F082D
:102510008316B8007A08BF007908BE007808BD00AD
:102520007708BC000A1283124F230A16650884003C
:102530008313661883177A08E2007908E1007808A7
:10254000E0007708DF00E8010408E7006810831B5B
:10255000681483147A088316BB00831279088316E3
:10256000BA00831278088316B9008312770883169D
:10257000B80083124E088316BF0083124D088316DD
:10258000BE0083124C088316BD0083124B088316CD
:10259000BC000A1283124F230A16670884008313B3
:1025A000681883177A08B6007908B5007808B4006F
:1025B0007708B30036088316B700831235088316F0
:1025C000B600831234088316B500831233088316CD
:1025D000B4000A128312B7220A167908BC007808E0
:1025E000BB003C088316B90083123B088316B80071
:1025F0000A1283128B210A161F308316B70085300A
:10260000B6006B30B5007C30B4007A08BB007908A6
:10261000BA007808B9007708B8000A128312D822E5
:102620000A167A08BA007908B9007808B80077085D
:10263000B7003A088316B700831239088316B6002C
:10264000831238088316B500831237088316B40046
:102650000A128312B7220A167908BE007808BD0054
:102660000E3003178D0001308F0003100F3003135D
:10267000DF000A1277270A16103084002C08E000C9
:102680002B08DF000A128A1502260A168A110D305D
:102690000C1E482B99000A300C1E4C2B9900193047
:1026A00003178D0001308F00031009300313DF0082
:1026B0000A1277270A16103084003C08E0003B0815
:1026C000DF000A128A1502260A168A110D300C1E26
:1026D000672B99000A300C1E6B2B990021300317D1
:1026E0008D0001308F00031008300313DF000A1241
:1026F00077270A16103084003E08E0003D08DF000E
:102700000A128A1502260A168A110D300C1E862B13
:1027100099000A300C1E8A2B99000230DF00FA3033
:102720008316B1000A12831277210A16DF0B8F2B52
:102730002908063C0318A82B2908DF000630E00012
:102740000A12CD2F0A167708A9000130A907602EBA
:10275000290B0B2D29088316B1000A128A15831242
:1027600072260A168A117808A90029088316B10072
:102770000A128A15831281260A168A117808A9007E
:1027800001308316B1000A128A15831290260A16A8
:102790008A11F8010730F70051308400831378085C
:1027A0000A122F200A168000F80A840AF70BCF2B92
:1027B0008316B4015130B3000A128A158312B4266D
:1027C0000A168A1107308316B1000A128A1583127D
:1027D00090260A168A11F8010730F700513084005C
:1027E000831378080A123A200A168000F80A840A2D
:1027F000F70BF12B8316B4015130B3000A128A157E
:102800008312B4260A168A110D308316B1000A12FB
:102810008A15831290260A168A115730D10041304A
:10282000D2005430D300D400D5018316B401513006
:10283000B3000A128A158312B4260A168A112C08CC
:10284000033C031C3C2C031D292C2B08E73C031CD8
:102850003C2C12308316B1000A128A15831290267E
:102860000A168A112C08E0002B08DF000A128A15CC
:10287000EB260A168A114E2C11308316B1000A126B
:102880008A15831290260A168A112C08E0002B085C
:10289000DF000A128A15EB260A168A113C08033C4F
:1028A000031C842C031D582C3B08E73C031C842C80
:1028B00015308316B1000A128A15831290260A1663
:1028C0008A112030D100D200D300D400D501831664
:1028D000B4015130B3000A128A158312B4260A16C5
:1028E0008A1119308316B1000A128A1583129026B4
:1028F0000A168A113C08E0003B08DF000A128A151C
:10290000EB260A168A11AE2C15308316B1000A1276
:102910008A15831290260A168A112030D100D2001F
:10292000D300D4018316B4015130B3000A128A15C2
:102930008312B4260A168A1118308316B1000A12BF
:102940008A15831290260A168A113C08E0003B087B
:10295000DF000A128A15EB260A168A113E08033C8C
:10296000031CE22C031DB82C3D08E73C031CE22CA1
:102970001C308316B1000A128A15831290260A169B
:102980008A112030D100D200D3018316B401513016
:10299000B3000A128A158312B4260A168A111E3051
:1029A0008316B1000A128A15831290260A168A111C
:1029B0003E08E0003D08DF000A128A15EB260A16E1
:1029C0008A110A2D1C308316B1000A128A1583124F
:1029D00090260A168A112030D100D2018316B40144
:1029E0005130B3000A128A158312B4260A168A11CE
:1029F0001D308316B1000A128A15831290260A161A
:102A00008A113E08E0003D08DF000A128A15EB2615
:102A10000A168A11602E2908023C031D522E29082D
:102A20008316B1000A128A15831272260A168A11B9
:102A30007808A90029088316B1000A128A158312A2
:102A400081260A168A117808A90001308316B10080
:102A50000A128A15831290260A168A11F801073085
:102A6000F70058308400831378080A1245200A16AC
:102A70008000F80A840AF70B342D8316B40158300D
:102A8000B3000A128A158312B4260A168A11073077
:102A90008316B1000A128A15831290260A168A112B
:102AA000F8010730F70058308400831378080A12C1
:102AB0003A200A168000F80A840AF70B562D83166E
:102AC000B4015830B3000A128A158312B4260A16CC
:102AD0008A110D308316B1000A128A1583129026CE
:102AE0000A168A115730D8004130D9005430DA0024
:102AF000DB00DC018316B4015830B3000A128A15DA
:102B00008312B4260A168A1112308316B1000A12F3
:102B10008A15831290260A168A11E001E630DF003A
:102B20000A128A15EB260A168A113C08033C031C7C
:102B3000CB2D031D9F2D3B08E73C031CCB2D1530EF
:102B40008316B1000A128A15831290260A168A117A
:102B50002030D800D900DA00DB00DC018316B40194
:102B60005830B3000A128A158312B4260A168A1145
:102B700019308316B1000A128A15831290260A169C
:102B80008A113C08E0003B08DF000A128A15EB2698
:102B90000A168A11F52D15308316B1000A128A150E
:102BA000831290260A168A112030D800D900DA0044
:102BB000DB018316B4015830B3000A128A15831260
:102BC000B4260A168A1118308316B1000A128A1523
:102BD000831290260A168A113C08E0003B08DF00A9
:102BE0000A128A15EB260A168A113E08033C031CBA
:102BF000292E031DFF2D3D08E73C031C292E1C3008
:102C00008316B1000A128A15831290260A168A11B9
:102C10002030D800D900DA018316B4015830B3004F
:102C20000A128A158312B4260A168A111E308316D8
:102C3000B1000A128A15831290260A168A113E08DC
:102C4000E0003D08DF000A128A15EB260A168A11F9
:102C5000512E1C308316B1000A128A158312902659
:102C60000A168A112030D800D9018316B4015830D1
:102C7000B3000A128A158312B4260A168A111D306F
:102C80008316B1000A128A15831290260A168A1139
:102C90003E08E0003D08DF000A128A15EB260A16FE
:102CA0008A11602E2908033C031D5C2E0A128A1526
:102CB0002B2F0A168A11602E2908043C03190028BC
:042CC000682963001C
:04400E00C22FFF3F7F
:00000001FF
;PIC16F886
;CRC=9DCE  CREATED="02-¡.¾.-14 02:03"
