:1000000012308A00FB2A0000FF00030E8301A100CA
:100010000A08A0008A010408A2007708A300780853
:10002000A4007908A5007A08A600831383128B1D0B
:100030001B280B1832288C308400001C21280C1837
:100040003528220884002308F7002408F800250832
:10005000F9002608FA0020088A00210E8300FF0E0E
:100060007F0E09008A110A12E4288A110A12332924
:100070000A108A100A118207533445344E3453341F
:100080004F34523400340A108A100A118207203487
:1000900020346D3441342034203400340A108A1066
:1000A0000A118207203476346F346C34743420346F
:1000B00000340A108A100A11820743346C34653404
:1000C0006134723420344F344B3400340A108A10B7
:1000D0000A118207523445345334453454342034A1
:1000E00055346E346934743426344D346F346E3480
:1000F0006534793400340A108A100A1182072034DA
:1001000020342034433441344C3449344234523462
:1001100041345434453420342034203420340034E5
:100120000A108A100A118207203420344F344B34CD
:100130002034213421342134203400340A108A1030
:100140000A118207203420345434683469347334FB
:10015000203454346F346F346C34203421342134DF
:100160002134203400340A108A100A1182075234D4
:1001700045345334453454342034433441344C34BE
:1001800049344234523441345434453400340A1032
:100190008A100A1182074F344B3420342134213421
:1001A000213400340A108A100A118207543468344A
:1001B00069347334203454346F346F346C342034E5
:1001C0002134213421340034831686158312861994
:1001D000ED28A818ED2828142F29831686158312D8
:1001E000861DF728A81CF7282810A8102F29831689
:1001F0000615831206190029A819002928152F2988
:10020000831606158312061D0A29A81D0A2928111E
:10021000A8112F2983168614831286181329A81A69
:10022000132928162F29831686148312861C1D294C
:10023000A81E1D292812A8122F298316061683121C
:10024000061A2629A81B262928172F2983160616E1
:100250008312061E2F29A81F2F292813A8130B105D
:100260008A110A1221280B308F00DC308E000130F9
:10027000B1073108313C03183F29B101AA140C1011
:100280008A110A122128D3306D38EC34EE33BA06C5
:100290000A00D332EE396F39203B6136F532A01EA9
:1002A000A012CC3A0D050000C126D022D222A01EF9
:1002B000A012CC3A0D050001D027D72252103D10D4
:1002C0002526F5060A008E30F70083165508F8003B
:1002D0005408F900FA01F808031D78297908F80094
:1002E000F9010830F702F808031D7829F701802981
:1002F0000310F81B7F29F90DF80DF7037829F8137F
:10030000831208000B08D4008B13831603178C1775
:100310000C140000000083120C087F390319CB294C
:100320000313D50003170D080313D60003170F0896
:100330000313D70055080C1E9B2999005608031774
:100340008D000313570803178F0083168C170C14A6
:100350000000000083120C0D0E0D7F390319CB290C
:100360000313D50003170D080313D60003170F0856
:100370000313D70055080C1EBB2999005608031714
:100380008D000313570803178F008D0A03198F0A76
:100390000313852903170313D41B8B178A110A161D
:1003A000B02B7B308400831300080319E429063046
:1003B000F800F701F70BDA29F80BD9297B30F700A1
:1003C000F70BE029800BD729080083165108D800C5
:1003D0005508D806D81FF12903110310D11B0314A7
:1003E000242A5108D8005408D9005008D90203190A
:1003F000FF29D81F242A0308013A8300242A55081C
:10040000D9005108D90203190B2AD81F242A03083E
:10041000013A8300242A5608D9005208D902031948
:10042000172AD81F242A0308013A8300242A5708D0
:10043000D9005308D9020319232AD81F242A0308F4
:10044000013A8300242A0310831208008316490806
:100450000319EC2AD5004D080319EC2AD502031C18
:10046000362A7F30D5070318EC2A3C2A8130D50282
:10047000031CEC2A0319EC2A5508F700F801F901CE
:10048000FA01D4014A08D300D3174B08D2004C0814
:10049000D1001930D5005008D10203185F2A01306D
:1004A000D20203185F2AD30203185F2AD40203186A
:1004B0005F2AD40AD30AD20A5008D107912A4F08DA
:1004C000D20203187A2A0130D30203187A2AD402FE
:1004D00003187A2AD40AD30A4F08D2075008D10742
:1004E000031C912AD20A031D912AD30A031D912AC3
:1004F000D40A912A4E088038D3020318902A01307A
:10050000D4020318902AD40A4E088038D3074F0823
:10051000D207031C6E2AD30A031D6E2AD40A6E2A40
:100520007A14D50B942A9F2A0310D10DD20DD30D26
:10053000D40D0310FA0DF90DF80DD60D4B2A561CEB
:10054000A72A0310F80CF90CFA0CD60CAA2AF70308
:100550000319EC2AD61BD32A0310D10DD20DD30DCB
:10056000D40D5008D1020318BF2A0130D20203185B
:10057000BF2AD3020318BF2AD402031CE22A4F0861
:10058000D2020318CA2A0130D3020318CA2AD4029D
:10059000031CE22A4E088038D3020318D32A013004
:1005A000D402031CE22AFA0A031DE22AF90A031DF7
:1005B000E22AF80A031DE22AF70A0319EC2AF80CCA
:1005C000F90CFA0C4A08D5004E08D506D51FEA2AC0
:1005D000F817F02AF813F02AF701F801F901FA01E7
:1005E000831208008E30F70083165008F702510876
:1005F000F9005208F800F917F70803190A2B03103D
:10060000F908031D062BF80803190A2BF90CF80C3E
:10061000F70BFF2AD11F112BF809F909F80A031962
:10062000F90A83120800831650080319842BD80096
:1006300054080319842BD8070318252B7F30D802C0
:10064000031C842B0319842B292B8130D807031812
:10065000842B5808F700F801F901FA015108DC0071
:10066000DC175208DB005308DA001830D800D90133
:100670005A1C522B5708FA07031C442BF90A031D76
:10068000442BF80A0319D9175608F907031C4B2BFA
:10069000F80A0319D9175508D200D2175208F807DB
:1006A0000318D917D90DF80CF90CFA0CDC0CDB0C7B
:1006B000DA0C0310D80B372B0130F7070318842B03
:1006C000F81B692BDC0DFA0DF90DF80DF703031972
:1006D000842BDC1F7A2BFA0A031D7A2BF90A031DDF
:1006E0007A2BF80A031D7A2BF80CF90CFA0CF70A8E
:1006F0000319842B5108D9005508D906D91F822B1C
:10070000F817882BF813882BF701F801F901FA0183
:10071000831208008030831C902B8316D906831225
:100720008316DE01DF015508DD005908DD06540897
:1007300003197E2CDC00F70058080319872CDC0213
:100740000319232C031CE12B5908E200E2175A0875
:10075000E1005B08E000DF010310E20CE10CE00CBB
:10076000DF0CDC0BAB2BDD1FB82B5E149B2C5E105B
:100770005C105E16D73084008313B02C5E12DD1B34
:10078000CB2B5C1CD62BE20CE10CE00CDF0CF70A47
:100790000319962CD62BE21BD92B0310DF0DE00D8D
:1007A000E10DE20DF7030319962CCB2B5E17432CBA
:1007B0005E135508DD00DD1FDF2BE2178F2CE213DF
:1007C0008F2C5808DC00F7005408DC025508E200C2
:1007D000E2175608E1005708E000DF010310E20CC1
:1007E000E10CE00CDF0CDC0BED2BDD1FFA2BDE1433
:1007F0009B2CDE105C10DE16DB3084008313B02CE3
:10080000DE12DD1B0D2C5C1C182CE20CE10CE00C44
:10081000DF0CF70A0319962C182CE21B1B2C031073
:10082000DF0DE00DE10DE20DF7030319962C0D2C01
:10083000DE17432CDE135908DD00DD1F212CE217E3
:100840008F2CE2138F2C5908E200E2175A08E100BE
:100850005B08E000DD1F302CE2135E159B2C5E115F
:10086000DF015C10D73084008313B02CDD1B592CC2
:100870005508DD005C1C432CE20CE10CE00CDF0CA5
:10088000F70A0319962CDF1F542CE00A031D542C81
:10089000E10A031D542CE20A031D542CE20CE10C66
:1008A000E00CF70A0319962C5E1BD82BDE1B1A2CC2
:1008B000782C8030E206E21F612C9B2C5908DD0069
:1008C0006E2C5508DD00E208031D6E2CE108031DA7
:1008D0006E2CE008031D6E2CF7018F2CE21B782C88
:1008E0000310DF0DE00DE10DE20DF70B6E2C962CE1
:1008F000DD1F7C2CE2178F2CE2138F2C5808F70099
:100900005908E2005A08E1005B08E0008F2C540807
:10091000F7005508E2005608E1005708E0006208B9
:10092000F8006108F9006008FA00CE2CF701F80120
:10093000F901FA01CE2CDF01E009E109E209DF0942
:10094000DF0A031DA92CE00A031DA92CE10A0319E3
:10095000E20A5E18B72BDE18F92B5E192F2C5E2CDD
:100960000008E007031CBA2CE10A031DBA2CE20AB6
:1009700003195C1484030008E107031CC22CE20A7B
:1009800003195C1484030008801F803AE2070318EF
:100990005C145E1ABE2BDE1A002C362C8312080063
:1009A00083164F104308C8004208C7004108C6001C
:1009B0004008C5004308D3004208D2004108D100D6
:1009C0004008D000D701D601D501D4018312E5211A
:1009D000031CF02C83164F144608803AC60083127D
:1009E00083164808D3004708D2004608D1004508BE
:1009F000D000D701D601D5018E30D4008312E52175
:100A00000318042D031D212D83164808D300470821
:100A1000D2004608D1004508D0008312F22279089E
:100A20008316D5007808D400831263217A088316D0
:100A3000CC007908CB007808CA007708C900F92DE6
:100A4000831283164808D3004708D2004608D10015
:100A50004508D0008030D7009630D6001830D50039
:100A60009630D4008312E521031CF02D831648082C
:100A7000D3004708D2004608D1004508D000D7016E
:100A8000D601D5017030D400831213237A0883165F
:100A9000D3007908D2007808D1007708D0008312FB
:100AA000F22279088316CE007808CD004808D300DA
:100AB0004708D2004608D1004508D000D701D6012A
:100AC000D5017030D400831213237A088316D30023
:100AD0007908D2007808D1007708D0004E08D500F8
:100AE0004D08D40083126321831483165308D70062
:100AF0005208D6005108D5005008D4007A08DB000F
:100B00007908DA007808D9007708D80083128A2398
:100B10008316D301D201D1018E30D0007A08D700DC
:100B20007908D6007808D5007708D40083121323FB
:100B30007A088316C8007908C7007808C6007708C5
:100B4000C5004E08D5004D08D400831263218316DA
:100B5000D301D201D1018E30D0007A08D7007908B4
:100B6000D6007808D5007708D400831213237A08BA
:100B70008316CC007908CB007808CA007708C90032
:100B80004808D3004708D2004608D1004508D000E5
:100B90008312F22279088316D5007808D4008312D4
:100BA0006321831083164C08D7004B08D6004A08EF
:100BB000D5004908D4007A08DB007908DA00780803
:100BC000D9007708D80083128A237A088316CC00CC
:100BD0007908CB007808CA007708C900F92D83127C
:100BE00083164808CC004708CB004608CA004508D1
:100BF000C9004808D3004708D2004608D10045087C
:100C0000D0008312F22279088316D5007808D40028
:100C100083126321831483164808D7004708D6003F
:100C20004608D5004508D4007A08DB007908DA00C8
:100C30007808D9007708D80083128A237A088316A7
:100C4000C8007908C7007808C6007708C5004F1C9F
:100C50002C2E4A08803ACA004808D3004708D20020
:100C60004608D1004508D000D701D601D501D401EE
:100C70008312E5210319792E83164F1C5B2EC408BD
:100C8000031D5B2E83144C08D7004B08D6004A087E
:100C9000D5004908D400DB01DA01D9017F30D80042
:100CA00083128A237A088316CC007908CB0078084F
:100CB000CA007708C9004F18782E440B782E83108D
:100CC0004C08D7004B08D6004A08D5004908D40084
:100CD000DB01DA01D9017F30D80083128A237A0838
:100CE0008316CC007908CB007808CA007708C900C1
:100CF000831283164308D3004208D2004108D10072
:100D00004008D000D701D601D501D4018312E521D6
:100D1000031D902E8316CC01CB01CA01C901831299
:100D200083164908F7004A08F8004B08F9004C08F8
:100D3000FA008312080083163308D3003208D20069
:100D40003108D1003008D000D701D601D501D40137
:100D50008312E5210319682F83162F08CC002E0873
:100D6000CB002D08CA002C08C9003308D000320877
:100D7000CF003108CE003008CD00831226227A0839
:100D80008316BB007908BA007808B9007708B80064
:100D90003B08D3003A08D2003908D1003808D00007
:100DA000D701D601D501D4018312E521031C092FF7
:100DB00083162F08CC002E08CB002D08CA002C0863
:100DC000C9003308D0003208CF003108CE00300807
:100DD000CD00831226227A088316BB007908BA0058
:100DE0007808B9007708B8003B08BF003A08BE0091
:100DF0003908BD003808BC003F08C3003E08C200E7
:100E00003D08C1003C08C0000130C4008312D0245A
:100E1000382F83162F08CC002E08CB002D08CA00CF
:100E20002C08C9003308D0003208CF003108CE00AA
:100E30003008CD00831226227A088316BB00790879
:100E4000BA007808B9007708B8003B08BF003A0834
:100E5000BE003908BD003808BC003F08C3003E088A
:100E6000C2003D08C1003C08C000C4018312D02468
:100E70007A088316B7007908B6007808B5007708B5
:100E8000B4003708D3003608D2003508D100340842
:100E9000D0003308D7003208D6003108D50030081A
:100EA000D40083121323831483162F08D7002E082F
:100EB000D6002D08D5002C08D4007A08DB0079086C
:100EC000DA007808D9007708D80083128A23682FBF
:100ED00008008E30F70083164708F8004608F9002E
:100EE000FA01C71F782FF809F909F90A0319F80A56
:100EF000F808031D852F7908F800F9010830F7027A
:100F0000F808031D852FF7018E2F0310F81B8C2F77
:100F1000F90DF80DF703852FC71FF813831208008A
:100F2000D901D801D701D60155088316D5008312FF
:100F300054088316D400831263211F308316D30014
:100F40008530D2006B30D1007C30D0007A08D700D9
:100F50007908D6007808D5007708D40083121323C7
:100F60007A08D9007908D8007808D7007708D60021
:100F700059088316D300831258088316D2008312AF
:100F800057088316D100831256088316D0008312A7
:100F9000F2227908B0007808AF008A110A16112CE5
:100FA00094138C1183162208831293000230941B31
:100FB000E02F8C1DD92F00308316111B01308312B6
:100FC000F8000800831611141118E42FB430A200A1
:100FD0008312D02706308316A2008312D0278316EF
:0A0FE00011151119F12F83120800FA
:1010000083163308B7003208B6003108B50030083F
:10101000B4003708D3003608D2003508D1003408B0
:10102000D000D701D601D5017F30D4008A118312B8
:10103000E5218A150319DD298316C601B430C500E0
:10104000450884008313461883177E30800083147C
:101050003708D7003608D6003508D5003408D40044
:10106000DB01DA01D9017F30D8008A1183128A238B
:101070008A157A088316C8007908C7007808C60060
:101080007708C50083103708D7003608D600350822
:10109000D5003408D400DB01DA01D9017F30D80053
:1010A0008A1183128A238A1583164808CC004708C0
:1010B000CB004608CA004508C9007A08D000790864
:1010C000CF007808CE007708CD008A11831226223F
:1010D0008A157A088316B7007908B6007808B50033
:1010E0007708B4003708D3003608D2003508D1009D
:1010F0003408D0003708D7003608D6003508D500A8
:101100003408D4008A11831213238A157A088316AF
:10111000C3007908C2007808C1007708C000993080
:10112000D3004730D2008A30D1007F30D00043084E
:10113000D7004208D6004108D5004008D4008A11E3
:10114000831213238A157A088316C8007908C7000A
:101150007808C6007708C50083104808D7004708FC
:10116000D6004608D5004508D400DB01DA01D901D4
:101170008030D8008A1183128A238A157A08831650
:10118000BB007908BA007808B9007708B8004C307D
:10119000D300F330D2003A30D1007B30D000430886
:1011A000D7004208D6004108D5004008D4008A1173
:1011B000831213238A157A088316C8007908C7009A
:1011C0007808C6007708C50083104808D70047088C
:1011D000D6004608D5004508D4002B30DB009D30F2
:1011E000DA00DF30D9007E30D8008A1183128A23DA
:1011F0008A157A088316BF007908BE007808BD00FA
:101200007708BC003F08D3003E08D2003D08D1005B
:101210003C08D0004308D7004208D6004108D5005A
:101220004008D4008A11831213238A157A08831682
:10123000C8007908C7007808C6007708C500831081
:101240004808D7004708D6004608D5004508D4000E
:10125000DB01DA01D9017F30D8008A1183128A2399
:101260008A157A088316BF007908BE007808BD0089
:101270007708BC003708D3003608D2003508D10003
:101280003408D0003B08D7003A08D6003908D5000A
:101290003808D4008A11831213238A157A0883161A
:1012A000C8007908C7007808C6007708C500480854
:1012B000CC004708CB004608CA004508C9003F08D3
:1012C000D0003E08CF003D08CE003C08CD008A117A
:1012D000831226228A157A088316BB007908BA0081
:1012E0007808B9007708B800C601B030C5004508D5
:1012F00084008313461883177E300002C400C41F85
:1013000096294408003CC701C600C61BC7038A11C2
:10131000831269278A1577088316BC007808803AFB
:10132000BD007908BE007A08BF00A829C70144089B
:10133000C600C61BC7038A11831269278A157A085B
:101340008316BF007908BE007808BD007708BC008E
:101350003F08D3003E08D2003D08D1003C08D00031
:101360001830D7007230D6003130D5007E30D4002E
:101370008A11831213238A15831083163B08D70022
:101380003A08D6003908D5003808D4007A08DB00BE
:101390007908DA007808D9007708D8008A11831212
:1013A0008A238A157A088316BB007908BA00780860
:1013B000B9007708B800E22983128316BB01BA018D
:1013C000B901B8013808F7003908F8003A08F900FF
:1013D0003B08FA008312080083163308D300320852
:1013E000D2003108D1003008D0003B30D700AA30FD
:1013F000D6003830D5007F30D4008A1183121323F1
:101400008A157A088316D3007908D2007808D100AB
:101410007708D0008A118312F2228A157808831681
:10142000C00041103308B7003208B6003108B500DB
:101430003008B4003308D3003208D2003108D1009C
:101440003008D000D701D601D501D4018A1183120A
:10145000E5218A15031C342A83164114C009C00AE9
:101460003508803AB50083128316BB01BA01B90171
:10147000B801C301B830C200420884008313431886
:1014800083177F30400780003708D3003608D2002A
:101490003508D1003408D0003B30D700AA30D60040
:1014A0003830D5007F30D4008A11831213238A1577
:1014B0007A088316C5007908C4007808C300770845
:1014C000C200C7014008C600C61BC7038A118312A9
:1014D00069278A15831483164508D7004408D60067
:1014E0004308D5004208D4007A08DB007908DA0006
:1014F0007808D9007708D8008A1183128A238A15C0
:101500007A088316B7007908B6007808B50077081E
:10151000B4007C30D3008830D2005930D100723012
:10152000D0003708D7003608D6003508D500340873
:10153000D4008A11831213238A157A088316C500F2
:101540007908C4007808C3007708C20083104508F2
:10155000D7004408D6004308D5004208D400E03044
:10156000DB009730DA002630D9007530D8008A11B8
:1015700083128A238A157A088316BF007908BE0071
:101580007808BD007708BC003F08D3003E08D200B1
:101590003D08D1003C08D0003708D7003608D600F7
:1015A0003508D5003408D4008A11831213238A1514
:1015B0007A088316C5007908C4007808C300770844
:1015C000C20083104508D7004408D6004308D50060
:1015D0004208D400C430DB001D30DA001E30D900D0
:1015E0007830D8008A1183128A238A157A088316E4
:1015F000BF007908BE007808BD007708BC003F082E
:10160000D3003E08D2003D08D1003C08D000370886
:10161000D7003608D6003508D5003408D4008A1122
:10162000831213238A157A088316C5007908C4002B
:101630007808C3007708C20083104508D700440823
:10164000D6004308D5004208D4005E30DB0050309D
:10165000DA006330D9007A30D8008A1183128A23E5
:101660008A157A088316BF007908BE007808BD0085
:101670007708BC003F08D3003E08D2003D08D100E7
:101680003C08D0003708D7003608D6003508D5000A
:101690003408D4008A11831213238A157A0883161A
:1016A000C5007908C4007808C3007708C200831019
:1016B0004508D7004408D6004308D5004208D400A6
:1016C0001A30DB00FE30DA007530D9007C30D800EB
:1016D0008A1183128A238A157A088316BF00790833
:1016E000BE007808BD007708BC003F08D3003E0864
:1016F000D2003D08D1003C08D0003708D70036089A
:10170000D6003508D5003408D4008A11831213237B
:101710008A157A088316C5007908C4007808C300C2
:101720007708C20083104508D7004408D600430854
:10173000D5004208D4001830DB007230DA003130B6
:10174000D9007E30D8008A1183128A238A157A083C
:101750008316BF007908BE007808BD007708BC007A
:101760003708D3003608D2003508D1003408D0003D
:101770003F08D7003E08D6003D08D5003C08D400FD
:101780008A11831213238A1583108316D701D60179
:10179000D5017F30D4007A08DB007908DA007808B8
:1017A000D9007708D8008A1183128A238A158316F4
:1017B0003B08D3003A08D2003908D1003808D000DD
:1017C0007A08D7007908D6007808D5007708D400C1
:1017D0008A11831213238A157A088316BB007908AD
:1017E000BA007808B9007708B800411C112CCC0168
:1017F000CB01CA017F30C9003B08D0003A08CF00B6
:101800003908CE003808CD008A11831226228A15A5
:101810007A088316BB007908BA007808B9007708FF
:10182000B8003808F7003908F8003A08F9003B0812
:10183000FA008312080083162708D3002608D20076
:101840002508D1002408D000D701D601D501D40144
:101850008A118312E5218A15031C142D83162B0887
:10186000AF002A08AE002908AD002808AC00B3017B
:10187000B201B1017F30B0008A1183129B268A1514
:101880007A088316AF007908AE007808AD007708B3
:10189000AC002F08D3002E08D2002D08D1002C0850
:1018A000D000D701D601D501D4018A118312E521D8
:1018B0008A15031D142D83162B08AF002A08AE00CD
:1018C0002908AD002808AC00B301B201B101803095
:1018D000B0008A1183129B268A157A088316AF00FE
:1018E0007908AE007808AD007708AC002F08D30067
:1018F0002E08D2002D08D1002C08D000D701D60127
:10190000D501D4018A118312E5218A15031DCD2C3E
:1019100083162408AC002508803AAD002608AE00E6
:101920002708AF00B3002E08B2002D08B1002C0824
:10193000B000831200207A088316AF007908AE0049
:101940007808AD007708AC002F08D3002E08D2002D
:101950002D08D1002C08D0002B08D7002A08D6006B
:101960002908D5002808D4008A11831213238A1568
:101970007A088316AF007908AE007808AD007708C2
:10198000AC002F08B3002E08B2002D08B1002C08BF
:10199000B0008312EC21BD2D132D83162408AC005A
:1019A0002508803AAD002608AE002708AF00B30036
:1019B0002E08B2002D08B1002C08B00083120020C0
:1019C0007A088316AF007908AE007808AD00770872
:1019D000AC002F08D3002E08D2002D08D1002C080F
:1019E000D0002B08D7002A08D6002908D5002808DF
:1019F000D4008A11831213238A157A088316AF0044
:101A00007908AE007808AD007708AC002F08B30065
:101A10002E08B2002D08B1002C08B0008312EC2172
:101A20008030F806BD2DBD2D83162708D30026086B
:101A3000D2002508D1002408D000D701D601D50155
:101A4000D4018A118312E5218A15031C5A2D8316AD
:101A50002B08AF002A08AE002908AD002808AC000A
:101A6000B301B201B1017F30B0008A1183129B260D
:101A70008A157A088316AF007908AE007808AD00A1
:101A80007708AC002F08D3002E08D2002D08D10013
:101A90002C08D000D701D601D501D4018A118312B8
:101AA000E5218A1503195A2DF701F801F901FA0108
:101AB000BD2DBD2D83162708D3002608D20025088A
:101AC000D1002408D000D701D601D501D4018A1154
:101AD0008312E5218A15031D822D83162B08D3005E
:101AE0002A08D2002908D1002808D000D701D60141
:101AF000D501D4018A118312E5218A150318822D9C
:101B0000031DBD2D83162708B3002608B200250843
:101B1000B1002408B000831200207A088316AF00B9
:101B20007908AE007808AD007708AC002F08D30024
:101B30002E08D2002D08D1002C08D0002B08D70089
:101B40002A08D6002908D5002808D4008A11831253
:101B500013238A157A088316AF007908AE00780837
:101B6000AD007708AC002F08B3002E08B2002D0896
:101B7000B1002C08B0008312EC210800FA30E30019
:101B8000A230E2004830E1007130E000AC30E70004
:101B90001930E6003930E5007C30E4001030EB000D
:101BA0009830EA006A30E9008530E8009A30EF00AA
:101BB000F830EE004730ED008D30EC00550883160C
:101BC000D500831254088316D4008A11831263212E
:101BD0008A157A08D9007908D8007808D7007708DC
:101BE000D60059088316A700831258088316A6004A
:101BF000831257088316A500831256088316A40083
:101C0000AB01AA014030A9008030A80083121B2438
:101C100063088316D300831262088316D2008312EE
:101C200061088316D100831260088316D0007A08F9
:101C3000D7007908D6007808D5007708D4008A1133
:101C4000831213238A157A088316A3007908A20049
:101C50007808A1007708A000831259088316A7000E
:101C6000831258088316A600831257088316A5000E
:101C7000831256088316A400AB01AA01A901803083
:101C8000A80083121B2467088316D30083126608FA
:101C90008316D200831265088316D100831264086C
:101CA0008316D0007A08D7007908D6007808D500C6
:101CB0007708D4008A11831213238A158316A5018D
:101CC0000408A4002510831B251483142308D700BF
:101CD0002208D6002108D5002008D4007A08DB00AD
:101CE0007908DA007808D9007708D8008A118312B9
:101CF0008A238A15831624088400831325188317E2
:101D00007A08A3007908A2007808A1007708A0004B
:101D100083126B088316D30083126A088316D200DD
:101D2000831269088316D100831268088316D000D5
:101D3000831259088316D700831258088316D600D9
:101D4000831257088316D500831256088316D400D1
:101D50008A11831213238A158316A7010408A6008B
:101D60002710831B271483102308D7002208D600CE
:101D70002108D5002008D4007A08DB007908DA00B1
:101D80007808D9007708D8008A1183128A238A1527
:101D90008316260884008313271883177A08A30064
:101DA0007908A2007808A1007708A000A90104081A
:101DB000A8002910831B291483142308D7002208A4
:101DC000D6002108D5002008D40083126F0883169E
:101DD000DB0083126E088316DA0083126D08831607
:101DE000D90083126C088316D8008A1183128A23C3
:101DF0008A158316280884008313291883177A0804
:101E00008312DD007908DC007808DB007708DA004F
:101E10005D088316D30083125C088316D2008312F8
:101E20005B088316D10083125A088316D0008A11EA
:101E30008312F2228A157908DF007808DE005E0836
:101E4000F8005F08F9008A110A16052C300883167D
:101E5000D50083122F088316D4008A1183126321C0
:101E60008A157A088316D3007908D2007808D10041
:101E70007708D0007B30D7001430D6005E30D50014
:101E80008230D4008A11831213238A1583103708F5
:101E90008316D700831236088316D60083123508BE
:101EA0008316D500831234088316D4007A08DB0029
:101EB0007908DA007808D9007708D8008A118312E7
:101EC0008A238A157A08B7007908B6007808B50021
:101ED0007708B40037088316D300831236088316B8
:101EE000D200831235088316D1008312340883167A
:101EF000D0008A118312F2228A157908B30078087B
:101F0000B2003208D5003308D4000B08F7008B1359
:101F100003178D010313540803178C0083168C13C9
:101F20000C1555308D00AA308D008C148C18962F0E
:101F30000C117708831203138B040B08F7008B1323
:101F4000013003178D000313550803178C00831607
:101F50008C130C1555308D00AA308D008C148C1804
:101F6000AF2F0C117708831203138B048A110A1602
:101F7000172C37088316D300831236088316D20035
:101F8000831235088316D100831234088316D000DB
:101F9000D701D6014030D5008030D4008A11831299
:101FA00013238A157A08BB007908BA007808B900AB
:101FB0007708B8003B088316D30083123A088316CB
:101FC000D200831239088316D10083123808831691
:101FD000D0008A118312F2228A157908BD00780890
:081FE000BC008A110A16202C36
:102000000B08D5008B13831603178C170C140000D4
:1020100000000318332883120C087F390313D600FD
:1020200003170D080313D70003170F080313D80075
:1020300056080C1E19289900570803178D00031322
:10204000580803178F0083168C170C14000000002B
:1020500083120313D40B2D2830288316031733283B
:1020600053288316031783120C0D0E0D7F390313AB
:10207000D60003170D080313D70003170F08031327
:10208000D80056080C1E42289900570803178D00E7
:102090000313580803178F008D0A03198F0A0310C2
:1020A0000313D40B0328D51B8B170800DC0104088D
:1020B000DB005C10831B5C14550EF038D700D7078B
:1020C000E23ED800323EDA0055080F39D807D8076B
:1020D000DA07E93ED900D907D907540E0F39D907D5
:1020E000DA07D90DDA0DDA09DA0D54080F39DA07F3
:1020F000D70D0730D6000A30DA07D903031C7C2835
:10210000D907D803031C8028D807D703031C8428C9
:10211000D707D603031C8828563084008313073062
:102120005B055B1384075A30040203195B17000830
:10213000F700031DA3285B1BA3285B1AAB28DB1940
:10214000A3282030A628DB155B123030F70777086C
:102150000C1EA8289900840A5B1F93280800A81A5F
:10216000B928281EB928A8160130FB020A12E22756
:102170000A167B08F8000800A81BC628281FC628D6
:10218000A8170130FB070A12E2270A167B08F8009D
:102190000800831611141118CB28B430A2000A12BB
:1021A0008312D0270A1608308316A2000A1283125F
:1021B000D0270A167B088316A2000A128312D027A2
:1021C0000A168316A2010A128312D0270A16831652
:1021D00011151119E928831208008316111411181A
:1021E000EF28B430A2000A128312D0270A16053055
:1021F0008316A2000A128312D0270A168316A001A2
:1022000020087D07840083137E1883178008031934
:10221000192920087D07840083137E18831700087E
:10222000A100A2000A128312D0270A168316A00A60
:102230000029A2010A128312D0270A16831611154B
:102240001119202983120800831611141118262948
:10225000B430A2000A128312D0270A160230831665
:10226000A2000A128312D0270A165508FA01D600D6
:102270008316A2000A128312D0270A165408F70008
:10228000FA015408D6008316A2000A128312D0273E
:102290000A168316A2010A128312D0270A16831681
:1022A00011151119512983120800A8185F29281C3B
:1022B0005F29A8140130FC070A12E2270A167C08DD
:1022C000F800080000302A180130FB00FC005521FE
:1022D0002A1078182A1400302A180130003A0319FD
:1022E000B0292C08FC002B08FB007B08F8007C08B8
:1022F000F9007908AE007808AD002A100130FB0023
:10230000C920F8011130F700543084008313780895
:102310000A127B200A168000F80A840AF70B872924
:10232000FE015430FD00ED201130FB00C920F80102
:102330000A30F70054308400831378080A12902082
:102340000A168000F80A840AF70B9D29FE01543012
:10235000FD00ED20C830FB000A12D1210A16E62943
:102360002908FB00AF207808A9002908FB00BC2041
:102370007808A9000130FB00C920F8011130F700EE
:1023800065308400831378080A127B200A168000C7
:10239000F80A840AF70BC329FE016530FD00ED2021
:1023A0001130FB00C920F8011130F70065308400BE
:1023B000831378080A129E200A168000F80A840AFD
:1023C000F70BD929FE016530FD00ED208A110A16B0
:1023D000AF2D00302A180130FB00FC0055212A10D7
:1023E00078182A1400302A180130003A0319332AC9
:1023F0000D30F8000230F9007908AE007808AD0021
:102400002A100130FB00C920F8011030F7005430C9
:102410008400831378080A12B3200A168000F80A91
:10242000840AF70B0A2AFE015430FD00ED20123019
:10243000FB00C920F8010730F700543084008313F3
:1024400078080A12C7200A168000F80A840AF70BD7
:10245000202AFE015430FD00ED20C830FB000A1296
:10246000D1210A16692A2908FB00AF207808A900A3
:102470002908FB00BC207808A9000130FB00C92016
:10248000F8011030F70064308400831378080A12D2
:10249000B3200A168000F80A840AF70B462AFE01C8
:1024A0006430FD00ED201230FB00C920F8010E3031
:1024B000F70064308400831378080A12D2200A16C9
:1024C0008000F80A840AF70B5C2AFE016430FD00E4
:1024D000ED208A110A16B52D00302A180130EE00C1
:1024E000FC0055212A1078182A1400302A180130CF
:1024F000003A0319D82AB301B20133088316D50074
:10250000831232088316D4000A12831263210A163A
:102510007A08B7007908B6007808B5007708B400E3
:102520000B08F7008B1303178D018C0183168C1396
:102530000C1555308D00AA308D008C148C189E2AF5
:102540000C117708831203138B040B08F7008B130D
:10255000013003178D008C0183168C130C15553038
:102560008D00AA308D008C148C18B42A0C117708B9
:10257000831203138B042A100130FB00C920F801D9
:102580000930F70054308400831378080A12592068
:102590000A168000F80A840AF70BC52AFE01543097
:1025A000FD00ED20C830FB000A12D1210A16F82ADE
:1025B0002908FB00AF207808A9002908FB00BC20EF
:1025C0007808A9000130FB00C920F8011130F7009C
:1025D0005D308400831378080A1266200A16800092
:1025E000F80A840AF70BEB2AFE015D30FD00ED20AE
:1025F0008A110A16BB2D831603178715083003139B
:10260000990002309A00A63098009030831298000A
:10261000FF30A700A7152708831687008312271607
:1026200027088316870031309300293083129400E5
:10263000831694171413FF309300283083129400EC
:102640002810A8142811A8152812A8162813A817AE
:102650000130A9002A100230AE000D30AD00B001EB
:10266000AF01B10103178D0183168C130C14831273
:102670000C080313D500D401013003178D00831615
:102680008C130C1483120C080313D4070318D50AF7
:102690005408F8005508F9007908B3007808B2002A
:1026A000AA1033088316D500831232088316D4008B
:1026B0000A12831263210A167A08B7007908B60055
:1026C0007808B5007708B400BB01BA01B901B801B8
:1026D000BD01BC01831603170908C0398900031323
:1026E0001F129F1200300317880083128701880190
:1026F00089013530031390000B308F00DC308E00E1
:1027000083160C1483128B158316961583128B1562
:102710008316161583128B158316961483128B1548
:1027200083161616C03083128B048316031709080C
:10273000C039890003131F129F120230031788004B
:10274000831203131F179F1783169F1783121F14DB
:10275000433003178D0001308F000A1203138229C2
:102760000A160430F8001F08C33978049F00A63009
:10277000F700F70BB92B00009F149F18BD2B831691
:102780001E088312AB001E08AC006430FB000A1266
:10279000D1210A162E08013C0318E52BFF3A031D30
:1027A000D52B2D080D3C0318E52B0D302D02F7001D
:1027B0002E08FA000230031C0330FA027708AB023D
:1027C0007A08031C7A0FAC02FE2B2E08023C031C75
:1027D000FE2B031DEF2B2D080C3C031CFE2B2D089C
:1027E0000D3CF7000230FA002E08031C2E0FFA02EF
:1027F0007708AB077A0803187A0FAC072C08D500C6
:102800002B08D4000A128A15BE2D0A168A117908DF
:10281000BF007808BE003F08D5003E08D4000A1269
:10282000902F0A16AA1C1D2C0A128A15262F0A168A
:102830008A11AA100A12E2270A160A128A15B92F5B
:102840000A168A11493003178D0001308F000310DA
:102850000F300313D4000020103084002C08D50062
:102860002B08D40056200D300C1E342C99000A3051
:102870000C1E382C9900543003178D0001308F0046
:10288000031009300313D4000020103084003F08E7
:10289000D5003E08D40056200D300C1E4D2C99005A
:1028A0000A300C1E512C99005C3003178D0001304A
:1028B0008F00031008300313D40000201030840070
:1028C0003008D5002F08D40056200D300C1E662C81
:1028D00099000A300C1E6A2C99002908073C03183D
:1028E000742C0730A905CA2DA908031D7A2C0130C4
:1028F000A900CA2D290BF02C2908FB00AF2078086D
:10290000A9002908FB00BC207808A9000130FB00C1
:10291000C920F8010730F70040308400831378089D
:102920000A1238200A168000F80A840AF70B8F2C46
:10293000FE014030FD00ED200730FB00C920F8010A
:102940000730F70040308400831378080A124320D0
:102950000A168000F80A840AF70BA52CFE01403005
:10296000FD00ED200D30FB00C9205730C000413084
:10297000C1005430C200C300C401FE014030FD005C
:10298000ED201230FB00C9202C08D5002B08D40004
:1029900024211530FB00C9202030C000C100C20036
:1029A000C301FE014030FD00ED201830FB00C920BE
:1029B0003F08D5003E08D40024211C30FB00C9206C
:1029C0002030C000C101FE014030FD00ED201D306F
:1029D000FB00C9203008D5002F08D4002421CA2DBF
:1029E0002908023C031D672D2908FB00AF20780849
:1029F000A9002908FB00BC207808A9000130FB00D1
:102A0000C920F8010730F7004730840083137808A5
:102A10000A124E200A168000F80A840AF70B072DC6
:102A2000FE014730FD00ED200730FB00C920F80112
:102A30000730F70047308400831378080A124320D8
:102A40000A168000F80A840AF70B1D2DFE01473094
:102A5000FD00ED200D30FB00C9205730C70041308C
:102A6000C8005430C900CA00CB01FE014730FD0048
:102A7000ED201230FB00C920D501E630D40024211E
:102A80001530FB00C9202030C700C800C900CA01AA
:102A9000FE014730FD00ED201830FB00C9203F0843
:102AA000D5003E08D40024211C30FB00C920203072
:102AB000C700C801FE014730FD00ED201D30FB00BE
:102AC000C9203008D5002F08D4002421CA2D290898
:102AD000033C031DAA2D2908FB00AF207808A9009C
:102AE0002908FB00BC207808A9000130FB00C920A0
:102AF0002030CE005530CF006E30D0006930D1008C
:102B00007430D200D301FE014E30FD00ED200830BC
:102B1000FB00C9203308D5003208D400242111302D
:102B2000FB00C9202030CE004230CF006130D00001
:102B30006830D1007430D200D301FE014E30FD0068
:102B4000ED201830FB00C9203D08D5003C08D4001A
:102B50002421CA2D2908043C031DB02D6229CA2D49
:102B60002908053C031DB62DE929CA2D2908063C74
:102B7000031DBC2D6C2ACA2D2908073C031DCA2D34
:102B80002908FB00AF207808A9002908FB00BC2019
:082B90007808A900BC2B6300CA
:024200000000BC
:04400E00C22FFF3F7F
:00000001FF
;PIC16F886
;CRC=0330  CREATED="04-¡.¾.-14 23:01"
