:1000000011308A00F3290000FF00030E8301A100D4
:100010000A08A0008A010408A2007708A300780853
:10002000A4007908A5007A08A600831383128B1D0B
:100030001B280B1832288C308400001C21280C1837
:100040003528220884002308F7002408F800250832
:10005000F9002608FA0020088A00210E8300FF0E0E
:100060007F0E09008A110A12C2288A110A12112968
:100070000A108A100A118207533445344E3453341F
:100080004F34523400340A108A100A118207203487
:1000900020346D3441342034203400340A108A1066
:1000A0000A118207203476346F346C34743420346F
:1000B00000340A108A100A118207203420342034B8
:1000C000433441344C34493442345234413454344E
:1000D0004534203420342034203400340A108A106F
:1000E0000A118207203420344F344B342034213419
:1000F00021342134203400340A108A100A11820776
:100100002034203454346834693473342034543403
:100110006F346F346C342034213421342134203452
:1001200000340A108A100A118207523445345334BD
:10013000453454342034433441344C34493442340B
:10014000523441345434453400340A108A100A11B0
:1001500082074F344B34203421342134213400348D
:100160000A108A100A1182075434683469347334CF
:10017000203454346F346F346C34203421342134BF
:10018000213400348316861583128619CB28A818CB
:10019000CB2828140D29831686158312861DD52891
:1001A000A81CD5282810A8100D298316061583121F
:1001B0000619DE28A819DE2828150D29831606152C
:1001C0008312061DE828A81DE8282811A8110D296A
:1001D0008316861483128618F128A81AF128281687
:1001E0000D29831686148312861CFB28A81EFB2863
:1001F0002812A8120D29831606168312061A04293E
:10020000A81B042928170D29831606168312061E1B
:100210000D29A81F0D292813A8130B108A110A12E3
:1002200021280B308F00DC308E000130B1073108FF
:10023000313C03181D29B101AA140C108A110A12AD
:100240002128D3306D38EC34EE33BA060A00D332AD
:10025000EE396F39203B6136F532A01EA012CC3A40
:100260000D050000C126D022D222A01EA012CC3A39
:100270000D050001D027D72252103D102526F50686
:100280000A000B08C4008B13831603178C170C1479
:100290000000000083120C087F3903198A29031318
:1002A000C50003170D080313C60003170F08031337
:1002B000C70045080C1E5A299900460803178D00EF
:1002C0000313470803178F0083168C170C140000C4
:1002D000000083120C0D0E0D7F3903198A290313B8
:1002E000C50003170D080313C60003170F080313F7
:1002F000C70045080C1E7A299900460803178D008F
:100300000313470803178F008D0A03198F0A03137D
:10031000442903170313C41B8B178A110A16732A67
:1003200066308400831300080319A3290630F800FF
:10033000F701F70B9929F80B98297B30F700F70B99
:100340009F29800B962908008E30F70083163D0800
:10035000F8003C08F900FA01F808031DB9297908EA
:10036000F800F9010830F702F808031DB929F70170
:10037000C1290310F81BC029F90DF80DF703B9299D
:10038000F8138312080083163908C0003D08C00620
:10039000C01FCF2903110310B91B0314022A390807
:1003A000C0003C08C1003808C1020319DD29C01F84
:1003B000022A0308013A8300022A3D08C1003908D5
:1003C000C1020319E929C01F022A0308013A830068
:1003D000022A3E08C1003A08C1020319F529C01FCC
:1003E000022A0308013A8300022A3F08C1003B08A1
:1003F000C1020319012AC01F022A0308013A83001F
:10040000022A031083120800831631080319CA2A2E
:10041000BD0035080319CA2ABD02031C142A7F3007
:10042000BD070318CA2A1A2A8130BD02031CCA2A32
:100430000319CA2A3D08F700F801F901FA01BC01C5
:100440003208BB00BB173308BA003408B9001930B2
:10045000BD003808B90203183D2A0130BA0203185A
:100460003D2ABB0203183D2ABC0203183D2ABC0AE0
:10047000BB0ABA0A3808B9076F2A3708BA02031844
:10048000582A0130BB020318582ABC020318582A04
:10049000BC0ABB0A3708BA073808B907031C6F2A19
:1004A000BA0A031D6F2ABB0A031D6F2ABC0A6F2AF2
:1004B00036088038BB0203186E2A0130BC020318CC
:1004C0006E2ABC0A36088038BB073708BA07031CF7
:1004D0004C2ABB0A031D4C2ABC0A4C2A7A14BD0BB9
:1004E000722A7D2A0310B90DBA0DBB0DBC0D031085
:1004F000FA0DF90DF80DBE0D292A3E1C852A0310B0
:10050000F80CF90CFA0CBE0C882AF7030319CA2A56
:10051000BE1BB12A0310B90DBA0DBB0DBC0D3808B6
:10052000B90203189D2A0130BA0203189D2ABB02A2
:1005300003189D2ABC02031CC02A3708BA020318FC
:10054000A82A0130BB020318A82ABC02031CC02A37
:1005500036088038BB020318B12A0130BC02031CE4
:10056000C02AFA0A031DC02AF90A031DC02AF80A84
:10057000031DC02AF70A0319CA2AF80CF90CFA0C51
:100580003208BD003608BD06BD1FC82AF817CE2A9E
:10059000F813CE2AF701F801F901FA0183120800D5
:1005A0008E30F70083163808F7023908F9003A0848
:1005B000F800F917F7080319E82A0310F908031DD2
:1005C000E42AF8080319E82AF90CF80CF70BDD2ADD
:1005D000B91FEF2AF809F909F80A0319F90A831271
:1005E0000800831638080319622BC0003C08031961
:1005F000622BC0070318032B7F30C002031C622B41
:100600000319622B072B8130C0070318622B4008A7
:10061000F700F801F901FA013908C400C4173A08D3
:10062000C3003B08C2001830C000C101421C302B7F
:100630003F08FA07031C222BF90A031D222BF80A94
:100640000319C1173E08F907031C292BF80A0319DF
:10065000C1173D08BA00BA173A08F8070318C117BE
:10066000C10DF80CF90CFA0CC40CC30CC20C03102D
:10067000C00B152B0130F7070318622BF81B472B13
:10068000C40DFA0DF90DF80DF7030319622BC41F01
:10069000582BFA0A031D582BF90A031D582BF80A88
:1006A000031D582BF80CF90CFA0CF70A0319622BEE
:1006B0003908C1003D08C106C11F602BF817662B21
:1006C000F813662BF701F801F901FA01831208000B
:1006D0008030831C6E2B8316C10683128316C601DD
:1006E000C7013D08C5004108C5063C0803195C2C3C
:1006F000C400F70040080319652CC4020319012C3B
:10070000031CBF2B4108CA00CA174208C90043088E
:10071000C800C7010310CA0CC90CC80CC70CC40B15
:10072000892BC51F962B4614792C4610441046166B
:10073000BF30840083138E2C4612C51BA92B441C8A
:10074000B42BCA0CC90CC80CC70CF70A0319742CBB
:10075000B42BCA1BB72B0310C70DC80DC90DCA0D8A
:10076000F7030319742CA92B4617212C46133D08B7
:10077000C500C51FBD2BCA176D2CCA136D2C4008B0
:10078000C400F7003C08C4023D08CA00CA173E086E
:10079000C9003F08C800C7010310CA0CC90CC80C27
:1007A000C70CC40BCB2BC51FD82BC614792CC61075
:1007B0004410C616C330840083138E2CC612C51B8A
:1007C000EB2B441CF62BCA0CC90CC80CC70CF70A3F
:1007D0000319742CF62BCA1BF92B0310C70DC80D77
:1007E000C90DCA0DF7030319742CEB2BC617212C66
:1007F000C6134108C500C51FFF2BCA176D2CCA13AD
:100800006D2C4108CA00CA174208C9004308C80035
:10081000C51F0E2CCA134615792C4611C70144106A
:10082000BF30840083138E2CC51B372C3D08C500B8
:10083000441C212CCA0CC90CC80CC70CF70A03199C
:10084000742CC71F322CC80A031D322CC90A031D81
:10085000322CCA0A031D322CCA0CC90CC80CF70A68
:100860000319742C461BB62BC61BF82B562C803054
:10087000CA06CA1F3F2C792C4108C5004C2C3D08E4
:10088000C500CA08031D4C2CC908031D4C2CC80800
:10089000031D4C2CF7016D2CCA1B562C0310C70DE1
:1008A000C80DC90DCA0DF70B4C2C742CC51F5A2C42
:1008B000CA176D2CCA136D2C4008F7004108CA00F6
:1008C0004208C9004308C8006D2C3C08F7003D08E9
:1008D000CA003E08C9003F08C8004A08F800490895
:1008E000F9004808FA00AC2CF701F801F901FA0107
:1008F000AC2CC701C809C909CA09C709C70A031D21
:10090000872CC80A031D872CC90A0319CA0A46186E
:10091000952BC618D72B46190D2C3C2C0008C80760
:10092000031C982CC90A031D982CCA0A03194414E5
:1009300084030008C907031CA02CCA0A0319441425
:1009400084030008801F803ACA0703184414461A1B
:100950009C2BC61ADE2B142C83120800831637102A
:100960002B08B0002A08AF002908AE002808AD0007
:100970002B08BB002A08BA002908B9002808B800CB
:10098000BF01BE01BD01BC018312C321031CCE2CDB
:10099000831637142E08803AAE008312831630086F
:1009A000BB002F08BA002E08B9002D08B800BF01FF
:1009B000BE01BD018E30BC008312C3210318E22C9E
:1009C000031DFF2C83163008BB002F08BA002E0829
:1009D000B9002D08B8008312D02279088316BD0013
:1009E0007808BC008312A4217A088316B400790821
:1009F000B3007808B2007708B100D72D83128316B0
:100A00003008BB002F08BA002E08B9002D08B80026
:100A10008030BF009630BE001830BD009630BC005C
:100A20008312C321031CCE2D83163008BB002F0870
:100A3000BA002E08B9002D08B800BF01BE01BD01E3
:100A40007030BC008312F1227A088316BB0079084B
:100A5000BA007808B9007708B8008312D022790864
:100A60008316B6007808B5003008BB002F08BA001E
:100A70002E08B9002D08B800BF01BE01BD017030BD
:100A8000BC008312F1227A088316BB007908BA00F1
:100A90007808B9007708B8003608BD003508BC00F2
:100AA0008312A421831483163B08BF003A08BE00BA
:100AB0003908BD003808BC007A08C3007908C200B4
:100AC0007808C1007708C000831268238316BB0131
:100AD000BA01B9018E30B8007A08BF007908BE00AB
:100AE0007808BD007708BC008312F1227A088316CB
:100AF000B0007908AF007808AE007708AD0036087E
:100B0000BD003508BC008312A4218316BB01BA01C5
:100B1000B9018E30B8007A08BF007908BE007808A5
:100B2000BD007708BC008312F1227A088316B40056
:100B30007908B3007808B2007708B1003008BB002C
:100B40002F08BA002E08B9002D08B8008312D02251
:100B500079088316BD007808BC008312A421831095
:100B600083163408BF003308BE003208BD003108C8
:100B7000BC007A08C3007908C2007808C100770871
:100B8000C000831268237A088316B4007908B30082
:100B90007808B2007708B100D72D83128316300889
:100BA000B4002F08B3002E08B2002D08B1003008A1
:100BB000BB002F08BA002E08B9002D08B800831218
:100BC000D02279088316BD007808BC008312A421C6
:100BD000831483163008BF002F08BE002E08BD0006
:100BE0002D08BC007A08C3007908C2007808C1004B
:100BF0007708C000831268237A088316B00079084A
:100C0000AF007808AE007708AD00371C0A2E320816
:100C1000803AB2003008BB002F08BA002E08B90095
:100C20002D08B800BF01BE01BD01BC018312C32164
:100C30000319572E8316371C392EAC08031D392E85
:100C400083143408BF003308BE003208BD003108E9
:100C5000BC00C301C201C1017F30C0008312682300
:100C60007A088316B4007908B3007808B2007708D0
:100C7000B1003718562E2C0B562E83103408BF00A7
:100C80003308BE003208BD003108BC00C301C201F8
:100C9000C1017F30C000831268237A088316B40034
:100CA0007908B3007808B2007708B1008312831680
:100CB0002B08BB002A08BA002908B9002808B80088
:100CC000BF01BE01BD01BC018312C321031D6E2EF5
:100CD0008316B401B301B201B10183128316310846
:100CE000F7003208F8003308F9003408FA008312DC
:100CF000080073088316BB007208BA007108B900B7
:100D00007008B800BF01BE01BD01BC018312C32140
:100D100003195E2F6F088316B40083126E088316C2
:100D2000B30083126D088316B20083126C08831619
:100D3000B1007308B8007208B7007108B6007008F7
:100D4000B500831204227A088316A3007908A20052
:100D50007808A1007708A0002308BB002208BA0089
:100D60002108B9002008B800BF01BE01BD01BC01C7
:100D70008312C321031CF32E6F088316B400831261
:100D80006E088316B30083126D088316B2008312B7
:100D90006C088316B1007308B8007208B7007108B8
:100DA000B6007008B500831204227A088316A300E7
:100DB0007908A2007808A1007708A0002308A700FE
:100DC0002208A6002108A5002008A4002708AB00DF
:100DD0002608AA002508A9002408A8000130AC00B4
:100DE0008312AE24282F6F088316B40083126E0876
:100DF0008316B30083126D088316B20083126C0849
:100E00008316B1007308B8007208B7007108B60005
:100E10007008B500831204227A088316A3007908AB
:100E2000A2007808A1007708A0002308A7002208E4
:100E3000A6002108A5002008A4002708AB0026086A
:100E4000AA002508A9002408A800AC018312AE243A
:100E50007A08FE007908FD007808FC007708FB009E
:100E60007E088316BB007D08BA007C08B9007B08A9
:100E7000B8007308BF007208BE007108BD0070089A
:100E8000BC008312F12283146F088316BF00831203
:100E90006E088316BE0083126D088316BD00831290
:100EA0006C088316BC007A08C3007908C200780871
:100EB000C1007708C000831268235E2F08008E30BF
:100EC000F70083162F08F8002E08F900FA01AF1F6B
:100ED0006E2FF809F909F90A0319F80AF808031D31
:100EE0007B2F7908F800F9010830F702F808031D94
:100EF0007B2FF701842F0310F81B822FF90DF80DBB
:100F0000F7037B2FAF1FF81383120800C901C80134
:100F1000C701C60145088316BD0083124408831625
:100F2000BC008312A4211F308316BB008530BA0099
:100F30006B30B9007C30B8007A08BF007908BE0079
:100F40007808BD007708BC008312F1227A08C90036
:100F50007908C8007808C7007708C60049088316D2
:100F6000BB00831248088316BA0083124708831611
:100F7000B900831246088316B8008312D02279087C
:100F8000B0007808AF008A110A16D42A0130B207DF
:100F90000318B30A8A110A16D92A4508F80144022F
:100FA0000318D52F4408F700E12FF7010830C600D9
:100FB000C40DF70D450877020318F700F80DC60BAE
:100FC000D82F8A110A163C2B94138C116C089300AD
:100FD0000230941BF22F8C1DEB2F00308316111B57
:080FE00001308312F800080043
:101000007308FE007208FD007108FC007008FB0008
:101010007E088316BB007D08BA007C08B9007B08F7
:10102000B800BF01BE01BD017F30BC008A11831230
:10103000C3218A150319DD298316AD017B30AC006D
:101040002C08840083132D1883177E3080008314AE
:101050007E08BF007D08BE007C08BD007B08BC0088
:10106000C301C201C1017F30C0008A11831268230D
:101070008A157A088316AF007908AE007808AD00AB
:101080007708AC0083107E08BF007D08BE007C0896
:10109000BD007B08BC00C301C201C1017F30C0009C
:1010A0008A11831268238A1583162F08B4002E082C
:1010B000B3002D08B2002C08B1007A08B8007908F6
:1010C000B7007808B6007708B5008A1183120422A9
:1010D0008A157A08FE007908FD007808FC00770878
:1010E000FB007E088316BB007D08BA007C08B900AF
:1010F0007B08B8007E08BF007D08BE007C08BD00EC
:101100007B08BC008A118312F1228A157A088316A3
:10111000AB007908AA007808A9007708A8009930E0
:10112000BB004730BA008A30B9007F30B8002B08C6
:10113000BF002A08BE002908BD002808BC008A118B
:101140008312F1228A157A088316AF007908AE005F
:101150007808AD007708AC0083102F08BF002E0878
:10116000BE002D08BD002C08BC00C301C201C10196
:101170008030C0008A11831268238A157A0883168A
:10118000A3007908A2007808A1007708A0004C30DD
:10119000BB00F330BA003A30B9007B30B8002B08FE
:1011A000BF002A08BE002908BD002808BC008A111B
:1011B0008312F1228A157A088316AF007908AE00EF
:1011C0007808AD007708AC0083102F08BF002E0808
:1011D000BE002D08BD002C08BC002B30C3009D3084
:1011E000C200DF30C1007E30C0008A118312682344
:1011F0008A157A088316A7007908A6007808A50042
:101200007708A4002708BB002608BA002508B90003
:101210002408B8002B08BF002A08BE002908BD001A
:101220002808BC008A118312F1228A157A088316D5
:10123000AF007908AE007808AD007708AC008310E5
:101240002F08BF002E08BE002D08BD002C08BC00D2
:10125000C301C201C1017F30C0008A11831268231B
:101260008A157A088316A7007908A6007808A500D1
:101270007708A4007E08BB007D08BA007C08B9008E
:101280007B08B8002308BF002208BE002108BD006B
:101290002008BC008A118312F1228A157A0883166D
:1012A000AF007908AE007808AD007708AC002F08D1
:1012B000B4002E08B3002D08B2002C08B100270896
:1012C000B8002608B7002508B6002408B5008A1122
:1012D000831204228A157A088316A3007908A200D3
:1012E0007808A1007708A000AD017030AC002C0890
:1012F000840083132D1883177E300002F400F41F3E
:1013000096297408003CAF01AE00AE1BAF038A11F2
:1013100083125F278A1577088316A4007808803A1D
:10132000A5007908A6007A08A700A829AF017408CB
:10133000AE00AE1BAF038A1183125F278A157A08AD
:101340008316A7007908A6007808A5007708A400EE
:101350002708BB002608BA002508B9002408B800F1
:101360001830BF007230BE003130BD007E30BC008E
:101370008A118312F1228A15831083162308BF0075
:101380002208BE002108BD002008BC007A08C30066
:101390007908C2007808C1007708C0008A1183125A
:1013A00068238A157A088316A3007908A2007808B2
:1013B000A1007708A000E22983128316A301A201ED
:1013C000A101A0012008F7002108F8002208F90077
:1013D0002308FA008312080073088316BB00720802
:1013E000BA007108B9007008B8003B30BF00AA30DD
:1013F000BE003830BD007F30BC008A118312F1225C
:101400008A157A088316BB007908BA007808B900F3
:101410007708B8008A118312D0228A157808F40060
:1014200075107308FE007208FD007108FC0070085A
:10143000FB0073088316BB007208BA007108B9007C
:101440007008B800BF01BE01BD01BC018A11831242
:10145000C3218A15031C322A7514F409F40A7C0886
:10146000803AFC008316A301A201A101A001A901F9
:10147000A030A800280884008313291883177F3020
:10148000740780007E08BB007D08BA007C08B900A4
:101490007B08B8003B30BF00AA30BE003830BD002A
:1014A0007F30BC008A118312F1228A157A088316D4
:1014B000AB007908AA007808A9007708A800AF0156
:1014C0007408AE00AE1BAF038A1183125F278A1522
:1014D000831483162B08BF002A08BE002908BD000C
:1014E0002808BC007A08C3007908C2007808C10047
:1014F0007708C0008A11831268238A157A08FE00D3
:101500007908FD007808FC007708FB007C30831622
:10151000BB008830BA005930B9007230B8007E087C
:10152000BF007D08BE007C08BD007B08BC008A119E
:101530008312F1228A157A088316AB007908AA0073
:101540007808A9007708A80083102B08BF002A0894
:10155000BE002908BD002808BC00E030C300973059
:10156000C2002630C1007530C0008A118312682382
:101570008A157A088316A7007908A6007808A500BE
:101580007708A4002708BB002608BA002508B90080
:101590002408B8007E08BF007D08BE007C08BD009E
:1015A0007B08BC008A118312F1228A157A088316FF
:1015B000AB007908AA007808A9007708A800831072
:1015C0002B08BF002A08BE002908BD002808BC005F
:1015D000C430C3001D30C2001E30C1007830C000CE
:1015E0008A11831268238A157A088316A70079085E
:1015F000A6007808A5007708A4002708BB002608E5
:10160000BA002508B9002408B8007E08BF007D088C
:10161000BE007C08BD007B08BC008A118312F12249
:101620008A157A088316AB007908AA007808A90001
:101630007708A80083102B08BF002A08BE002908DD
:10164000BD002808BC005E30C3005030C2006330CB
:10165000C1007A30C0008A11831268238A157A0883
:101660008316A7007908A6007808A5007708A400CB
:101670002708BB002608BA002508B9002408B800CE
:101680007E08BF007D08BE007C08BD007B08BC0052
:101690008A118312F1228A157A088316AB00790821
:1016A000AA007808A9007708A80083102B08BF00BB
:1016B0002A08BE002908BD002808BC001A30C30053
:1016C000FE30C2007530C1007C30C0008A11831228
:1016D00068238A157A088316A7007908A600780877
:1016E000A5007708A4002708BB002608BA00250833
:1016F000B9002408B8007E08BF007D08BE007C0841
:10170000BD007B08BC008A118312F1228A157A0879
:101710008316AB007908AA007808A9007708A8000A
:1017200083102B08BF002A08BE002908BD00280826
:10173000BC001830C3007230C2003130C1007E30AE
:10174000C0008A11831268238A157A088316A700BD
:101750007908A6007808A5007708A4007E08BB00D9
:101760007D08BA007C08B9007B08B8002708BF00D4
:101770002608BE002508BD002408BC008A1183127B
:10178000F1228A1583108316BF01BE01BD017F308F
:10179000BC007A08C3007908C2007808C100770845
:1017A000C0008A11831268238A1583162308BB00A0
:1017B0002208BA002108B9002008B8007A08BF0042
:1017C0007908BE007808BD007708BC008A11831232
:1017D000F1228A157A088316A3007908A2007808F6
:1017E000A1007708A000751C0F2CB401B301B20151
:1017F0007F30B1002308B8002208B7002108B600E6
:101800002008B5008A11831204228A157A088316EB
:10181000A3007908A2007808A1007708A00020089A
:10182000F7002108F8002208F9002308FA008312C3
:10183000080067088316BB00831266088316BA0087
:10184000831265088316B900831264088316B800F2
:10185000BF01BE01BD01BC018A118312C3218A15DB
:10186000031C342D6B08EF006A08EE006908ED00D8
:101870006808EC00F301F201F1017F30F0008A11F9
:1018800079268A157A08EF007908EE007808ED00CD
:101890007708EC006F088316BB0083126E0883166E
:1018A000BA0083126D088316B90083126C08831680
:1018B000B800BF01BE01BD01BC018A118312C32162
:1018C0008A15031D342D6B08EF006A08EE006908C5
:1018D000ED006808EC00F301F201F1018030F00046
:1018E0008A1179268A157A08EF007908EE007808BF
:1018F000ED007708EC006F088316BB0083126E08BA
:101900008316BA0083126D088316B90083126C081F
:101910008316B800BF01BE01BD01BC018A1183124C
:10192000C3218A15031DE32C6408EC006508803A86
:10193000ED006608EE006708EF00F3006E08F200A5
:101940006D08F1006C08F00000207A08EF007908BB
:10195000EE007808ED007708EC006F088316BB00F6
:1019600083126E088316BA0083126D088316B900BD
:1019700083126C088316B80083126B088316BF00AD
:1019800083126A088316BE00831269088316BD009D
:10199000831268088316BC008A118312F1228A150B
:1019A0007A08EF007908EE007808ED007708EC007F
:1019B0006F08F3006E08F2006D08F1006C08F0008B
:1019C000EC21FD2D332D6408EC006508803AED0014
:1019D0006608EE006708EF00F3006E08F2006D087D
:1019E000F1006C08F00000207A08EF007908EE00A2
:1019F0007808ED007708EC006F088316BB008312AF
:101A00006E088316BA0083126D088316B90083121C
:101A10006C088316B80083126B088316BF0083120C
:101A20006A088316BE00831269088316BD008312FC
:101A300068088316BC008A118312F1228A157A087D
:101A4000EF007908EE007808ED007708EC006F08E9
:101A5000F3006E08F2006D08F1006C08F000EC2154
:101A60008030F806FD2DFD2D67088316BB0083121C
:101A700066088316BA00831265088316B9008312BC
:101A800064088316B800BF01BE01BD01BC018A1104
:101A90008312C3218A15031C842D6B08EF006A088A
:101AA000EE006908ED006808EC00F301F201F101B5
:101AB0007F30F0008A1179268A157A08EF007908BC
:101AC000EE007808ED007708EC006F088316BB0085
:101AD00083126E088316BA0083126D088316B9004C
:101AE00083126C088316B800BF01BE01BD01BC01A2
:101AF0008A118312C3218A150319842DF701F80175
:101B0000F901FA01FD2DFD2D67088316BB00831234
:101B100066088316BA00831265088316B90083121B
:101B200064088316B800BF01BE01BD01BC018A1163
:101B30008312C3218A15031DB82D6B088316BB00C1
:101B400083126A088316BA00831269088316B900E3
:101B5000831268088316B800BF01BE01BD01BC0135
:101B60008A118312C3218A150318B82D031DFD2D78
:101B70006708F3006608F2006508F1006408F000E9
:101B800000207A08EF007908EE007808ED00770869
:101B9000EC006F088316BB0083126E088316BA0030
:101BA00083126D088316B90083126C088316B8007F
:101BB00083126B088316BF0083126A088316BE0067
:101BC000831269088316BD00831268088316BC005F
:101BD0008A118312F1228A157A08EF007908EE0043
:101BE0007808ED007708EC006F08F3006E08F2004B
:101BF0006D08F1006C08F000EC210800FA30D30009
:101C0000A230D2004830D1007130D000AC30D700C3
:101C10001930D6003930D5007C30D4001030DB00CC
:101C20009830DA006A30D9008530D8009A30DF0069
:101C3000F830DE004730DD008D30DC0045088316CB
:101C4000BD00831244088316BC008A118312A421AC
:101C50008A157A08C9007908C8007808C70077088B
:101C6000C6004908E7004808E6004708E5004608BE
:101C7000E400EB01EA014030E9008030E80019247B
:101C800053088316BB00831252088316BA008312CE
:101C900051088316B900831250088316B8007A08D9
:101CA000BF007908BE007808BD007708BC008A1123
:101CB0008312F1228A157A08E3007908E200780895
:101CC000E1007708E0004908E7004808E600470817
:101CD000E5004608E400EB01EA01E9018030E80094
:101CE000192457088316BB00831256088316BA00BE
:101CF000831255088316B900831254088316B8005E
:101D00007A08BF007908BE007808BD007708BC00DB
:101D10008A118312F1228A15E5010408E400651096
:101D2000831B6514831463088316BF008312620843
:101D30008316BE00831261088316BD0083126008FB
:101D40008316BC007A08C3007908C2007808C10075
:101D50007708C0008A11831268238A1564088400FA
:101D60008313651883177A08E3007908E20078087E
:101D7000E1007708E0005B088316BB0083125A0875
:101D80008316BA00831259088316B90083125808C3
:101D90008316B800831249088316BF0083124808CF
:101DA0008316BE00831247088316BD0083124608BF
:101DB0008316BC008A118312F1228A15E7010408F8
:101DC000E6006710831B6714831063088316BF0047
:101DD000831262088316BE00831261088316BD0059
:101DE000831260088316BC007A08C3007908C20019
:101DF0007808C1007708C0008A11831268238A1509
:101E0000660884008313671883177A08E30079084B
:101E1000E2007808E1007708E000E9010408E80042
:101E20006910831B691483147A088316BF00831218
:101E300079088316BE00831278088316BD008312CA
:101E400077088316BC0083125F088316C3008312D1
:101E50005E088316C20083125D088316C1008312D8
:101E60005C088316C0008A11831268238A156808EB
:101E700084008313691883177A08CD007908CC0091
:101E80007808CB007708CA004D088316BB00831280
:101E90004C088316BA0083124B088316B9008312CC
:101EA0004A088316B8008A118312D0228A1579084D
:101EB000CF007808CE004E08F8004F08F9008A11CC
:101EC0000A16C82A0B08C5008B13831603178C1734
:101ED0000C14000000000318952F83120C087F39A2
:101EE0000313C60003170D080313C70003170F08D9
:101EF0000313C80046080C1E7B2F990047080317E0
:101F00008D000313480803178F0083168C170C14D9
:101F10000000000083120313C40B8F2F922F83162F
:101F20000317952FB52F8316031783120C0D0E0D73
:101F30007F390313C60003170D080313C7000317E7
:101F40000F080313C80046080C1EA42F9900470869
:101F500003178D000313480803178F008D0A031918
:101F60008F0A03100313C40B652FC51B8B170800C2
:101F7000831611141118BA2FB4308312EC008A1191
:101F8000E4278A150630EC008A11E4278A158316A7
:101F900011151119C92F83120800A81AD52F281E50
:101FA000D52FA8160130E602B8276608F800080009
:101FB000A81BE02F281FE02FA8170130E607B8273D
:101FC0006608F8000800A818EB2F281CEB2FA814AF
:0C1FD0000130E707B8276708F800080098
:10200000CC010408CB004C10831B4C14450EF03857
:10201000C700C707E23EC800323ECA0045080F3974
:10202000C807C807CA07E93EC900C907C907440E5F
:102030000F39C907CA07C90DCA0DCA09CA0D440814
:102040000F39CA07C70D0730C6000A30CA07C903CF
:10205000031C2628C907C803031C2A28C807C7036E
:10206000031C2E28C707C603031C322846308400F1
:10207000831307304B054B1384074A3004020319BE
:102080004B170008F700031D4D284B1B4D284B1A1A
:102090005528CB194D2820305028CB154B12303005
:1020A000F70777080C1E52289900840A4B1F3D2819
:1020B00008008316111411185B28B4308312EC0049
:1020C0000A12E4270A160830EC000A12E4270A165E
:1020D0006608EC000A12E4270A16EC010A12E4274B
:1020E0000A16831611151119732883120800831616
:1020F000111411187928B4308312EC000A12E42765
:102100000A160530EC000A12E4270A16EA016A08EA
:1021100068078400831369188317800803199E28B1
:102120006A08680784008313691883170008EB00A6
:10213000EC000A12E4270A16EA0A8728EC010A12C0
:10214000E4270A16831611151119A4288312080012
:10215000831611141118AA28B4308312EC000A1245
:10216000E4270A160230EC000A12E4270A16450892
:10217000FA01C600EC000A12E4270A164408F70028
:10218000FA014408C600EC000A12E4270A16EC0122
:102190000A12E4270A16831611151119CD28831285
:1021A000080000302A180130E600E7000A128A15FC
:1021B000E3270A168A112A1078182A1400302A18E0
:1021C0000130003A031923292C08E7002B08E60008
:1021D0006608F8006708F9007908AE007808AD00D5
:1021E0002A100130E6005920F8011130F700443080
:1021F0008400831378080A1259200A168000F80A0E
:10220000840AF70BFA28E9014430E80077201130FE
:10221000E6005920F8010A30F700443084008313A7
:1022200078080A126E200A168000F80A840AF70B52
:102230001029E9014430E8007720C830E6000A128E
:1022400090210A1661292908E6000A128A15CD276D
:102250000A168A117808A9002908E6000A128A15C8
:10226000D8270A168A117808A9000130E6005920FB
:10227000F8011130F70055308400831378080A12F2
:1022800059200A168000F80A840AF70B3E29E90152
:102290005530E80077201130E6005920F801113060
:1022A000F70055308400831378080A127C200A1640
:1022B0008000F80A840AF70B5429E9015530E80038
:1022C00077208A110A16F62C00302A180130E40013
:1022D000E7000A128A15E3270A168A112A107818CD
:1022E0002A1400302A180130003A0319B2290D309F
:1022F000F8000230F9007908AE007808AD002A1025
:102300000130E6005920F8011030F7004430840015
:10231000831378080A1291200A168000F80A840AAA
:10232000F70B8929E9014430E80077201230E600F4
:102330005920F8010730F7004430840083137808EF
:102340000A12A5200A168000F80A840AF70B9F29B2
:10235000E9014430E8007720C830E6000A129021F5
:102360000A16F0292908E6000A128A15CD270A164E
:102370008A117808A9002908E6000A128A15D827C8
:102380000A168A117808A9000130E6005920F801E0
:102390001030F70054308400831378080A1291201B
:1023A0000A168000F80A840AF70BCD29E901543097
:1023B000E80077201230E6005920F8010E30F700CF
:1023C00054308400831378080A12B0200A16800063
:1023D000F80A840AF70BE329E9015430E800772072
:1023E0008A110A16FB2C831603178715083003136E
:1023F000990002309A00A63098009030831298001D
:10240000FF30A700A7152708831687008312271619
:1024100027088316870031309300293083129400F7
:10242000831694171413FF309300283083129400FE
:102430002810A8142811A8152812A8162813A817C0
:102440000130A9002A100230AE000D30AD00B001FD
:10245000AF01B101B301B201AA1083160317090835
:10246000C039890003131F129F1200300317880020
:1024700083128701880189013530031390000B30E6
:102480008F00DC308E0083160C1483128B1583169C
:10249000961583128B158316161583128B158316CA
:1024A000961483128B1583161616C03083128B0474
:1024B000831603170908C039890003131F129F12DE
:1024C000023003178800831203131F179F17831608
:1024D0009F1783121F14213003178D0001308F00C6
:1024E0000A12031341290A160430F8001F08C339E1
:1024F00078049F00A630F700F70B7C2A00009F1499
:102500009F18802A83161E088312AB001E08AC0099
:102510006430E6000A1290210A162E08013C0318C6
:10252000A82AFF3A031D982A2D080D3C0318A82A53
:102530000D302D02F7002E08FA000230031C033084
:10254000FA027708AB027A08031C7A0FAC02C12AA0
:102550002E08023C031CC12A031DB22A2D080C3C84
:10256000031CC12A2D080D3CF7000230FA002E088A
:10257000031C2E0FFA027708AB077A0803187A0FAC
:10258000AC072C08C5002B08C4000A128A15FE2DC2
:102590000A168A117908B5007808B4003508C50014
:1025A0003408C4000A12862F0A16AA1CDB2A0A1253
:1025B000C62F0A16AA10273003178D0001308F008E
:1025C00003100F300313C4000A128A1562270A167B
:1025D0008A11103084002C08C5002B08C40000208C
:1025E0000D300C1EF12A99000A300C1EF52A9900B4
:1025F000323003178D0001308F00031009300313B0
:10260000C4000A128A1562270A168A111030840043
:102610003508C5003408C40000200D300C1E0E2BF8
:1026200099000A300C1E122B99003A3003178D00C6
:1026300001308F00031008300313C4000A128A15FA
:1026400062270A168A11103084003008C5002F084E
:10265000C40000200D300C1E2B2B99000A300C1EDC
:102660002F2B99002908053C0318402B2908C4008A
:102670000630C5000A12CD2F0A167708A900FB2CD8
:10268000A908031D462B0130A900FB2C290B152C92
:102690002908E6000A128A15CD270A168A11780839
:1026A000A9002908E6000A128A15D8270A168A11F5
:1026B0007808A9000130E6005920F8010730F7003A
:1026C00036308400831378080A1238200A168000F6
:1026D000F80A840AF70B632BE9013630E80077200B
:1026E0000730E6005920F8010730F7003630840043
:1026F000831378080A1243200A168000F80A840A15
:10270000F70B792BE9013630E80077200D30E60031
:1027100059205730B6004130B7005430B800B900E6
:10272000BA01E9013630E80077202C08033C031C8D
:10273000A82B031D9F2B2B08E73C031CA82B123052
:10274000E60059202C08C5002B08C400A820B02B97
:102750001130E60059202C08C5002B08C400A82021
:102760003508033C031CD02B031DBA2B3408E73C6F
:10277000031CD02B1530E60059202030B600B700DE
:10278000B800B900BA01E9013630E8007720193005
:10279000E60059203508C5003408C400A820E42B01
:1027A0001530E60059202030B600B700B800B90156
:1027B000E9013630E80077201830E6005920350866
:1027C000C5003408C400A8203008033C031C022CB8
:1027D000031DEE2B2F08E73C031C022C1C30E600E7
:1027E00059202030B600B700B801E9013630E800C2
:1027F00077201E30E60059203008C5002F08C4009D
:10280000A820142C1C30E60059202030B600B70157
:10281000E9013630E80077201D30E6005920300805
:10282000C5002F08C400A820FB2C2908023C031D6A
:10283000D22C2908E6000A128A15CD270A168A1119
:102840007808A9002908E6000A128A15D8270A166E
:102850008A117808A9000130E6005920F8010730F4
:10286000F7003D308400831378080A124E200A16C0
:102870008000F80A840AF70B342CE9013D30E800A7
:1028800077200730E6005920F8010730F7003D3087
:102890008400831378080A1243200A168000F80A7D
:1028A000840AF70B4A2CE9013D30E80077200D300F
:1028B000E60059205730BD004130BE005430BF0003
:1028C000C000C101E9013D30E80077201230E60088
:1028D0005920C501E630C400A8203508033C031C7C
:1028E0008D2C031D772C3408E73C031C8D2C1530F0
:1028F000E60059202030BD00BE00BF00C000C1016D
:10290000E9013D30E80077201930E600592035080C
:10291000C5003408C400A820A12C1530E6005920B9
:102920002030BD00BE00BF00C001E9013D30E8001D
:1029300077201830E60059203508C5003408C40057
:10294000A8203008033C031CBF2C031DAB2C2F0810
:10295000E73C031CBF2C1C30E60059202030BD0092
:10296000BE00BF01E9013D30E80077201E30E600DF
:1029700059203008C5002F08C400A820D12C1C30D5
:10298000E60059202030BD00BE01E9013D30E800DD
:1029900077201D30E60059203008C5002F08C400FC
:1029A000A820FB2C2908033C031DF12C2908E60074
:1029B0000A128A15CD270A168A117808A900290853
:1029C000E6000A128A15D8270A168A117808A90083
:1029D0000130E60059203308C5003208C400A820A1
:1029E000FB2C2908043C031DF72CD128FB2C2908BB
:0A29F000053C031964297F2A6300E7
:04400E00C22FFF3F7F
:00000001FF
;PIC16F886
;CRC=BE22  CREATED="03-¡.¾.-14 01:25"
