:1000000011308A009C290000FF00030E8301A1002B
:100010000A08A0008A010408A2007708A300780853
:10002000A4007908A5007A08A600831383128B1D0B
:100030001B280B182C28220884002308F70024080A
:10004000F8002508F9002608FA0020088A00210E89
:100050008300FF0E7F0E09008A110A12B9280A10C8
:100060008A100A118207533445344E3453344F34C6
:10007000523400340A108A100A11820720342034C6
:100080006D3441342034203400340A108A100A11AF
:100090008207203476346F346C3474342034003466
:1000A0000A108A100A118207203420342034433485
:1000B00041344C344934423452344134543445345C
:1000C000203420342034203400340A108A100A11DD
:1000D0008207203420344F344B34203421342134EF
:1000E0002134203400340A108A100A118207203487
:1000F00020345434683469347334203454346F34C5
:100100006F346C34203421342134213420340034D1
:100110000A108A100A118207523445345334453488
:1001200054342034433441344C344934423452340E
:1001300041345434453400340A108A100A118207BD
:100140004F344B34203421342134213400340A100C
:100150008A100A11820754346834693473342034A5
:1001600054346F346F346C342034213421342134CE
:1001700000348316861583128619C228A818C2284F
:1001800028140429831686158312861DCC28A81CE2
:10019000CC282810A81004298316061583120619E6
:1001A000D528A819D52828150429831606158312E1
:1001B000061DDF28A81DDF282811A8110429831691
:1001C000861483128618E828A81AE8282816042915
:1001D000831686148312861CF228A81EF228281281
:1001E000A8120429831606168312061AFB28A81BD8
:1001F000FB2828170429831606168312061E0429D5
:10020000A81F04292813A8130B108A110A121B28EF
:10021000D3306D38EC34EE33BA060A00D332EE39FF
:100220006F39203B6136F532A01EA012CC3A0D0585
:100230000000C126D022D222A01EA012CC3A0D0569
:100240000001D027D72252103D102526F5060A00BE
:100250000B08C5008B13831603178C170C140000B2
:10026000000083120C087F39031971290313C6009B
:1002700003170D080313C70003170F080313C80063
:1002800046080C1E41299900470803178D000313E7
:10029000480803178F0083168C170C140000000009
:1002A00083120C0D0E0D7F39031971290313C6003B
:1002B00003170D080313C70003170F080313C80023
:1002C00046080C1E61299900470803178D00031387
:1002D000480803178F008D0A03198F0A03132B296F
:1002E00003170313C51B8B178A110A160D2A6730D3
:1002F00084008313000803198A290630F800F701E7
:10030000F70B8029F80B7F297B30F700F70B862944
:10031000800B7D2908008E30F70083163D08F80019
:100320003C08F900FA01F808031DA0297908F80033
:10033000F9010830F702F808031DA029F701A829E0
:100340000310F81BA729F90DF80DF703A029F813DE
:100350008312080083163908C0003D08C006C01F7C
:10036000B62903110310B91B0314E9293908C00089
:100370003C08C1003808C1020319C429C01FE9297B
:100380000308013A8300E9293D08C1003908C10288
:100390000319D029C01FE9290308013A8300E9297C
:1003A0003E08C1003A08C1020319DC29C01FE9292F
:1003B0000308013A8300E9293F08C1003B08C10254
:1003C0000319E829C01FE9290308013A8300E92934
:1003D000031083120800831631080319B12ABD00E7
:1003E00035080319B12ABD02031CFB297F30BD0764
:1003F0000318B12A012A8130BD02031CB12A031956
:10040000B12A3D08F700F801F901FA01BC013208F0
:10041000BB00BB173308BA003408B9001930BD005F
:100420003808B9020318242A0130BA020318242A12
:10043000BB020318242ABC020318242ABC0ABB0AE4
:10044000BA0A3808B907562A3708BA0203183F2AE9
:100450000130BB0203183F2ABC0203183F2ABC0A22
:10046000BB0A3708BA073808B907031C562ABA0A64
:10047000031D562ABB0A031D562ABC0A562A3608F3
:100480008038BB020318552A0130BC020318552AD4
:10049000BC0A36088038BB073708BA07031C332A62
:1004A000BB0A031D332ABC0A332A7A14BD0B592A0E
:1004B000642A0310B90DBA0DBB0DBC0D0310FA0D63
:1004C000F90DF80DBE0D102A3E1C6C2A0310F80C15
:1004D000F90CFA0CBE0C6F2AF7030319B12ABE1BE4
:1004E000982A0310B90DBA0DBB0DBC0D3808B9021E
:1004F0000318842A0130BA020318842ABB020318A5
:10050000842ABC02031CA72A3708BA0203188F2AC0
:100510000130BB0203188F2ABC02031CA72A36082D
:100520008038BB020318982A0130BC02031CA72A9A
:10053000FA0A031DA72AF90A031DA72AF80A031DB0
:10054000A72AF70A0319B12AF80CF90CFA0C320899
:10055000BD003608BD06BD1FAF2AF817B52AF8132F
:10056000B52AF701F801F901FA01831208008E306B
:10057000F70083163808F7023908F9003A08F8003E
:10058000F917F7080319CF2A0310F908031DCB2A1E
:10059000F8080319CF2AF90CF80CF70BC42AB91F75
:1005A000D62AF809F909F80A0319F90A831208008A
:1005B000831638080319492BC0003C080319492B3E
:1005C000C0070318EA2A7F30C002031C492B031915
:1005D000492BEE2A8130C0070318492B4008F70049
:1005E000F801F901FA013908C400C4173A08C30038
:1005F0003B08C2001830C000C101421C172B3F0845
:10060000FA07031C092BF90A031D092BF80A031921
:10061000C1173E08F907031C102BF80A0319C1176C
:100620003D08BA00BA173A08F8070318C117C10DF8
:10063000F80CF90CFA0CC40CC30CC20C0310C00B60
:10064000FC2A0130F7070318492BF81B2E2BC40D89
:10065000FA0DF90DF80DF7030319492BC41F3F2BB1
:10066000FA0A031D3F2BF90A031D3F2BF80A031D4D
:100670003F2BF80CF90CFA0CF70A0319492B39082F
:10068000C1003D08C106C11F472BF8174D2BF813B9
:100690004D2BF701F801F901FA01831208008030AF
:1006A000831C552B8316C10683128316C601C7010E
:1006B0003D08C5004108C5063C080319432CC40089
:1006C000F700400803194C2CC4020319E82B031C43
:1006D000A62B4108CA00CA174208C9004308C8002F
:1006E000C7010310CA0CC90CC80CC70CC40B702B73
:1006F000C51F7D2B4614602C461044104616BF3093
:1007000084008313752C4612C51B902B441C9B2B15
:10071000CA0CC90CC80CC70CF70A03195B2C9B2B1D
:10072000CA1B9E2B0310C70DC80DC90DCA0DF703B8
:1007300003195B2C902B4617082C46133D08C50067
:10074000C51FA42BCA17542CCA13542C4008C4002C
:10075000F7003C08C4023D08CA00CA173E08C90099
:100760003F08C800C7010310CA0CC90CC80CC70C4D
:10077000C40BB22BC51FBF2BC614602CC61044106F
:10078000C616C33084008313752CC612C51BD22B2A
:10079000441CDD2BCA0CC90CC80CC70CF70A031982
:1007A0005B2CDD2BCA1BE02B0310C70DC80DC90D38
:1007B000CA0DF70303195B2CD22BC617082CC613DE
:1007C0004108C500C51FE62BCA17542CCA13542C68
:1007D0004108CA00CA174208C9004308C800C51F1B
:1007E000F52BCA134615602C4611C7014410BF30C3
:1007F00084008313752CC51B1E2C3D08C500441CAA
:10080000082CCA0CC90CC80CC70CF70A03195B2CBE
:10081000C71F192CC80A031D192CC90A031D192C3E
:10082000CA0A031D192CCA0CC90CC80CF70A0319F3
:100830005B2C461B9D2BC61BDF2B3D2C8030CA0634
:10084000CA1F262C602C4108C500332C3D08C5006A
:10085000CA08031D332CC908031D332CC808031D07
:10086000332CF701542CCA1B3D2C0310C70DC80DA7
:10087000C90DCA0DF70B332C5B2CC51F412CCA17B1
:10088000542CCA13542C4008F7004108CA004208EF
:10089000C9004308C800542C3C08F7003D08CA00B2
:1008A0003E08C9003F08C8004A08F8004908F90096
:1008B0004808FA00932CF701F801F901FA01932C8A
:1008C000C701C809C909CA09C709C70A031D6E2C8F
:1008D000C80A031D6E2CC90A0319CA0A46187C2BC4
:1008E000C618BE2B4619F42B232C0008C807031C7E
:1008F0007F2CC90A031D7F2CCA0A031944148403E0
:100900000008C907031C872CCA0A0319441484036E
:100910000008801F803ACA0703184414461A832B24
:10092000C61AC52BFB2B83120800831637102B0821
:10093000B0002A08AF002908AE002808AD002B0837
:10094000BB002A08BA002908B9002808B800BF016E
:10095000BE01BD01BC018312AA21031CB52C831664
:1009600037142E08803AAE00831283163008BB007D
:100970002F08BA002E08B9002D08B800BF01BE012B
:10098000BD018E30BC008312AA210318C92C031D9F
:10099000E62C83163008BB002F08BA002E08B900D9
:1009A0002D08B8008312B72279088316BD00780895
:1009B000BC0083128B217A088316B4007908B30037
:1009C0007808B2007708B100BE2D83128316300874
:1009D000BB002F08BA002E08B9002D08B8008030DF
:1009E000BF009630BE001830BD009630BC008312A8
:1009F000AA21031CB52D83163008BB002F08BA00AE
:100A00002E08B9002D08B800BF01BE01BD0170302D
:100A1000BC008312D8227A088316BB007908BA007A
:100A20007808B9007708B8008312B72279088316CE
:100A3000B6007808B5003008BB002F08BA002E08B1
:100A4000B9002D08B800BF01BE01BD017030BC0067
:100A50008312D8227A088316BB007908BA00780876
:100A6000B9007708B8003608BD003508BC0083120D
:100A70008B21831483163B08BF003A08BE00390857
:100A8000BD003808BC007A08C3007908C2007808A5
:100A9000C1007708C00083124F238316BB01BA013F
:100AA000B9018E30B8007A08BF007908BE00780816
:100AB000BD007708BC008312D8227A088316B000E4
:100AC0007908AF007808AE007708AD003608BD00A1
:100AD0003508BC0083128B218316BB01BA01B90112
:100AE0008E30B8007A08BF007908BE007808BD00D3
:100AF0007708BC008312D8227A088316B4007908DC
:100B0000B3007808B2007708B1003008BB002F08A6
:100B1000BA002E08B9002D08B8008312B722790850
:100B20008316BD007808BC0083128B2183108316C6
:100B30003408BF003308BE003208BD003108BC00D5
:100B40007A08C3007908C2007808C1007708C0009D
:100B500083124F237A088316B4007908B30078080B
:100B6000B2007708B100BE2D831283163008B4009E
:100B70002F08B3002E08B2002D08B1003008BB00CA
:100B80002F08BA002E08B9002D08B8008312B7222A
:100B900079088316BD007808BC0083128B2183146A
:100BA00083163008BF002F08BE002E08BD002D0898
:100BB000BC007A08C3007908C2007808C100770831
:100BC000C00083124F237A088316B0007908AF0063
:100BD0007808AE007708AD00371CF12D3208803A56
:100BE000B2003008BB002F08BA002E08B9002D084B
:100BF000B800BF01BE01BD01BC018312AA210319C7
:100C00003E2E8316371C202EAC08031D202E831485
:100C10003408BF003308BE003208BD003108BC00F4
:100C2000C301C201C1017F30C00083124F237A0883
:100C30008316B4007908B3007808B2007708B100D1
:100C400037183D2E2C0B3D2E83103408BF0033087F
:100C5000BE003208BD003108BC00C301C201C101A1
:100C60007F30C00083124F237A088316B4007908BE
:100C7000B3007808B2007708B100831283162B08FE
:100C8000BB002A08BA002908B9002808B800BF012B
:100C9000BE01BD01BC018312AA21031D552E83167E
:100CA000B401B301B201B101831283163108F70018
:100CB0003208F8003308F9003408FA0083120800FB
:100CC00074088316BB007308BA007208B900710873
:100CD000B800BF01BE01BD01BC018312AA210319E6
:100CE000452F70088316B40083126F088316B30073
:100CF00083126E088316B20083126D088316B1004A
:100D00007408B8007308B7007208B6007108B5001F
:100D10008312EB217A088316A3007908A2007808D1
:100D2000A1007708A0002308BB002208BA00210810
:100D3000B9002008B800BF01BE01BD01BC0183128B
:100D4000AA21031CDA2E70088316B40083126F08E0
:100D50008316B30083126E088316B20083126D08E7
:100D60008316B1007408B8007308B7007208B600A3
:100D70007108B5008312EB217A088316A300790865
:100D8000A2007808A1007708A0002308A700220885
:100D9000A6002108A5002008A4002708AB0026080B
:100DA000AA002508A9002408A8000130AC0083127D
:100DB00095240F2F70088316B40083126F088316D2
:100DC000B30083126E088316B20083126D08831677
:100DD000B1007408B8007308B7007208B600710853
:100DE000B5008312EB217A088316A3007908A200CC
:100DF0007808A1007708A0002308A7002208A60011
:100E00002108A5002008A4002708AB002608AA0096
:100E10002508A9002408A800AC01831295247A08AB
:100E2000FE007908FD007808FC007708FB007E08CA
:100E30008316BB007D08BA007C08B9007B08B800A7
:100E40007408BF007308BE007208BD007108BC00C2
:100E50008312D822831470088316BF0083126F0890
:100E60008316BE0083126E088316BD0083126D08C0
:100E70008316BC007A08C3007908C2007808C10054
:100E80007708C00083124F23452F08008E30F700EB
:100E900083162F08F8002E08F900FA01AF1F552F0E
:100EA000F809F909F90A0319F80AF808031D622F6D
:100EB0007908F800F9010830F702F808031D622FDD
:100EC000F7016B2F0310F81B692FF90DF80DF703CD
:100ED000622FAF1FF813831208000B08C6008B1394
:100EE000831603178C170C14000000000318A02FA2
:100EF00083120C087F390313C70003170D0803136F
:100F0000C80003170F080313C90047080C1E862FDB
:100F10009900480803178D000313490803178F0031
:100F200083168C170C140000000083120313C50BEA
:100F30009A2F9D2F83160317A02FC02F83160317F8
:100F400083120C0D0E0D7F390313C70003170D0814
:100F50000313C80003170F080313C90047080C1E2A
:100F6000AF2F9900480803178D0003134908031792
:100F70008F008D0A03198F0A03100313C50B702FFE
:100F8000C61B8B1708004608F80145020318CB2F33
:100F90004508F700D72FF7010830C700C50DF70D3A
:100FA000460877020318F700F80DC70BCE2F8A11F9
:100FB0000A160E2B94138C116D0893000230941BAB
:100FC000E82F8C1DE12F00308316111B0130831296
:100FD000F8000800831611141118EC2FB430831296
:100FE000ED00DA270630ED00DA2783161115111906
:060FF000F72F8312080038
:101000007408FE007308FD007208FC007108FB0004
:101010007E088316BB007D08BA007C08B9007B08F7
:10102000B800BF01BE01BD017F30BC008A11831230
:10103000AA218A150319DD298316AD017B30AC0086
:101040002C08840083132D1883177E3080008314AE
:101050007E08BF007D08BE007C08BD007B08BC0088
:10106000C301C201C1017F30C0008A1183124F2326
:101070008A157A088316AF007908AE007808AD00AB
:101080007708AC0083107E08BF007D08BE007C0896
:10109000BD007B08BC00C301C201C1017F30C0009C
:1010A0008A1183124F238A1583162F08B4002E0845
:1010B000B3002D08B2002C08B1007A08B8007908F6
:1010C000B7007808B6007708B5008A118312EB21C3
:1010D0008A157A08FE007908FD007808FC00770878
:1010E000FB007E088316BB007D08BA007C08B900AF
:1010F0007B08B8007E08BF007D08BE007C08BD00EC
:101100007B08BC008A118312D8228A157A088316BC
:10111000AB007908AA007808A9007708A8009930E0
:10112000BB004730BA008A30B9007F30B8002B08C6
:10113000BF002A08BE002908BD002808BC008A118B
:101140008312D8228A157A088316AF007908AE0078
:101150007808AD007708AC0083102F08BF002E0878
:10116000BE002D08BD002C08BC00C301C201C10196
:101170008030C0008A1183124F238A157A088316A3
:10118000A3007908A2007808A1007708A0004C30DD
:10119000BB00F330BA003A30B9007B30B8002B08FE
:1011A000BF002A08BE002908BD002808BC008A111B
:1011B0008312D8228A157A088316AF007908AE0008
:1011C0007808AD007708AC0083102F08BF002E0808
:1011D000BE002D08BD002C08BC002B30C3009D3084
:1011E000C200DF30C1007E30C0008A1183124F235D
:1011F0008A157A088316A7007908A6007808A50042
:101200007708A4002708BB002608BA002508B90003
:101210002408B8002B08BF002A08BE002908BD001A
:101220002808BC008A118312D8228A157A088316EE
:10123000AF007908AE007808AD007708AC008310E5
:101240002F08BF002E08BE002D08BD002C08BC00D2
:10125000C301C201C1017F30C0008A1183124F2334
:101260008A157A088316A7007908A6007808A500D1
:101270007708A4007E08BB007D08BA007C08B9008E
:101280007B08B8002308BF002208BE002108BD006B
:101290002008BC008A118312D8228A157A08831686
:1012A000AF007908AE007808AD007708AC002F08D1
:1012B000B4002E08B3002D08B2002C08B100270896
:1012C000B8002608B7002508B6002408B5008A1122
:1012D0008312EB218A157A088316A3007908A200ED
:1012E0007808A1007708A000AD017130AC002C088F
:1012F000840083132D1883177E300002F500F51F3C
:1013000096297508003CAF01AE00AE1BAF038A11F1
:10131000831246278A1577088316A4007808803A36
:10132000A5007908A6007A08A700A829AF017508CA
:10133000AE00AE1BAF038A11831246278A157A08C6
:101340008316A7007908A6007808A5007708A400EE
:101350002708BB002608BA002508B9002408B800F1
:101360001830BF007230BE003130BD007E30BC008E
:101370008A118312D8228A15831083162308BF008E
:101380002208BE002108BD002008BC007A08C30066
:101390007908C2007808C1007708C0008A1183125A
:1013A0004F238A157A088316A3007908A2007808CB
:1013B000A1007708A000E22983128316A301A201ED
:1013C000A101A0012008F7002108F8002208F90077
:1013D0002308FA008312080074088316BB00730800
:1013E000BA007208B9007108B8003B30BF00AA30DB
:1013F000BE003830BD007F30BC008A118312D82275
:101400008A157A088316BB007908BA007808B900F3
:101410007708B8008A118312B7228A157808F50078
:1014200076107408FE007308FD007208FC00710855
:10143000FB0074088316BB007308BA007208B90079
:101440007108B800BF01BE01BD01BC018A11831241
:10145000AA218A15031C322A7614F509F50A7C089C
:10146000803AFC008316A301A201A101A001A901F9
:10147000A030A800280884008313291883177F3020
:10148000750780007E08BB007D08BA007C08B900A3
:101490007B08B8003B30BF00AA30BE003830BD002A
:1014A0007F30BC008A118312D8228A157A088316ED
:1014B000AB007908AA007808A9007708A800AF0156
:1014C0007508AE00AE1BAF038A11831246278A153A
:1014D000831483162B08BF002A08BE002908BD000C
:1014E0002808BC007A08C3007908C2007808C10047
:1014F0007708C0008A1183124F238A157A08FE00EC
:101500007908FD007808FC007708FB007C30831622
:10151000BB008830BA005930B9007230B8007E087C
:10152000BF007D08BE007C08BD007B08BC008A119E
:101530008312D8228A157A088316AB007908AA008C
:101540007808A9007708A80083102B08BF002A0894
:10155000BE002908BD002808BC00E030C300973059
:10156000C2002630C1007530C0008A1183124F239B
:101570008A157A088316A7007908A6007808A500BE
:101580007708A4002708BB002608BA002508B90080
:101590002408B8007E08BF007D08BE007C08BD009E
:1015A0007B08BC008A118312D8228A157A08831618
:1015B000AB007908AA007808A9007708A800831072
:1015C0002B08BF002A08BE002908BD002808BC005F
:1015D000C430C3001D30C2001E30C1007830C000CE
:1015E0008A1183124F238A157A088316A700790877
:1015F000A6007808A5007708A4002708BB002608E5
:10160000BA002508B9002408B8007E08BF007D088C
:10161000BE007C08BD007B08BC008A118312D82262
:101620008A157A088316AB007908AA007808A90001
:101630007708A80083102B08BF002A08BE002908DD
:10164000BD002808BC005E30C3005030C2006330CB
:10165000C1007A30C0008A1183124F238A157A089C
:101660008316A7007908A6007808A5007708A400CB
:101670002708BB002608BA002508B9002408B800CE
:101680007E08BF007D08BE007C08BD007B08BC0052
:101690008A118312D8228A157A088316AB0079083A
:1016A000AA007808A9007708A80083102B08BF00BB
:1016B0002A08BE002908BD002808BC001A30C30053
:1016C000FE30C2007530C1007C30C0008A11831228
:1016D0004F238A157A088316A7007908A600780890
:1016E000A5007708A4002708BB002608BA00250833
:1016F000B9002408B8007E08BF007D08BE007C0841
:10170000BD007B08BC008A118312D8228A157A0892
:101710008316AB007908AA007808A9007708A8000A
:1017200083102B08BF002A08BE002908BD00280826
:10173000BC001830C3007230C2003130C1007E30AE
:10174000C0008A1183124F238A157A088316A700D6
:101750007908A6007808A5007708A4007E08BB00D9
:101760007D08BA007C08B9007B08B8002708BF00D4
:101770002608BE002508BD002408BC008A1183127B
:10178000D8228A1583108316BF01BE01BD017F30A8
:10179000BC007A08C3007908C2007808C100770845
:1017A000C0008A1183124F238A1583162308BB00B9
:1017B0002208BA002108B9002008B8007A08BF0042
:1017C0007908BE007808BD007708BC008A11831232
:1017D000D8228A157A088316A3007908A20078080F
:1017E000A1007708A000761C0F2CB401B301B20150
:1017F0007F30B1002308B8002208B7002108B600E6
:101800002008B5008A118312EB218A157A08831605
:10181000A3007908A2007808A1007708A00020089A
:10182000F7002108F8002208F9002308FA008312C3
:10183000080068088316BB00831267088316BA0085
:10184000831266088316B900831265088316B800F0
:10185000BF01BE01BD01BC018A118312AA218A15F4
:10186000031C342D6C08F0006B08EF006A08EE00D2
:101870006908ED00F401F301F2017F30F1008A11F3
:1018800060268A157A08F0007908EF007808EE00E3
:101890007708ED0070088316BB0083126F0883166B
:1018A000BA0083126E088316B90083126D0883167E
:1018B000B800BF01BE01BD01BC018A118312AA217B
:1018C0008A15031D342D6C08F0006B08EF006A08C0
:1018D000EE006908ED00F401F301F2018030F1003F
:1018E0008A1160268A157A08F0007908EF007808D6
:1018F000EE007708ED0070088316BB0083126F08B6
:101900008316BA0083126E088316B90083126D081D
:101910008316B800BF01BE01BD01BC018A1183124C
:10192000AA218A15031DE32C6508ED006608803A9C
:10193000EE006708EF006808F000F4006F08F3009D
:101940006E08F2006D08F10000207A08F0007908B6
:10195000EF007808EE007708ED0070088316BB00F2
:1019600083126F088316BA0083126E088316B900BB
:1019700083126D088316B80083126C088316BF00AB
:1019800083126B088316BE0083126A088316BD009B
:10199000831269088316BC008A118312D8228A1523
:1019A0007A08F0007908EF007808EE007708ED007B
:1019B0007008F4006F08F3006E08F2006D08F10083
:1019C000EC21FD2D332D6508ED006608803AEE0010
:1019D0006708EF006808F000F4006F08F3006E0875
:1019E000F2006D08F10000207A08F0007908EF009D
:1019F0007808EE007708ED0070088316BB008312AC
:101A00006F088316BA0083126E088316B90083121A
:101A10006D088316B80083126C088316BF0083120A
:101A20006B088316BE0083126A088316BD008312FA
:101A300069088316BC008A118312D8228A157A0895
:101A4000F0007908EF007808EE007708ED007008E4
:101A5000F4006F08F3006E08F2006D08F100EC214D
:101A60008030F806FD2DFD2D68088316BB0083121B
:101A700067088316BA00831266088316B9008312BA
:101A800065088316B800BF01BE01BD01BC018A1103
:101A90008312AA218A15031C842D6C08F0006B08A0
:101AA000EF006A08EE006908ED00F401F301F201AD
:101AB0007F30F1008A1160268A157A08F0007908D3
:101AC000EF007808EE007708ED0070088316BB0081
:101AD00083126F088316BA0083126E088316B9004A
:101AE00083126D088316B800BF01BE01BD01BC01A1
:101AF0008A118312AA218A150319842DF701F8018E
:101B0000F901FA01FD2DFD2D68088316BB00831233
:101B100067088316BA00831266088316B900831219
:101B200065088316B800BF01BE01BD01BC018A1162
:101B30008312AA218A15031DB82D6C088316BB00D9
:101B400083126B088316BA0083126A088316B900E1
:101B5000831269088316B800BF01BE01BD01BC0134
:101B60008A118312AA218A150318B82D031DFD2D91
:101B70006808F4006708F3006608F2006508F100E1
:101B800000207A08F0007908EF007808EE00770866
:101B9000ED0070088316BB0083126F088316BA002D
:101BA00083126E088316B90083126D088316B8007D
:101BB00083126C088316BF0083126B088316BE0065
:101BC00083126A088316BD00831269088316BC005D
:101BD0008A118312D8228A157A08F0007908EF005A
:101BE0007808EE007708ED007008F4006F08F30045
:101BF0006E08F2006D08F100EC210800FA30D40004
:101C0000A230D3004830D2007130D100AC30D800BF
:101C10001930D7003930D6007C30D5001030DC00C8
:101C20009830DB006A30DA008530D9009A30E00065
:101C3000F830DF004730DE008D30DD0046088316C7
:101C4000BD00831245088316BC008A1183128B21C4
:101C50008A157A08CA007908C9007808C800770888
:101C6000C7004A08E8004908E7004808E6004708B6
:101C7000E500EC01EB014030EA008030E900192476
:101C800054088316BB00831253088316BA008312CC
:101C900052088316B900831251088316B8007A08D7
:101CA000BF007908BE007808BD007708BC008A1123
:101CB0008312D8228A157A08E4007908E3007808AC
:101CC000E2007708E1004A08E8004908E700480810
:101CD000E6004708E500EC01EB01EA018030E9008D
:101CE000192458088316BB00831257088316BA00BC
:101CF000831256088316B900831255088316B8005C
:101D00007A08BF007908BE007808BD007708BC00DB
:101D10008A118312D8228A15E6010408E5006610AC
:101D2000831B6614831464088316BF008312630840
:101D30008316BE00831262088316BD0083126108F9
:101D40008316BC007A08C3007908C2007808C10075
:101D50007708C0008A1183124F238A156508840012
:101D60008313661883177A08E4007908E30078087B
:101D7000E2007708E1005C088316BB0083125B0871
:101D80008316BA0083125A088316B90083125908C1
:101D90008316B80083124A088316BF0083124908CD
:101DA0008316BE00831248088316BD0083124708BD
:101DB0008316BC008A118312D8228A15E801040810
:101DC000E7006810831B6814831064088316BF0043
:101DD000831263088316BE00831262088316BD0057
:101DE000831261088316BC007A08C3007908C20018
:101DF0007808C1007708C0008A1183124F238A1522
:101E0000670884008313681883177A08E400790848
:101E1000E3007808E2007708E100EA010408E9003D
:101E20006A10831B6A1483147A088316BF00831216
:101E300079088316BE00831278088316BD008312CA
:101E400077088316BC00831260088316C3008312D0
:101E50005F088316C20083125E088316C1008312D6
:101E60005D088316C0008A1183124F238A15690802
:101E7000840083136A1883177A08CE007908CD008E
:101E80007808CC007708CB004E088316BB0083127D
:101E90004D088316BA0083124C088316B9008312CA
:101EA0004B088316B8008A118312B7228A15790865
:101EB000D0007808CF004F08F8005008F9008A11C8
:101EC0000A16622ACD010408CC004D10831B4D1464
:101ED000460EF038C800C807E23EC900323ECB00CB
:101EE00046080F39C907C907CB07E93ECA00CA0728
:101EF000CA07450E0F39CA07CB07CA0DCB0DCB0950
:101F0000CB0D45080F39CB07C80D0730C7000A3085
:101F1000CB07CA03031C882FCA07C903031C8C2FD5
:101F2000C907C803031C902FC807C703031C942FBD
:101F300047308400831307304C054C1384074B3023
:101F4000040203194C170008F700031DAF2F4C1BA8
:101F5000AF2F4C1AB72FCC19AF2F2030B22FCC1582
:101F60004C123030F70777080C1EB42F9900840A02
:101F70004C1F9F2F0800A81AC52F281EC52FA81672
:101F80000130E7028A11EA278A156708F80008007D
:101F9000A81BD22F281FD22FA8170130E7078A11BC
:101FA000EA278A156708F80008008316111411182B
:101FB000D72FB4308312ED008A11DA278A15083042
:101FC000ED008A11DA278A156708ED008A11DA27F1
:101FD0008A15ED018A11DA278A1583161115111950
:101FE000EF2F83120800A818FD2F281CFD2FA8141E
:101FF0000130E8078A11EA278A156808F800080006
:102000008316111411180228B4308312ED000A123D
:10201000DA270A160530ED000A12DA270A16EB0154
:102020006B086907840083136A18831780080319F3
:1020300027286B086907840083136A188317000830
:10204000EC00ED000A12DA270A16EB0A1028ED015F
:102050000A12DA270A168316111511192D28831270
:1020600008008316111411183328B4308312ED00C0
:102070000A12DA270A160230ED000A12DA270A16C7
:102080004608FA01C700ED000A12DA270A164508C9
:10209000F700FA014508C700ED000A12DA270A1610
:1020A000ED010A12DA270A1683161115111956289E
:1020B0008312080000302A180130E700E8000A12F5
:1020C0008A15F3270A168A112A1078182A14003064
:1020D0002A180130003A0319B4282C08E8002B080C
:1020E000E7006708F8006808F9007908AE0078088A
:1020F000AD002A100130E7000A128A15D5270A160A
:102100008A11F8011130F7004530840083137808F4
:102110000A1250200A168000F80A840AF70B872852
:10212000EA014530E90000201130E7000A128A1563
:10213000D5270A168A11F8010A30F70045308400C5
:10214000831378080A1265200A168000F80A840AA8
:10215000F70BA128EA014530E9000020C830E7006C
:102160000A1277210A16FA282908E7000A128A15A6
:10217000BB270A168A117808A9002908E7000A1265
:102180008A15C8270A168A117808A9000130E700C5
:102190000A128A15D5270A168A11F8011130F7009C
:1021A00056308400831378080A1250200A168000E3
:1021B000F80A840AF70BD328EA015630E900002018
:1021C0001130E7000A128A15D5270A168A11F8017C
:1021D0001130F70056308400831378080A127320F8
:1021E0000A168000F80A840AF70BED28EA01563037
:1021F000E90000208A110A16242D00302A18013027
:10220000E500E8000A128A15F3270A168A112A1037
:1022100078182A1400302A180130003A031953297B
:102220000D30F8000230F9007908AE007808AD00F2
:102230002A100130E7000A128A15D5270A168A11DA
:10224000F8011030F70045308400831378080A1233
:1022500088200A168000F80A840AF70B2629EA016A
:102260004530E90000201230E7000A128A15D52710
:102270000A168A11F8010730F700453084008313ED
:1022800078080A129C200A168000F80A840AF70BC4
:102290004029EA014530E9000020C830E7000A1271
:1022A00077210A1699292908E7000A128A15BB27FF
:1022B0000A168A117808A9002908E7000A128A1567
:1022C000C8270A168A117808A9000130E7000A1207
:1022D0008A15D5270A168A11F8011030F7005530F3
:1022E0008400831378080A1288200A168000F80AEE
:1022F000840AF70B7229EA015530E90000201230F8
:10230000E7000A128A15D5270A168A11F8010E303D
:10231000F70055308400831378080A12A7200A16A4
:102320008000F80A840AF70B8C29EA015530E9008D
:1023300000208A110A16292D8316031787150830E5
:102340000313990002309A00A6309800903083124F
:102350009800FF30A700A71527088316870083126F
:1023600027162708831687003130930029308312FF
:102370009400831694171413FF30930028308312AF
:1023800094002810A8142811A8152812A81628139C
:10239000A8170130A9002A100230AE000D30AD00A0
:1023A000831603170908C039890003131F129F12EF
:1023B0000030031788008312870188018901031305
:1023C0008B158316961583128B158316161583129B
:1023D0008B158316961483128B1583161616C03030
:1023E00083128B04831603170908C039890003136D
:1023F0001F129F12023003178800831203131F1746
:102400009F1783169F1783121F14083003178D0020
:1024100001308F000A12031328290A160430F8002D
:102420001F08C33978049F00A630F700F70B162A5F
:1024300000009F149F181A2A83161E088312AB00EF
:102440001E08AC006430E7000A1277210A162E0835
:10245000013C0318422AFF3A031D322A2D080D3C85
:102460000318422A0D302D02F7002E08FA00023020
:10247000031C0330FA027708AB027A08031C7A0FB8
:10248000AC025B2A2E08023C031C5B2A031D4C2A6B
:102490002D080C3C031C5B2A2D080D3CF700023074
:1024A000FA002E08031C2E0FFA027708AB077A08F1
:1024B00003187A0FAC072C08C6002B08C5000A12B7
:1024C0008A15FE2D0A168A117908B4007808B3001F
:1024D00034088316BD00831233088316BC000A1229
:1024E00083128B210A161F308316BB008530BA0079
:1024F0006B30B9007C30B8007A08BF007908BE00A4
:102500007808BD007708BC000A128312D8220A1688
:102510007A08B2007908B1007808B0007708AF00F7
:1025200032088316BB00831231088316BA00831267
:1025300030088316B90083122F088316B8000A12D8
:102540008312B7220A167908B6007808B5000E3053
:1025500003178D0001308F0003100F300313C500E7
:102560000A126D270A16103084002C08C6002B08AA
:10257000C5000A128A1562270A168A110D300C1E30
:10258000BF2A99000A300C1EC32A9900193003177C
:102590008D0001308F00031009300313C5000A12AB
:1025A0006D270A16103084003408C6003308C500B1
:1025B0000A128A1562270A168A110D300C1EDE2AAD
:1025C00099000A300C1EE22A9900213003178D0071
:1025D00001308F00031008300313C5000A126D2765
:1025E0000A16103084003608C6003508C5000A12E5
:1025F0008A1562270A168A110D300C1EFD2A9900D1
:102600000A300C1E012B99002908053C0318122BD7
:102610002908C5000630C6000A12C32F0A1677081B
:10262000A900292DA908031D182B0130A900292D67
:10263000290B1B2C2908E7000A128A15BB270A164A
:102640008A117808A9002908E7000A128A15C82704
:102650000A168A117808A9000130E7000A128A15C3
:10266000D5270A168A11F8010730F70037308400A1
:10267000831378080A122F200A168000F80A840AA9
:10268000F70B392BEA013730E90000200730E7006B
:102690000A128A15D5270A168A11F8010730F700A1
:1026A00037308400831378080A123A200A16800013
:1026B000F80A840AF70B532BEA013730E9000020AF
:1026C0000D30E7000A128A15D5270A168A115730ED
:1026D000B7004130B8005430B900BA00BB01EA017C
:1026E0003730E90000202C08033C031C8A2B031D13
:1026F0007D2B2B08E73C031C8A2B1230E7000A12C3
:102700008A15D5270A168A112C08C6002B08C50081
:102710003120962B1130E7000A128A15D5270A16A8
:102720008A112C08C6002B08C50031203408033C50
:10273000031CBE2B031DA02B3308E73C031CBE2B40
:102740001530E7000A128A15D5270A168A1120309B
:10275000B700B800B900BA00BB01EA013730E900A0
:1027600000201930E7000A128A15D5270A168A11A7
:102770003408C6003308C5003120DA2B1530E700D5
:102780000A128A15D5270A168A112030B700B80018
:10279000B900BA01EA013730E90000201830E7003B
:1027A0000A128A15D5270A168A113408C60033087A
:1027B000C50031203608033C031C002C031DE42B0C
:1027C0003508E73C031C002C1C30E7000A128A1570
:1027D000D5270A168A112030B700B800B901EA01DE
:1027E0003730E90000201E30E7000A128A15D5278D
:1027F0000A168A113608C6003508C50031201A2C81
:102800001C30E7000A128A15D5270A168A112030D3
:10281000B700B801EA013730E90000201D30E700B9
:102820000A128A15D5270A168A113608C6003508F5
:10283000C5003120292D2908023C031D082D290837
:10284000E7000A128A15BB270A168A117808A90020
:102850002908E7000A128A15C8270A168A1178087B
:10286000A9000130E7000A128A15D5270A168A1135
:10287000F8010730F7003E308400831378080A120D
:1028800045200A168000F80A840AF70B3E2CEA015C
:102890003E30E90000200730E7000A128A15D527EC
:1028A0000A168A11F8010730F7003E3084008313BE
:1028B00078080A123A200A168000F80A840AF70BF0
:1028C000582CEA013E30E90000200D30E7000A12E2
:1028D0008A15D5270A168A115730BE004130BF002D
:1028E0005430C000C100C201EA013E30E9000020BE
:1028F0001230E7000A128A15D5270A168A11C60176
:10290000E630C50031203408033C031CAB2C031D0A
:102910008D2C3308E73C031CAB2C1530E7000A1262
:102920008A15D5270A168A112030BE00BF00C000C4
:10293000C100C201EA013E30E90000201930E70081
:102940000A128A15D5270A168A113408C6003308D8
:10295000C5003120C72C1530E7000A128A15D5278B
:102960000A168A112030BE00BF00C000C101EA0172
:102970003E30E90000201830E7000A128A15D527FA
:102980000A168A113408C6003308C50031203608FB
:10299000033C031CED2C031DD12C3508E73C031C24
:1029A000ED2C1C30E7000A128A15D5270A168A1169
:1029B0002030BE00BF00C001EA013E30E900002027
:1029C0001E30E7000A128A15D5270A168A11360822
:1029D000C6003508C5003120072D1C30E7000A125B
:1029E0008A15D5270A168A112030BE00BF01EA01D8
:1029F0003E30E90000201D30E7000A128A15D52775
:102A00000A168A113608C6003508C5003120292D5E
:102A10002908033C031D1F2D2908E7000A128A1507
:102A2000BB270A168A117808A9002908E7000A12AC
:102A30008A15C8270A168A117808A900292D29089D
:102A4000043C031D252D5A28292D2908053C03196E
:062A5000FD28192A6300B5
:04400E00C22FFF3F7F
:00000001FF
;PIC16F886
;CRC=6628  CREATED="02-¡.¾.-14 23:46"
