:1000000013308A00A62B0000FF00030E8301A1001D
:100010000A08A0008A010408A2007708A300780853
:10002000A4007908A5007A08A600831383128B1D0B
:100030001B280B1832288C308400001C21280C1837
:100040003528220884002308F7002408F800250832
:10005000F9002608FA0020088A00210E8300FF0E0E
:100060007F0E09008A110A12F5288A110A12442902
:100070000A108A100A118207573465346C346334CD
:100080006F346D34653400340A108A100A11820707
:10009000533445344E3453344F34523400340A1000
:1000A0008A100A1182074F344634463420343134E2
:1000B00030342034733400340A108A100A11820755
:1000C00050344F3457344534523420344F3446344E
:1000D000463400340A108A100A11820743346C3403
:1000E00065346134723420344F344B3400340A1098
:1000F0008A100A118207523445345334453454343B
:10010000203455346E346934743426344D346F34AD
:100110006E346534793400340A108A100A1182076B
:10012000203420342034433441344C344934423474
:100130005234413454344534203420342034203473
:1001400000340A108A100A118207203420344F34F8
:100150004B342034213421342134203400340A102B
:100160008A100A11820720342034543468346934E8
:100170007334203454346F346F346C34203421346D
:1001800021342134203400340A108A100A118207E5
:100190005234453453344534543420344334413498
:1001A0004C344934423452344134543445340034AC
:1001B0000A108A100A1182074F344B34203421343C
:1001C0002134213400340A108A100A118207543471
:1001D000683469347334203454346F346F346C347D
:1001E00020342134213421340034831686158312BF
:1001F0008619FE28A818FE2828144029831686157B
:100200008312861D0829A81C08292810A810402937
:1002100083160615831206191129A8191129281504
:100220004029831606158312061D1B29A81D1B29AC
:100230002811A811402983168614831286182429B0
:10024000A81A242928164029831686148312861C8E
:100250002E29A81E2E292812A81240298316061618
:100260008312061A3729A81B372928174029831615
:1002700006168312061E4029A81F40292813A8131A
:100280000B108A110A1221280B308F00DC308E00EF
:100290000130B1073108313C03185029B101AA14CB
:1002A000AA1D87290130C0070318C10A3F08031798
:1002B000B20003133E080317B100B4010A30B300C3
:1002C0001030B500F701FA01B20CB10C031C6E2915
:1002D0003308F7070318FA0A3408FA07FA0CF70C80
:1002E000F90CF80CB50B64297908FA007A080313A5
:1002F0004102031C8729031D812940087802031845
:1003000087292A11C101C001BF01BE01AA110C1029
:100310008A110A1221288E30F70083165508F8003A
:100320005408F900FA01F808031DA0297908F8001B
:10033000F9010830F702F808031DA029F701A829E0
:100340000310F81BA729F90DF80DF703A029F813DE
:1003500083120800B1308400831300080319BD29FB
:100360000630F800F701F70BB329F80BB2297B3000
:10037000F700F70BB929800BB029080094138C11F2
:1003800083163708831293000230941BCE298C1DEC
:10039000C72900308316111B01308312F8000800B2
:1003A000831611141118D229B430B7008312BE215C
:1003B00006308316B7008312BE218316111511195A
:1003C000DF2983120800A818F229281CF229A81492
:1003D00001308316B2078312D021A630F700F70B45
:1003E000EF29000083163208F800831208008316F4
:1003F00011141118F929B430B7008312BE21083046
:100400008316B7008312BE2183163108B70083120A
:10041000BE218316B7018312BE218316111511194F
:100420000F2A83120800831611141118152AB430EC
:10043000B7008312BE2105308316B7008312BE2198
:100440008316B501350833078400831334188317E6
:1004500080080319392A35083307840083133418B8
:1004600083170008B600B7008312BE218316B50AB1
:10047000222AB7018312BE218316111511193E2AB3
:100480008312080083165108D8005508D806D81FD3
:100490004E2A03110310D11B0314812A5108D800DE
:1004A0005408D9005008D90203195C2AD81F812AA0
:1004B0000308013A8300812A5508D9005108D9025E
:1004C0000319682AD81F812A0308013A8300812A68
:1004D0005608D9005208D9020319742AD81F812A54
:1004E0000308013A8300812A5708D9005308D9022A
:1004F0000319802AD81F812A0308013A8300812A20
:10050000031083120800831649080319492BD500EC
:100510004D080319492BD502031C932A7F30D507B8
:100520000318492B992A8130D502031C492B031942
:10053000492B5508F700F801F901FA01D4014A08DE
:10054000D300D3174B08D2004C08D1001930D50086
:100550005008D1020318BC2A0130D2020318BC2A69
:10056000D3020318BC2AD4020318BC2AD40AD30A23
:10057000D20A5008D107EE2A4F08D2020318D72A10
:100580000130D3020318D72AD4020318D72AD40A79
:10059000D30A4F08D2075008D107031CEE2AD20A0B
:1005A000031DEE2AD30A031DEE2AD40AEE2A4E08B2
:1005B0008038D3020318ED2A0130D4020318ED2A43
:1005C000D40A4E088038D3074F08D207031CCB2A21
:1005D000D30A031DCB2AD40ACB2A7A14D50BF12ACD
:1005E000FC2A0310D10DD20DD30DD40D0310FA0D3A
:1005F000F90DF80DD60DA82A561C042B0310F80C83
:10060000F90CFA0CD60C072BF7030319492BD61B50
:10061000302B0310D10DD20DD30DD40D5008D102C3
:1006200003181C2B0130D20203181C2BD302031811
:100630001C2BD402031C3F2B4F08D2020318272B7C
:100640000130D3020318272BD402031C3F2B4E0882
:100650008038D3020318302B0130D402031C3F2B07
:10066000FA0A031D3F2BF90A031D3F2BF80A031D4D
:100670003F2BF70A0319492BF80CF90CFA0C4A081E
:10068000D5004E08D506D51F472BF8174D2BF8136C
:100690004D2BF701F801F901FA01831208008E30A1
:1006A000F70083165008F7025108F9005208F800C5
:1006B000F917F7080319672B0310F908031D632BBB
:1006C000F8080319672BF90CF80CF70B5C2BD11FFA
:1006D0006E2BF809F909F80A0319F90A83120800C0
:1006E000831650080319E12BD80054080319E12B95
:1006F000D8070318822B7F30D802031CE12B031983
:10070000E12B862B8130D8070318E12B5808F7001E
:10071000F801F901FA015108DC00DC175208DB008E
:100720005308DA001830D800D9015A1CAF2B5708EB
:10073000FA07031CA12BF90A031DA12BF80A0319C0
:10074000D9175608F907031CA82BF80A0319D9175B
:100750005508D200D2175208F8070318D917D90D37
:10076000F80CF90CFA0CDC0CDB0CDA0C0310D80BCF
:10077000942B0130F7070318E12BF81BC62BDC0D77
:10078000FA0DF90DF80DF7030319E12BDC1FD72B38
:10079000FA0A031DD72BF90A031DD72BF80A031DEC
:1007A000D72BF80CF90CFA0CF70A0319E12B5108B6
:1007B000D9005508D906D91FDF2BF817E52BF813F8
:1007C000E52BF701F801F901FA01831208008030E6
:1007D000831CED2B8316D90683128316DE01DF01FD
:1007E0005508DD005908DD0654080319DB2CDC0030
:1007F000F70058080319E42CDC020319802C031CB1
:100800003E2C5908E200E2175A08E1005B08E000BC
:10081000DF010310E20CE10CE00CDF0CDC0B082C18
:10082000DD1F152C5E14F82C5E105C105E16D730A0
:10083000840083130D2D5E12DD1B282C5C1C332CD1
:10084000E20CE10CE00CDF0CF70A0319F32C332C5B
:10085000E21B362C0310DF0DE00DE10DE20DF70376
:100860000319F32C282C5E17A02C5E135508DD000D
:10087000DD1F3C2CE217EC2CE213EC2C5808DC00BA
:10088000F7005408DC025508E200E2175608E100C0
:100890005708E000DF010310E20CE10CE00CDF0C74
:1008A000DC0B4A2CDD1F572CDE14F82CDE105C10FC
:1008B000DE16DB30840083130D2DDE12DD1B6A2C67
:1008C0005C1C752CE20CE10CE00CDF0CF70A031940
:1008D000F32C752CE21B782C0310DF0DE00DE10DDD
:1008E000E20DF7030319F32C6A2CDE17A02CDE139C
:1008F0005908DD00DD1F7E2CE217EC2CE213EC2CF6
:100900005908E200E2175A08E1005B08E000DD1F29
:100910008D2CE2135E15F82C5E11DF015C10D730D0
:10092000840083130D2DDD1BB62C5508DD005C1CE7
:10093000A02CE20CE10CE00CDF0CF70A0319F32CFD
:10094000DF1FB12CE00A031DB12CE10A031DB12CFD
:10095000E20A031DB12CE20CE10CE00CF70A0319CA
:10096000F32C5E1B352CDE1B772CD52C8030E20659
:10097000E21FBE2CF82C5908DD00CB2C5508DD00F9
:10098000E208031DCB2CE108031DCB2CE008031D5E
:10099000CB2CF701EC2CE21BD52C0310DF0DE00D66
:1009A000E10DE20DF70BCB2CF32CDD1FD92CE21758
:1009B000EC2CE213EC2C5808F7005908E2005A0816
:1009C000E1005B08E000EC2C5408F7005508E20059
:1009D0005608E1005708E0006208F8006108F900D5
:1009E0006008FA002B2DF701F801F901FA012B2D0F
:1009F000DF01E009E109E209DF09DF0A031D062D35
:100A0000E00A031D062DE10A0319E20A5E18142C00
:100A1000DE18562C5E198C2CBB2C0008E007031C3A
:100A2000172DE10A031D172DE20A03195C14840334
:100A30000008E107031C1F2DE20A03195C1484035C
:100A40000008801F803AE20703185C145E1A1B2C12
:100A5000DE1A5D2C932C8312080083164F10430876
:100A6000C8004208C7004108C6004008C500430846
:100A7000D3004208D2004108D1004008D000D7017D
:100A8000D601D501D40183124222031C4D2D8316B9
:100A90004F144608803AC600831283164808D300D4
:100AA0004708D2004608D1004508D000D701D6013A
:100AB000D5018E30D400831242220318612D031D0C
:100AC0007E2D83164808D3004708D2004608D1007F
:100AD0004508D00083124F2379088316D500780883
:100AE000D40083128B217A088316CC007908CB00BE
:100AF0007808CA007708C900562E83128316480862
:100B0000D3004708D2004608D1004508D000803005
:100B1000D7009630D6001830D5009630D400831216
:100B20004222031C4D2E83164808D3004708D200EA
:100B30004608D1004508D000D701D601D501703054
:100B4000D400831270237A088316D3007908D20068
:100B50007808D1007708D00083124F2379088316D4
:100B6000CE007808CD004808D3004708D2004608D8
:100B7000D1004508D000D701D601D5017030D4008E
:100B8000831270237A088316D3007908D20078087C
:100B9000D1007708D0004E08D5004D08D40083124C
:100BA0008B21831483165308D7005208D6005108AE
:100BB000D5005008D4007A08DB007908DA007808FC
:100BC000D9007708D8008312E7238316D301D20116
:100BD000D1018E30D0007A08D7007908D600780885
:100BE000D5007708D400831270237A088316C800D2
:100BF0007908C7007808C6007708C5004E08D500F8
:100C00004D08D40083128B218316D301D201D10168
:100C10008E30D0007A08D7007908D6007808D50041
:100C20007708D400831270237A088316CC007908E1
:100C3000CB007808CA007708C9004808D3004708E5
:100C4000D2004608D1004508D00083124F2379080E
:100C50008316D5007808D40083128B218310831665
:100C60004C08D7004B08D6004A08D5004908D400E4
:100C70007A08DB007908DA007808D9007708D8000C
:100C80008312E7237A088316CC007908CB00780812
:100C9000CA007708C900562E831283164808CC0074
:100CA0004708CB004608CA004508C9004808D300D9
:100CB0004708D2004608D1004508D00083124F23D0
:100CC00079088316D5007808D40083128B21831409
:100CD00083164808D7004708D6004608D5004508BF
:100CE000D4007A08DB007908DA007808D9007708A0
:100CF000D8008312E7237A088316C8007908C70052
:100D00007808C6007708C5004F1C892E4A08803A2B
:100D1000CA004808D3004708D2004608D100450859
:100D2000D000D701D601D501D40183124222031984
:100D3000D62E83164F1CB82EC408031DB82E83145C
:100D40004C08D7004B08D6004A08D5004908D40003
:100D5000DB01DA01D9017F30D8008312E7237A085A
:100D60008316CC007908CB007808CA007708C90040
:100D70004F18D52E440BD52E83104C08D7004B08A6
:100D8000D6004A08D5004908D400DB01DA01D901B0
:100D90007F30D8008312E7237A088316CC007908C5
:100DA000CB007808CA007708C9008312831643086D
:100DB000D3004208D2004108D1004008D000D7013A
:100DC000D601D501D40183124222031DED2E8316D4
:100DD000CC01CB01CA01C901831283164908F7006F
:100DE0004A08F8004B08F9004C08FA008312080082
:100DF00083163308D3003208D2003108D1003008FE
:100E0000D000D701D601D501D401831242220319A3
:100E1000C52F83162F08CC002E08CB002D08CA0042
:100E20002C08C9003308D0003208CF003108CE00AA
:100E30003008CD00831283227A088316BB0079081C
:100E4000BA007808B9007708B8003B08D3003A0820
:100E5000D2003908D1003808D000D701D601D50119
:100E6000D40183124222031C662F83162F08CC0064
:100E70002E08CB002D08CA002C08C9003308D0006A
:100E80003208CF003108CE003008CD008312832213
:100E90007A088316BB007908BA007808B900770889
:100EA000B8003B08BF003A08BE003908BD0038084A
:100EB000BC003F08C3003E08C2003D08C1003C081A
:100EC000C0000130C40083122D25952F83162F08F2
:100ED000CC002E08CB002D08CA002C08C90033080E
:100EE000D0003208CF003108CE003008CD00831288
:100EF00083227A088316BB007908BA007808B90003
:100F00007708B8003B08BF003A08BE003908BD00AA
:100F10003808BC003F08C3003E08C2003D08C100BD
:100F20003C08C000C40183122D257A088316B7003F
:100F30007908B6007808B5007708B4003708D30000
:100F40003608D2003508D1003408D0003308D70065
:100F50003208D6003108D5003008D400831270233F
:100F6000831483162F08D7002E08D6002D08D5002D
:100F70002C08D4007A08DB007908DA007808D90058
:100F80007708D8008312E723C52F08008E30F700BA
:100F900083164708F8004608F900FA01C71FD52F45
:100FA000F809F909F90A0319F80AF808031DE22FEC
:100FB0007908F800F9010830F702F808031DE22F5C
:100FC000F701EB2F0310F81BE92FF90DF80DF703CC
:0A0FD000E22FC71FF8138312080078
:1010000083163308B7003208B6003108B50030083F
:10101000B4003708D3003608D2003508D1003408B0
:10102000D000D701D601D5017F30D4008A118312B8
:1010300042228A150319DD298316C601B430C50082
:10104000450884008313461883177E30800083147C
:101050003708D7003608D6003508D5003408D40044
:10106000DB01DA01D9017F30D8008A118312E7232E
:101070008A157A088316C8007908C7007808C60060
:101080007708C50083103708D7003608D600350822
:10109000D5003408D400DB01DA01D9017F30D80053
:1010A0008A118312E7238A1583164808CC00470863
:1010B000CB004608CA004508C9007A08D000790864
:1010C000CF007808CE007708CD008A1183128322E2
:1010D0008A157A088316B7007908B6007808B50033
:1010E0007708B4003708D3003608D2003508D1009D
:1010F0003408D0003708D7003608D6003508D500A8
:101100003408D4008A11831270238A157A08831652
:10111000C3007908C2007808C1007708C000993080
:10112000D3004730D2008A30D1007F30D00043084E
:10113000D7004208D6004108D5004008D4008A11E3
:10114000831270238A157A088316C8007908C700AD
:101150007808C6007708C50083104808D7004708FC
:10116000D6004608D5004508D400DB01DA01D901D4
:101170008030D8008A118312E7238A157A088316F3
:10118000BB007908BA007808B9007708B8004C307D
:10119000D300F330D2003A30D1007B30D000430886
:1011A000D7004208D6004108D5004008D4008A1173
:1011B000831270238A157A088316C8007908C7003D
:1011C0007808C6007708C50083104808D70047088C
:1011D000D6004608D5004508D4002B30DB009D30F2
:1011E000DA00DF30D9007E30D8008A118312E7237D
:1011F0008A157A088316BF007908BE007808BD00FA
:101200007708BC003F08D3003E08D2003D08D1005B
:101210003C08D0004308D7004208D6004108D5005A
:101220004008D4008A11831270238A157A08831625
:10123000C8007908C7007808C6007708C500831081
:101240004808D7004708D6004608D5004508D4000E
:10125000DB01DA01D9017F30D8008A118312E7233C
:101260008A157A088316BF007908BE007808BD0089
:101270007708BC003708D3003608D2003508D10003
:101280003408D0003B08D7003A08D6003908D5000A
:101290003808D4008A11831270238A157A088316BD
:1012A000C8007908C7007808C6007708C500480854
:1012B000CC004708CB004608CA004508C9003F08D3
:1012C000D0003E08CF003D08CE003C08CD008A117A
:1012D000831283228A157A088316BB007908BA0024
:1012E0007808B9007708B800C601B030C5004508D5
:1012F00084008313461883177E300002C400C41F85
:1013000096294408003CC701C600C61BC7038A11C2
:101310008312C6278A1577088316BC007808803A9E
:10132000BD007908BE007A08BF00A829C70144089B
:10133000C600C61BC7038A118312C6278A157A08FE
:101340008316BF007908BE007808BD007708BC008E
:101350003F08D3003E08D2003D08D1003C08D00031
:101360001830D7007230D6003130D5007E30D4002E
:101370008A11831270238A15831083163B08D700C5
:101380003A08D6003908D5003808D4007A08DB00BE
:101390007908DA007808D9007708D8008A11831212
:1013A000E7238A157A088316BB007908BA00780803
:1013B000B9007708B800E22983128316BB01BA018D
:1013C000B901B8013808F7003908F8003A08F900FF
:1013D0003B08FA008312080083163308D300320852
:1013E000D2003108D1003008D0003B30D700AA30FD
:1013F000D6003830D5007F30D4008A118312702394
:101400008A157A088316D3007908D2007808D100AB
:101410007708D0008A1183124F238A157808831623
:10142000C00041103308B7003208B6003108B500DB
:101430003008B4003308D3003208D2003108D1009C
:101440003008D000D701D601D501D4018A1183120A
:1014500042228A15031C342A83164114C009C00A8B
:101460003508803AB50083128316BB01BA01B90171
:10147000B801C301B830C200420884008313431886
:1014800083177F30400780003708D3003608D2002A
:101490003508D1003408D0003B30D700AA30D60040
:1014A0003830D5007F30D4008A11831270238A151A
:1014B0007A088316C5007908C4007808C300770845
:1014C000C200C7014008C600C61BC7038A118312A9
:1014D000C6278A15831483164508D7004408D6000A
:1014E0004308D5004208D4007A08DB007908DA0006
:1014F0007808D9007708D8008A118312E7238A1563
:101500007A088316B7007908B6007808B50077081E
:10151000B4007C30D3008830D2005930D100723012
:10152000D0003708D7003608D6003508D500340873
:10153000D4008A11831270238A157A088316C50095
:101540007908C4007808C3007708C20083104508F2
:10155000D7004408D6004308D5004208D400E03044
:10156000DB009730DA002630D9007530D8008A11B8
:101570008312E7238A157A088316BF007908BE0014
:101580007808BD007708BC003F08D3003E08D200B1
:101590003D08D1003C08D0003708D7003608D600F7
:1015A0003508D5003408D4008A11831270238A15B7
:1015B0007A088316C5007908C4007808C300770844
:1015C000C20083104508D7004408D6004308D50060
:1015D0004208D400C430DB001D30DA001E30D900D0
:1015E0007830D8008A118312E7238A157A08831687
:1015F000BF007908BE007808BD007708BC003F082E
:10160000D3003E08D2003D08D1003C08D000370886
:10161000D7003608D6003508D5003408D4008A1122
:10162000831270238A157A088316C5007908C400CE
:101630007808C3007708C20083104508D700440823
:10164000D6004308D5004208D4005E30DB0050309D
:10165000DA006330D9007A30D8008A118312E72388
:101660008A157A088316BF007908BE007808BD0085
:101670007708BC003F08D3003E08D2003D08D100E7
:101680003C08D0003708D7003608D6003508D5000A
:101690003408D4008A11831270238A157A088316BD
:1016A000C5007908C4007808C3007708C200831019
:1016B0004508D7004408D6004308D5004208D400A6
:1016C0001A30DB00FE30DA007530D9007C30D800EB
:1016D0008A118312E7238A157A088316BF007908D6
:1016E000BE007808BD007708BC003F08D3003E0864
:1016F000D2003D08D1003C08D0003708D70036089A
:10170000D6003508D5003408D4008A11831270231E
:101710008A157A088316C5007908C4007808C300C2
:101720007708C20083104508D7004408D600430854
:10173000D5004208D4001830DB007230DA003130B6
:10174000D9007E30D8008A118312E7238A157A08DF
:101750008316BF007908BE007808BD007708BC007A
:101760003708D3003608D2003508D1003408D0003D
:101770003F08D7003E08D6003D08D5003C08D400FD
:101780008A11831270238A1583108316D701D6011C
:10179000D5017F30D4007A08DB007908DA007808B8
:1017A000D9007708D8008A118312E7238A15831697
:1017B0003B08D3003A08D2003908D1003808D000DD
:1017C0007A08D7007908D6007808D5007708D400C1
:1017D0008A11831270238A157A088316BB00790850
:1017E000BA007808B9007708B800411C112CCC0168
:1017F000CB01CA017F30C9003B08D0003A08CF00B6
:101800003908CE003808CD008A11831283228A1548
:101810007A088316BB007908BA007808B9007708FF
:10182000B8003808F7003908F8003A08F9003B0812
:10183000FA008312080083162708D3002608D20076
:101840002508D1002408D000D701D601D501D40144
:101850008A11831242228A15031C142D83162B0829
:10186000AF002A08AE002908AD002808AC00B3017B
:10187000B201B1017F30B0008A118312F8268A15B7
:101880007A088316AF007908AE007808AD007708B3
:10189000AC002F08D3002E08D2002D08D1002C0850
:1018A000D000D701D601D501D4018A11831242227A
:1018B0008A15031D142D83162B08AF002A08AE00CD
:1018C0002908AD002808AC00B301B201B101803095
:1018D000B0008A118312F8268A157A088316AF00A1
:1018E0007908AE007808AD007708AC002F08D30067
:1018F0002E08D2002D08D1002C08D000D701D60127
:10190000D501D4018A11831242228A15031DCD2CE0
:1019100083162408AC002508803AAD002608AE00E6
:101920002708AF00B3002E08B2002D08B1002C0824
:10193000B000831200207A088316AF007908AE0049
:101940007808AD007708AC002F08D3002E08D2002D
:101950002D08D1002C08D0002B08D7002A08D6006B
:101960002908D5002808D4008A11831270238A150B
:101970007A088316AF007908AE007808AD007708C2
:10198000AC002F08B3002E08B2002D08B1002C08BF
:10199000B0008312EC21BD2D132D83162408AC005A
:1019A0002508803AAD002608AE002708AF00B30036
:1019B0002E08B2002D08B1002C08B00083120020C0
:1019C0007A088316AF007908AE007808AD00770872
:1019D000AC002F08D3002E08D2002D08D1002C080F
:1019E000D0002B08D7002A08D6002908D5002808DF
:1019F000D4008A11831270238A157A088316AF00E7
:101A00007908AE007808AD007708AC002F08B30065
:101A10002E08B2002D08B1002C08B0008312EC2172
:101A20008030F806BD2DBD2D83162708D30026086B
:101A3000D2002508D1002408D000D701D601D50155
:101A4000D4018A11831242228A15031C5A2D83164F
:101A50002B08AF002A08AE002908AD002808AC000A
:101A6000B301B201B1017F30B0008A118312F826B0
:101A70008A157A088316AF007908AE007808AD00A1
:101A80007708AC002F08D3002E08D2002D08D10013
:101A90002C08D000D701D601D501D4018A118312B8
:101AA00042228A1503195A2DF701F801F901FA01AA
:101AB000BD2DBD2D83162708D3002608D20025088A
:101AC000D1002408D000D701D601D501D4018A1154
:101AD000831242228A15031D822D83162B08D30000
:101AE0002A08D2002908D1002808D000D701D60141
:101AF000D501D4018A11831242228A150318822D3E
:101B0000031DBD2D83162708B3002608B200250843
:101B1000B1002408B000831200207A088316AF00B9
:101B20007908AE007808AD007708AC002F08D30024
:101B30002E08D2002D08D1002C08D0002B08D70089
:101B40002A08D6002908D5002808D4008A11831253
:101B500070238A157A088316AF007908AE007808DA
:101B6000AD007708AC002F08B3002E08B2002D0896
:101B7000B1002C08B0008312EC210800FA30ED000F
:101B8000A230EC004830EB007130EA00AC30F100DC
:101B90001930F0003930EF007C30EE001030F500E5
:101BA0009830F4006A30F3008530F2009A30FE007D
:101BB000F830FD004730FC008D30FB005F088316D5
:101BC000D50083125E088316D4008A1183128B21FC
:101BD0008A157A08E3007908E2007808E1007708BE
:101BE000E00063088316A700831262088316A6002C
:101BF000831261088316A500831260088316A4006F
:101C0000AB01AA014030A9008030A80083121B2438
:101C10006D088316D30083126C088316D2008312DA
:101C20006B088316D10083126A088316D0007A08E5
:101C3000D7007908D6007808D5007708D4008A1133
:101C4000831270238A157A088316A3007908A200EC
:101C50007808A1007708A000831263088316A70004
:101C6000831262088316A600831261088316A500FA
:101C7000831260088316A400AB01AA01A901803079
:101C8000A80083121B2471088316D3007008D200A9
:101C900083126F088316D10083126E088316D0005A
:101CA0007A08D7007908D6007808D5007708D400DC
:101CB0008A11831270238A158316A5010408A400D3
:101CC0002510831B251483142308D7002208D6006F
:101CD0002108D5002008D4007A08DB007908DA0052
:101CE0007808D9007708D8008A118312E7238A156B
:101CF0008316240884008313251883177A08A30009
:101D00007908A2007808A1007708A0007508D30020
:101D10007408D2007308D1007208D00083126308DF
:101D20008316D700831262088316D60083126108D7
:101D30008316D500831260088316D4008A1183129B
:101D400070238A158316A7010408A6002710831B99
:101D5000271483102308D7002208D6002108D500B5
:101D60002008D4007A08DB007908DA007808D90066
:101D70007708D8008A118312E7238A15831626086C
:101D800084008313271883177A08A3007908A20018
:101D90007808A1007708A000A9010408A80029106C
:101DA000831B291483142308D7002208D600210896
:101DB000D5002008D4007E08DB007D08DA007C080E
:101DC000D9007B08D8008A118312E7238A1583166D
:101DD000280884008313291883177A088312E700E0
:101DE0007908E6007808E5007708E40067088316BC
:101DF000D300831266088316D20083126508831607
:101E0000D100831264088316D0008A1183124F23F5
:101E10008A157908E9007808E8006808F800690878
:101E2000F9008A110A16182DE301E201E101E0012F
:101E30005F088316D50083125E088316D4008A11CA
:101E400083128B218A151F308316D3008530D20070
:101E50006B30D1007C30D0007A08D7007908D600EA
:101E60007808D5007708D4008A11831270238A1568
:101E70007A08E3007908E2007808E1007708E000DA
:101E800063088316D300831262088316D20083127C
:101E900061088316D100831260088316D0008A116E
:101EA00083124F238A157908B0007808AF008A1191
:101EB0000A16252D30088316D50083122F088316A5
:101EC000D4008A1183128B218A157A088316D300D5
:101ED0007908D2007808D1007708D0007B30D7008D
:101EE0001430D6005E30D5008230D4008A118312BF
:101EF00070238A15831037088316D700831236089B
:101F00008316D600831235088316D5008312340851
:101F10008316D4007A08DB007908DA007808D90043
:101F20007708D8008A118312E7238A157A08B70048
:101F30007908B6007808B5007708B400370883162A
:101F4000D300831236088316D20083123508831615
:101F5000D100831234088316D0008A1183124F23D4
:101F60008A157908B3007808B2003208DF00330818
:101F7000DE000B08F7008B1303178D0103135E08B7
:101F800003178C0083168C130C1555308D00AA3066
:101F90008D008C148C18CA2F0C1177088312031330
:101FA0008B040B08F7008B13013003178D0003130C
:101FB0005F0803178C0083168C130C1555308D00A9
:101FC000AA308D008C148C18E32F0C117708831223
:0A1FD00003138B048A110A162C2D4E
:1020000037088316D300831236088316D200831252
:1020100035088316D100831234088316D000D70107
:10202000D6014030D5008030D4000A1283127023CC
:102030000A167A08BB007908BA007808B900770850
:10204000B8003B088316D30083123A088316D200E7
:10205000831239088316D100831238088316D00002
:102060000A1283124F230A167908BD007808BC00B3
:102070008A110A16332D5F08F8015E0203184328FF
:102080005E08F7004F28F7010830E000DE0DF70D7D
:102090005F0877020318F700F80DE00B46288A1155
:1020A0000A163C2D8316111411185428B430B700A9
:1020B0000A128312BE210A1602308316B7000A12D2
:1020C0008312BE210A166D08FA01EE008316B700CE
:1020D0000A128312BE210A166C08F700FA016C0876
:1020E000EE008316B7000A128312BE210A16831669
:1020F000B7010A128312BE210A168316111511198F
:102100007F2883120800A81A9428281E9428A8164D
:1021100001308316B1020A128312D0210A16A630AA
:10212000F700F70B9128000083163108F80083129E
:102130000800A81BAA28281FAA28A8170130831660
:10214000B1070A128312D0210A16A630F700F70B46
:10215000A728000083163108F80083120800003019
:102160002A180130EF008316B2000A128312E3210D
:102170000A162A1078182A1400302A180130003A5A
:10218000031917292C088316B20083122B08831613
:10219000B1003108F8003208F90079088312AE0066
:1021A0007808AD002A1001308316B1000A1283129C
:1021B000F7210A16F8011130F7005E30840083130E
:1021C00078080A128C200A168000F80A840AF70B95
:1021D000E0288316B4015E30B3000A128312132282
:1021E0000A1611308316B1000A128312F7210A165B
:1021F000F8010A30F7005E308400831378080A1271
:10220000A1200A168000F80A840AF70BFE2883161C
:10221000B4015E30B3000A12831213220A16C830CA
:102220008316B1000A128312AA210A16612901300D
:102230008316B1000A128312F7210A16F801113031
:10224000F700A0308400831378080A128C200A1645
:102250008000F80A840AF70B24298316B401A03001
:10226000B3000A12831213220A1611308316B1002A
:102270000A128312F7210A16F8011130F700A03074
:102280008400831378080A12AF200A168000F80A27
:10229000840AF70B42298316B401A030B3000A1256
:1022A000831213220A1629088316B1008312832091
:1022B0007808A90029088316B100831299207808AC
:1022C000A9008A110A16F62E00302A180130EE00F5
:1022D0008316B2000A128312E3210A162A10781814
:1022E0002A1400302A180130003A0319C4290D308D
:1022F000F8000230F9007908AE007808AD002A1025
:1023000001308316B1000A128312F7210A16F80170
:102310001030F7005E308400831378080A12C4205E
:102320000A168000F80A840AF70B8D298316B40177
:102330005E30B3000A12831213220A16123083167B
:10234000B1000A128312F7210A16F8010730F700CC
:102350005E308400831378080A12D8200A168000A1
:10236000F80A840AF70BAB298316B4015E30B30078
:102370000A12831213220A16C8308316B1000A12F9
:102380008312AA210A160E2A01308316B1000A12FE
:102390008312F7210A16F8011030F700A0308400EC
:1023A000831378080A12C4200A168000F80A840AE7
:1023B000F70BD1298316B401A030B3000A1283129F
:1023C00013220A1612308316B1000A128312F72163
:1023D0000A16F8010E30F700A03084008313780845
:1023E0000A12E3200A168000F80A840AF70BEF2984
:1023F0008316B401A030B3000A12831213220A1606
:1024000029088316B100831283207808A9002908BF
:102410008316B100831299207808A9008A110A1640
:10242000FC2E00302A180130E7008316B2000A1291
:102430008312E3210A162A1078182A1400302A1869
:102440000130003A03198B2AB301B2013308831615
:10245000D500831232088316D4000A1283128B210E
:102460000A167A08B7007908B6007808B500770828
:10247000B4000B08F7008B1303178D018C01831632
:102480008C130C1555308D00AA308D008C148C18CF
:10249000472A0C117708831203138B040B08F700EB
:1024A0008B13013003178D008C0183168C130C15D0
:1024B00055308D00AA308D008C148C185D2A0C11BB
:1024C0007708831203138B042A1001308316B1009E
:1024D0000A128312F7210A16F8010930F7005E305C
:1024E0008400831378080A126A200A168000F80A0A
:1024F000840AF70B722A8316B4015E30B3000A1205
:10250000831213220A16C8308316B1000A128312EE
:10251000AA210A16B72A01308316B1000A128312C3
:10252000F7210A16F8011130F700A0308400831358
:1025300078080A1277200A168000F80A840AF70B36
:10254000982A8316B401A030B3000A128312132212
:102550000A1629088316B100831283207808A9007F
:1025600029088316B100831299207808A9008A11DE
:102570000A16022FA819CA2A281DCA2AA81501302E
:10258000EB070A12D0210A16A630F700F70BC62A6D
:102590000000CD2A6B08F800CF2A6B08F80008006D
:1025A00000302A180130E800EB00BA222A1078180F
:1025B0002A1400302A180130003A0319E22A2A119D
:1025C0002A100E2B01308316B1000A128312F72154
:1025D0000A16F8010A30F7005E3084008313780889
:1025E0000A125C200A168000F80A840AF70BEF2A08
:1025F0008316B4015E30B3000A12831213220A1646
:1026000029088316B100831283207808A9002908BD
:102610008316B100831299207808A9008A110A163E
:10262000082F00302A180130EA00EB00BA222A10E5
:1026300078182A1400302A180130003A03193A2B6E
:1026400001308316B1000A128312F7210A164F30A7
:10265000DE004B30DF00E0018316B4015E30B300D2
:102660000A12831213220A16BF010A30BE00AA15ED
:102670002A10A32B01308316B1000A128312F7210E
:102680000A16F8010930F7006130840083137808D6
:102690000A124F200A168000F80A840AF70B472B0B
:1026A0008316B4016130B3000A12831213220A1692
:1026B00011308316B1000A128312F7210A1641085D
:1026C0008316D500831240088316D4000A128312A1
:1026D0008B210A167A088316D3007908D20078086D
:1026E000D1007708D000CD30D700CC30D6004C30A8
:1026F000D5007B30D4000A12831270230A167A08A0
:102700008316D3007908D2007808D1007708D0006A
:102710000A1283124F230A167908EB007808EA00A0
:102720007908ED007808EC00522029088316B100E2
:10273000831283207808A90029088316B100831228
:1027400099207808A9008A110A160D2F83160317FD
:10275000871508300313990002309A00A6309800BC
:10276000903083129800FF30A700A7152708831622
:1027700087008312271627088316870031309300BD
:10278000293083129400831694171413FF3093009A
:102790002830831294002810A8142811A815281294
:1027A000A8162813A8170130A9002A100230AE007D
:1027B0000D30AD00B001AF01B10103178D018316DB
:1027C0008C130C1483120C080313DF00DE0101309C
:1027D00003178D0083168C130C1483120C0803133B
:1027E000DE070318DF0A5E08F8005F08F9007908C1
:1027F000B3007808B200AA1033088316D5008312FC
:1028000032088316D4000A1283128B210A167A0822
:10281000B7007908B6007808B5007708B400BB01A6
:10282000BA01B901B801BD01BC012A11BF01BE0145
:10283000C101C001AA11831603170908C039890014
:1028400003131F129F1200300317880083128701A1
:10285000880189013530031390000B308F00DC3084
:102860008E0083160C1483128B1583169615831213
:102870008B158316161583128B15831696148312E7
:102880008B1583161616C03083128B04831603171C
:102890000908C039890003131F129F120230031761
:1028A0008800831203131F179F1783169F17831225
:1028B0001F14A71227088316870083128712831616
:1028C0008612831286120430F8001F08C339780478
:1028D0009F00A630F700F70B6B2C000000302A1980
:1028E0000130003A031DBE2C0130A90083160610EA
:1028F00083120610C8308316B1000A128312AA216F
:102900000A16831606138312061300302A190130A3
:10291000DE008316B2000A128312E3210A162A117E
:1029200078182A1505308316B1000A128312F72190
:102930000A16F8010830F700443084008313780841
:102940000A1238200A168000F80A840AF70B9F2C16
:102950008316B4014430B3000A12831213220A16FC
:1029600064308316B1000A128312AA210A16AA1C27
:10297000BD2CAA100A12D0210A160D2F8316061399
:10298000831206178316061083120614643083160A
:10299000B1000A128312AA210A169F149F18CE2C86
:1029A00083161E088312AB001E08AC006430831629
:1029B000B1000A128312AA210A162E08013C03183C
:1029C000F82CFF3A031DE82C2D080D3C0318F82CB9
:1029D0000D302D02F7002E08FA000230031C0330E0
:1029E000FA027708AB027A08031C7A0FAC02112DA9
:1029F0002E08023C031C112D031D022D2D080C3C3A
:102A0000031C112D2D080D3CF7000230FA002E0892
:102A1000031C2E0FFA027708AB077A0803187A0F07
:102A2000AC072C08DF002B08DE000A128A15BE2D29
:102A30000A168A117908C3007808C2004308DF002B
:102A40004208DE000A128A15142F0A168A11AA1CDF
:102A5000322D0A128A155A2F0A168A11AA100A1242
:102A6000D0210A1600282908083C03183F2D290800
:102A7000DE000930DF003B287708A9000D2FA908E8
:102A8000031D452D0130A9000D2F290BE92D013023
:102A90008316B1000A128312F7210A16F8010730D3
:102AA000F7004C308400831378080A1244200A1679
:102AB0008000F80A840AF70B542D8316B4014C30B9
:102AC000B3000A12831213220A1609308316B100CA
:102AD0000A128312F7210A166D30CC004130CD0066
:102AE000CE018316B4014C30B3000A1283121322B4
:102AF0000A160D308316B1000A128312F7210A1646
:102B00005730CC004130CD005430CE00CF00D00142
:102B10008316B4014C30B3000A12831213220A1632
:102B200012308316B1000A128312F7210A162C08FC
:102B3000ED002B08EC00522015308316B1000A126C
:102B40008312F7210A162030CC00CD00CE00CF0131
:102B50008316B4014C30B3000A12831213220A16F2
:102B600018308316B1000A128312F7210A1643089F
:102B7000ED004208EC0052201C308316B1000A120E
:102B80008312F7210A162030CC00CD018316B40140
:102B90004C30B3000A12831213220A161D3083161A
:102BA000B1000A128312F7210A163008ED002F082F
:102BB000EC00522029088316B10083128320780884
:102BC000A90029088316B100831299207808A9006A
:102BD0000D2F2908023C031D922E02308316B100EE
:102BE0000A128312F7210A167630D3006F30D40010
:102BF0006C30D5007430D600D7018316B401533041
:102C0000B3000A12831213220A1609308316B10088
:102C10000A128312F7210A166D30D3004130D40016
:102C2000D5018316B4015330B3000A128312132264
:102C30000A160D308316B1000A128312F7210A1604
:102C40005730D3004130D4005430D500D600D701DE
:102C50008316B4015330B3000A12831213220A16EA
:102C600012308316B1000A128312F7210A16ED0101
:102C7000E630EC00522015308316B1000A128312A0
:102C8000F7210A162030D300D400D500D6018316D0
:102C9000B4015330B3000A12831213220A161830FB
:102CA0008316B1000A128312F7210A164308ED00B9
:102CB0004208EC005220A630F700F70B5D2E000012
:102CC0001C308316B1000A128312F7210A16203035
:102CD000D300D4018316B4015330B3000A12831217
:102CE00013220A161D308316B1000A128312F7212F
:102CF0000A163008ED002F08EC005220A630F7002D
:102D0000F70B802E000029088316B1008312832060
:102D10007808A90029088316B10083129920780841
:102D2000A9000D2F2908033C031DF12E0130831645
:102D3000B1000A128312F7210A162030D80055304C
:102D4000D9006E30DA006930DB007430DC00DD0160
:102D50008316B4015830B3000A12831213220A16E4
:102D600008308316B1000A128312F7210A163308BD
:102D7000ED003208EC00522011308316B1000A1227
:102D80008312F7210A162030D8004230D900613072
:102D9000DA006830DB007430DC00DD018316B4013A
:102DA0005830B3000A12831213220A161830831601
:102DB000B1000A128312F7210A163D08ED003C0803
:102DC000EC00522029088316B10083128320780872
:102DD000A90029088316B100831299207808A90058
:102DE0000D2F2908043C031DF72EAF280D2F2908AD
:102DF000053C031DFD2E64290D2F2908063C031DEB
:102E0000032F112A0D2F2908073C031D092FD02A53
:0E2E10000D2F2908083C0319112B6E2C6300AE
:024200000000BC
:04400E00C22FFF3F7F
:00000001FF
;PIC16F886
;CRC=AD9A  CREATED="05-¡.¾.-14 05:26"
