:1000000012308A00512A0000FF00030E8301A10074
:100010000A08A0008A010408A2007708A300780853
:10002000A4007908A5007A08A600831383128B1D0B
:100030001B280B1832288C308400001C21280C1837
:100040003528220884002308F7002408F800250832
:10005000F9002608FA0020088A00210E8300FF0E0E
:100060007F0E09008A110A12C2288A110A12112968
:100070000A108A100A118207533445344E3453341F
:100080004F34523400340A108A100A118207203487
:1000900020346D3441342034203400340A108A1066
:1000A0000A118207203476346F346C34743420346F
:1000B00000340A108A100A118207203420342034B8
:1000C000433441344C34493442345234413454344E
:1000D0004534203420342034203400340A108A106F
:1000E0000A118207203420344F344B342034213419
:1000F00021342134203400340A108A100A11820776
:100100002034203454346834693473342034543403
:100110006F346F346C342034213421342134203452
:1001200000340A108A100A118207523445345334BD
:10013000453454342034433441344C34493442340B
:10014000523441345434453400340A108A100A11B0
:1001500082074F344B34203421342134213400348D
:100160000A108A100A1182075434683469347334CF
:10017000203454346F346F346C34203421342134BF
:10018000213400348316861583128619CB28A818CB
:10019000CB2828140D29831686158312861DD52891
:1001A000A81CD5282810A8100D298316061583121F
:1001B0000619DE28A819DE2828150D29831606152C
:1001C0008312061DE828A81DE8282811A8110D296A
:1001D0008316861483128618F128A81AF128281687
:1001E0000D29831686148312861CFB28A81EFB2863
:1001F0002812A8120D29831606168312061A04293E
:10020000A81B042928170D29831606168312061E1B
:100210000D29A81F0D292813A8130B108A110A12E3
:1002200021280B308F00DC308E000130B1073108FF
:10023000313C03181D29B101AA140C108A110A12AD
:100240002128D3306D38EC34EE33BA060A00D332AD
:10025000EE396F39203B6136F532A01EA012CC3A40
:100260000D050000C126D022D222A01EA012CC3A39
:100270000D050001D027D72252103D102526F50686
:100280000A008E30F70083165508F8005408F9006C
:10029000FA01F808031D56297908F800F901083019
:1002A000F702F808031D5629F7015E290310F81B11
:1002B0005D29F90DF80DF7035629F813831208008C
:1002C0000B08D4008B13831603178C170C14000033
:1002D000000083120C087F390319A9290313D500E4
:1002E00003170D080313D60003170F080313D700D5
:1002F00055080C1E79299900560803178D00031321
:10030000570803178F0083168C170C140000000089
:1003100083120C0D0E0D7F390319A9290313D50083
:1003200003170D080313D60003170F080313D70094
:1003300055080C1E99299900560803178D000313C0
:10034000570803178F008D0A03198F0A03136329B7
:1003500003170313D41B8B178A110A16EA2A7B3062
:100360008400831300080319C2290630F800F7013E
:10037000F70BB829F80BB7297B30F700F70BBE292C
:10038000800BB529080083165108D8005508D806F7
:10039000D81FCF2903110310D11B0314022A5108BF
:1003A000D8005408D9005008D9020319DD29D81FF4
:1003B000022A0308013A8300022A5508D90051088D
:1003C000D9020319E929D81F022A0308013A830038
:1003D000022A5608D9005208D9020319F529D81F54
:1003E000022A0308013A8300022A5708D900530859
:1003F000D9020319012AD81F022A0308013A8300EF
:10040000022A031083120800831649080319CA2A16
:10041000D5004D080319CA2AD502031C142A7F30BF
:10042000D5070318CA2A1A2A8130D502031CCA2A02
:100430000319CA2A5508F700F801F901FA01D40195
:100440004A08D300D3174B08D2004C08D10019300A
:10045000D5005008D10203183D2A0130D2020318FA
:100460003D2AD30203183D2AD40203183D2AD40A98
:10047000D30AD20A5008D1076F2A4F08D2020318B4
:10048000582A0130D3020318582AD4020318582AD4
:10049000D40AD30A4F08D2075008D107031C6F2A89
:1004A000D20A031D6F2AD30A031D6F2AD40A6F2AAA
:1004B0004E088038D30203186E2A0130D402031884
:1004C0006E2AD40A4E088038D3074F08D207031C7F
:1004D0004C2AD30A031D4C2AD40A4C2A7A14D50B71
:1004E000722A7D2A0310D10DD20DD30DD40D031025
:1004F000FA0DF90DF80DD60D292A561C852A031080
:10050000F80CF90CFA0CD60C882AF7030319CA2A3E
:10051000D61BB12A0310D10DD20DD30DD40D500826
:10052000D10203189D2A0130D20203189D2AD3025A
:1005300003189D2AD402031CC02A4F08D2020318B4
:10054000A82A0130D3020318A82AD402031CC02A07
:100550004E088038D3020318B12A0130D402031C9C
:10056000C02AFA0A031DC02AF90A031DC02AF80A84
:10057000031DC02AF70A0319CA2AF80CF90CFA0C51
:100580004A08D5004E08D506D51FC82AF817CE2A26
:10059000F813CE2AF701F801F901FA0183120800D5
:1005A0008E30F70083165008F7025108F900520800
:1005B000F800F917F7080319E82A0310F908031DD2
:1005C000E42AF8080319E82AF90CF80CF70BDD2ADD
:1005D000D11FEF2AF809F909F80A0319F90A831259
:1005E0000800831650080319622BD8005408031919
:1005F000622BD8070318032B7F30D802031C622B11
:100600000319622B072B8130D8070318622B580877
:10061000F700F801F901FA015108DC00DC17520873
:10062000DB005308DA001830D800D9015A1C302BEF
:100630005708FA07031C222BF90A031D222BF80A7C
:100640000319D9175608F907031C292BF80A0319AF
:10065000D9175508D200D2175208F8070318D9172E
:10066000D90DF80CF90CFA0CDC0CDB0CDA0C0310CD
:10067000D80B152B0130F7070318622BF81B472BFB
:10068000DC0DFA0DF90DF80DF7030319622BDC1FD1
:10069000582BFA0A031D582BF90A031D582BF80A88
:1006A000031D582BF80CF90CFA0CF70A0319622BEE
:1006B0005108D9005508D906D91F602BF817662BA9
:1006C000F813662BF701F801F901FA01831208000B
:1006D0008030831C6E2B8316D90683128316DE01AD
:1006E000DF015508DD005908DD06540803195C2CAC
:1006F000DC00F70058080319652CDC020319012CF3
:10070000031CBF2B5908E200E2175A08E1005B08FE
:10071000E000DF010310E20CE10CE00CDF0CDC0B6D
:10072000892BDD1F962B5E14792C5E105C105E16F3
:10073000D730840083138E2C5E12DD1BA92B5C1C2A
:10074000B42BE20CE10CE00CDF0CF70A0319742C5B
:10075000B42BE21BB72B0310DF0DE00DE10DE20D12
:10076000F7030319742CA92B5E17212C5E1355086F
:10077000DD00DD1FBD2BE2176D2CE2136D2C580838
:10078000DC00F7005408DC025508E200E2175608C6
:10079000E1005708E000DF010310E20CE10CE00C7F
:1007A000DF0CDC0BCB2BDD1FD82BDE14792CDE10FD
:1007B0005C10DE16DB30840083138E2CDE12DD1B12
:1007C000EB2B5C1CF62BE20CE10CE00CDF0CF70AC7
:1007D0000319742CF62BE21BF92B0310DF0DE00D2F
:1007E000E10DE20DF7030319742CEB2BDE17212C1E
:1007F000DE135908DD00DD1FFF2BE2176D2CE2131D
:100800006D2C5908E200E2175A08E1005B08E0008D
:10081000DD1F0E2CE2135E15792C5E11DF015C10DA
:10082000D730840083138E2CDD1B372C5508DD0058
:100830005C1C212CE20CE10CE00CDF0CF70A031924
:10084000742CDF1F322CE00A031D322CE10A031D39
:10085000322CE20A031D322CE20CE10CE00CF70A08
:100860000319742C5E1BB62BDE1BF82B562C803024
:10087000E206E21F3F2C792C5908DD004C2C55086C
:10088000DD00E208031D4C2CE108031D4C2CE008A0
:10089000031D4C2CF7016D2CE21B562C0310DF0DB1
:1008A000E00DE10DE20DF70B4C2C742CDD1F5A2CE2
:1008B000E2176D2CE2136D2C5808F7005908E2007E
:1008C0005A08E1005B08E0006D2C5408F700550859
:1008D000E2005608E1005708E0006208F8006108ED
:1008E000F9006008FA00AC2CF701F801F901FA01EF
:1008F000AC2CDF01E009E109E209DF09DF0A031D91
:10090000872CE00A031D872CE10A0319E20A5E180E
:10091000952BDE18D72B5E190D2C3C2C0008E00718
:10092000031C982CE10A031D982CE20A03195C149D
:1009300084030008E107031CA02CE20A03195C14DD
:1009400084030008801F803AE20703185C145E1AD3
:100950009C2BDE1ADE2B142C8312080083164F10FA
:100960004308C8004208C7004108C6004008C50047
:100970004308D3004208D2004108D1004008D0000B
:10098000D701D601D501D4018312C321031CCE2C7B
:1009900083164F144608803AC6008312831648080F
:1009A000D3004708D2004608D1004508D000D7013F
:1009B000D601D5018E30D4008312C3210318E22C56
:1009C000031DFF2C83164808D3004708D2004608B1
:1009D000D1004508D0008312D02279088316D500B3
:1009E0007808D400831241217A088316CC00790854
:1009F000CB007808CA007708C900D72D8312831668
:100A00004808D3004708D2004608D1004508D00066
:100A10008030D7009630D6001830D5009630D400FC
:100A20008312C321031CCE2D83164808D300470828
:100A3000D2004608D1004508D000D701D601D50123
:100A40007030D4008312F1227A088316D30079081B
:100A5000D2007808D1007708D0008312D02279081C
:100A60008316CE007808CD004808D3004708D2008E
:100A70004608D1004508D000D701D601D501703015
:100A8000D4008312F1227A088316D3007908D200A9
:100A90007808D1007708D0004E08D5004D08D40062
:100AA00083124121831483165308D7005208D600BD
:100AB0005108D5005008D4007A08DB007908DA0024
:100AC0007808D9007708D800831268238316D301E9
:100AD000D201D1018E30D0007A08D7007908D60033
:100AE0007808D5007708D4008312F1227A0883169B
:100AF000C8007908C7007808C6007708C5004E0806
:100B0000D5004D08D400831241218316D301D201B0
:100B1000D1018E30D0007A08D7007908D600780845
:100B2000D5007708D4008312F1227A088316CC000E
:100B30007908CB007808CA007708C9004808D300B4
:100B40004708D2004608D1004508D0008312D022C1
:100B500079088316D5007808D400831241218310C8
:100B600083164C08D7004B08D6004A08D500490820
:100B7000D4007A08DB007908DA007808D900770811
:100B8000D800831268237A088316CC007908CB003A
:100B90007808CA007708C900D72D83128316480841
:100BA000CC004708CB004608CA004508C9004808E1
:100BB000D3004708D2004608D1004508D000831270
:100BC000D02279088316D5007808D40083124121F9
:100BD000831483164808D7004708D6004608D50076
:100BE0004508D4007A08DB007908DA007808D900D3
:100BF0007708D800831268237A088316C80079081A
:100C0000C7007808C6007708C5004F1C0A2E4A089E
:100C1000803ACA004808D3004708D2004608D100ED
:100C20004508D000D701D601D501D4018312C321D4
:100C30000319572E83164F1C392EC408031D392E55
:100C400083144C08D7004B08D6004A08D500490841
:100C5000D400DB01DA01D9017F30D8008312682388
:100C60007A088316CC007908CB007808CA00770888
:100C7000C9004F18562E440B562E83104C08D7002F
:100C80004B08D6004A08D5004908D400DB01DA0138
:100C9000D9017F30D800831268237A088316CC00EC
:100CA0007908CB007808CA007708C9008312831638
:100CB0004308D3004208D2004108D1004008D000C8
:100CC000D701D601D501D4018312C321031D6E2E95
:100CD0008316CC01CB01CA01C901831283164908CE
:100CE000F7004A08F8004B08F9004C08FA00831294
:100CF000080083163308D3003208D2003108D1002F
:100D00003008D000D701D601D501D4018312C32108
:100D10000319462F83162F08CC002E08CB002D0870
:100D2000CA002C08C9003308D0003208CF003108AF
:100D3000CE003008CD00831204227A088316BB004F
:100D40007908BA007808B9007708B8003B08D300E2
:100D50003A08D2003908D1003808D000D701D601AE
:100D6000D501D4018312C321031CE72E83162F085B
:100D7000CC002E08CB002D08CA002C08C90033086F
:100D8000D0003208CF003108CE003008CD008312E9
:100D900004227A088316BB007908BA007808B900E3
:100DA0007708B8003B08BF003A08BE003908BD000C
:100DB0003808BC003F08C3003E08C2003D08C1001F
:100DC0003C08C0000130C4008312AE24162F8316E5
:100DD0002F08CC002E08CB002D08CA002C08C90013
:100DE0003308D0003208CF003108CE003008CD00E3
:100DF000831204227A088316BB007908BA007808A7
:100E0000B9007708B8003B08BF003A08BE003908AF
:100E1000BD003808BC003F08C3003E08C2003D08C2
:100E2000C1003C08C000C4018312AE247A088316B6
:100E3000B7007908B6007808B5007708B40037081D
:100E4000D3003608D2003508D1003408D00033086A
:100E5000D7003208D6003108D5003008D4008312FC
:100E6000F122831483162F08D7002E08D6002D08F0
:100E7000D5002C08D4007A08DB007908DA0078085D
:100E8000D9007708D80083126823462F08008E30D7
:100E9000F70083164708F8004608F900FA01C71F53
:100EA000562FF809F909F90A0319F80AF808031D79
:100EB000632F7908F800F9010830F702F808031DDC
:100EC000632FF7016C2F0310F81B6A2FF90DF80D33
:100ED000F703632FC71FF81383120800D901D80145
:100EE000D701D60155088316D500831254088316FE
:100EF000D400831241211F308316D3008530D200E5
:100F00006B30D1007C30D0007A08D7007908D60049
:100F10007808D5007708D4008312F1227A08D90026
:100F20007908D8007808D7007708D60059088316C2
:100F3000D300831258088316D200831257088316F1
:100F4000D100831256088316D0008312D02279086C
:100F5000B0007808AF008A110A164B2B94138C113D
:100F600083162208831293000230941BBE2F8C1D1F
:100F7000B72F00308316111B01308312F8000800D0
:100F8000831611141118C22FB430A2008312AE2799
:100F900006308316A2008312AE278316111511198D
:100FA000CF2F831208005508F80154020318DB2FD5
:100FB0005408F700E72FF7010830D600D40DF70DDD
:100FC000550877020318F700F80DD60BDE2F8A11AB
:100FD0000A16B12BA81AF22F281EF22FA8160130DC
:100FE000FB02C0277B08F8000800A81BFD2F281F64
:100FF000FD2FA8170130FB07C0277B08F800080069
:1010000083163308B7003208B6003108B50030083F
:10101000B4003708D3003608D2003508D1003408B0
:10102000D000D701D601D5017F30D4008A118312B8
:10103000C3218A150319DD298316C601B430C50002
:10104000450884008313461883177E30800083147C
:101050003708D7003608D6003508D5003408D40044
:10106000DB01DA01D9017F30D8008A1183126823AD
:101070008A157A088316C8007908C7007808C60060
:101080007708C50083103708D7003608D600350822
:10109000D5003408D400DB01DA01D9017F30D80053
:1010A0008A11831268238A1583164808CC004708E2
:1010B000CB004608CA004508C9007A08D000790864
:1010C000CF007808CE007708CD008A118312042261
:1010D0008A157A088316B7007908B6007808B50033
:1010E0007708B4003708D3003608D2003508D1009D
:1010F0003408D0003708D7003608D6003508D500A8
:101100003408D4008A118312F1228A157A088316D2
:10111000C3007908C2007808C1007708C000993080
:10112000D3004730D2008A30D1007F30D00043084E
:10113000D7004208D6004108D5004008D4008A11E3
:101140008312F1228A157A088316C8007908C7002D
:101150007808C6007708C50083104808D7004708FC
:10116000D6004608D5004508D400DB01DA01D901D4
:101170008030D8008A11831268238A157A08831672
:10118000BB007908BA007808B9007708B8004C307D
:10119000D300F330D2003A30D1007B30D000430886
:1011A000D7004208D6004108D5004008D4008A1173
:1011B0008312F1228A157A088316C8007908C700BD
:1011C0007808C6007708C50083104808D70047088C
:1011D000D6004608D5004508D4002B30DB009D30F2
:1011E000DA00DF30D9007E30D8008A1183126823FC
:1011F0008A157A088316BF007908BE007808BD00FA
:101200007708BC003F08D3003E08D2003D08D1005B
:101210003C08D0004308D7004208D6004108D5005A
:101220004008D4008A118312F1228A157A088316A5
:10123000C8007908C7007808C6007708C500831081
:101240004808D7004708D6004608D5004508D4000E
:10125000DB01DA01D9017F30D8008A1183126823BB
:101260008A157A088316BF007908BE007808BD0089
:101270007708BC003708D3003608D2003508D10003
:101280003408D0003B08D7003A08D6003908D5000A
:101290003808D4008A118312F1228A157A0883163D
:1012A000C8007908C7007808C6007708C500480854
:1012B000CC004708CB004608CA004508C9003F08D3
:1012C000D0003E08CF003D08CE003C08CD008A117A
:1012D000831204228A157A088316BB007908BA00A3
:1012E0007808B9007708B800C601B030C5004508D5
:1012F00084008313461883177E300002C400C41F85
:1013000096294408003CC701C600C61BC7038A11C2
:10131000831247278A1577088316BC007808803A1D
:10132000BD007908BE007A08BF00A829C70144089B
:10133000C600C61BC7038A11831247278A157A087D
:101340008316BF007908BE007808BD007708BC008E
:101350003F08D3003E08D2003D08D1003C08D00031
:101360001830D7007230D6003130D5007E30D4002E
:101370008A118312F1228A15831083163B08D70045
:101380003A08D6003908D5003808D4007A08DB00BE
:101390007908DA007808D9007708D8008A11831212
:1013A00068238A157A088316BB007908BA00780882
:1013B000B9007708B800E22983128316BB01BA018D
:1013C000B901B8013808F7003908F8003A08F900FF
:1013D0003B08FA008312080083163308D300320852
:1013E000D2003108D1003008D0003B30D700AA30FD
:1013F000D6003830D5007F30D4008A118312F12214
:101400008A157A088316D3007908D2007808D100AB
:101410007708D0008A118312D0228A1578088316A3
:10142000C00041103308B7003208B6003108B500DB
:101430003008B4003308D3003208D2003108D1009C
:101440003008D000D701D601D501D4018A1183120A
:10145000C3218A15031C342A83164114C009C00A0B
:101460003508803AB50083128316BB01BA01B90171
:10147000B801C301B830C200420884008313431886
:1014800083177F30400780003708D3003608D2002A
:101490003508D1003408D0003B30D700AA30D60040
:1014A0003830D5007F30D4008A118312F1228A159A
:1014B0007A088316C5007908C4007808C300770845
:1014C000C200C7014008C600C61BC7038A118312A9
:1014D00047278A15831483164508D7004408D60089
:1014E0004308D5004208D4007A08DB007908DA0006
:1014F0007808D9007708D8008A11831268238A15E2
:101500007A088316B7007908B6007808B50077081E
:10151000B4007C30D3008830D2005930D100723012
:10152000D0003708D7003608D6003508D500340873
:10153000D4008A118312F1228A157A088316C50015
:101540007908C4007808C3007708C20083104508F2
:10155000D7004408D6004308D5004208D400E03044
:10156000DB009730DA002630D9007530D8008A11B8
:10157000831268238A157A088316BF007908BE0093
:101580007808BD007708BC003F08D3003E08D200B1
:101590003D08D1003C08D0003708D7003608D600F7
:1015A0003508D5003408D4008A118312F1228A1537
:1015B0007A088316C5007908C4007808C300770844
:1015C000C20083104508D7004408D6004308D50060
:1015D0004208D400C430DB001D30DA001E30D900D0
:1015E0007830D8008A11831268238A157A08831606
:1015F000BF007908BE007808BD007708BC003F082E
:10160000D3003E08D2003D08D1003C08D000370886
:10161000D7003608D6003508D5003408D4008A1122
:101620008312F1228A157A088316C5007908C4004E
:101630007808C3007708C20083104508D700440823
:10164000D6004308D5004208D4005E30DB0050309D
:10165000DA006330D9007A30D8008A118312682307
:101660008A157A088316BF007908BE007808BD0085
:101670007708BC003F08D3003E08D2003D08D100E7
:101680003C08D0003708D7003608D6003508D5000A
:101690003408D4008A118312F1228A157A0883163D
:1016A000C5007908C4007808C3007708C200831019
:1016B0004508D7004408D6004308D5004208D400A6
:1016C0001A30DB00FE30DA007530D9007C30D800EB
:1016D0008A11831268238A157A088316BF00790855
:1016E000BE007808BD007708BC003F08D3003E0864
:1016F000D2003D08D1003C08D0003708D70036089A
:10170000D6003508D5003408D4008A118312F1229E
:101710008A157A088316C5007908C4007808C300C2
:101720007708C20083104508D7004408D600430854
:10173000D5004208D4001830DB007230DA003130B6
:10174000D9007E30D8008A11831268238A157A085E
:101750008316BF007908BE007808BD007708BC007A
:101760003708D3003608D2003508D1003408D0003D
:101770003F08D7003E08D6003D08D5003C08D400FD
:101780008A118312F1228A1583108316D701D6019C
:10179000D5017F30D4007A08DB007908DA007808B8
:1017A000D9007708D8008A11831268238A15831616
:1017B0003B08D3003A08D2003908D1003808D000DD
:1017C0007A08D7007908D6007808D5007708D400C1
:1017D0008A118312F1228A157A088316BB007908D0
:1017E000BA007808B9007708B800411C112CCC0168
:1017F000CB01CA017F30C9003B08D0003A08CF00B6
:101800003908CE003808CD008A11831204228A15C7
:101810007A088316BB007908BA007808B9007708FF
:10182000B8003808F7003908F8003A08F9003B0812
:10183000FA008312080083162708D3002608D20076
:101840002508D1002408D000D701D601D501D40144
:101850008A118312C3218A15031C142D83162B08A9
:10186000AF002A08AE002908AD002808AC00B3017B
:10187000B201B1017F30B0008A11831279268A1536
:101880007A088316AF007908AE007808AD007708B3
:10189000AC002F08D3002E08D2002D08D1002C0850
:1018A000D000D701D601D501D4018A118312C321FA
:1018B0008A15031D142D83162B08AF002A08AE00CD
:1018C0002908AD002808AC00B301B201B101803095
:1018D000B0008A11831279268A157A088316AF0020
:1018E0007908AE007808AD007708AC002F08D30067
:1018F0002E08D2002D08D1002C08D000D701D60127
:10190000D501D4018A118312C3218A15031DCD2C60
:1019100083162408AC002508803AAD002608AE00E6
:101920002708AF00B3002E08B2002D08B1002C0824
:10193000B000831200207A088316AF007908AE0049
:101940007808AD007708AC002F08D3002E08D2002D
:101950002D08D1002C08D0002B08D7002A08D6006B
:101960002908D5002808D4008A118312F1228A158B
:101970007A088316AF007908AE007808AD007708C2
:10198000AC002F08B3002E08B2002D08B1002C08BF
:10199000B0008312EC21BD2D132D83162408AC005A
:1019A0002508803AAD002608AE002708AF00B30036
:1019B0002E08B2002D08B1002C08B00083120020C0
:1019C0007A088316AF007908AE007808AD00770872
:1019D000AC002F08D3002E08D2002D08D1002C080F
:1019E000D0002B08D7002A08D6002908D5002808DF
:1019F000D4008A118312F1228A157A088316AF0067
:101A00007908AE007808AD007708AC002F08B30065
:101A10002E08B2002D08B1002C08B0008312EC2172
:101A20008030F806BD2DBD2D83162708D30026086B
:101A3000D2002508D1002408D000D701D601D50155
:101A4000D4018A118312C3218A15031C5A2D8316CF
:101A50002B08AF002A08AE002908AD002808AC000A
:101A6000B301B201B1017F30B0008A11831279262F
:101A70008A157A088316AF007908AE007808AD00A1
:101A80007708AC002F08D3002E08D2002D08D10013
:101A90002C08D000D701D601D501D4018A118312B8
:101AA000C3218A1503195A2DF701F801F901FA012A
:101AB000BD2DBD2D83162708D3002608D20025088A
:101AC000D1002408D000D701D601D501D4018A1154
:101AD0008312C3218A15031D822D83162B08D30080
:101AE0002A08D2002908D1002808D000D701D60141
:101AF000D501D4018A118312C3218A150318822DBE
:101B0000031DBD2D83162708B3002608B200250843
:101B1000B1002408B000831200207A088316AF00B9
:101B20007908AE007808AD007708AC002F08D30024
:101B30002E08D2002D08D1002C08D0002B08D70089
:101B40002A08D6002908D5002808D4008A11831253
:101B5000F1228A157A088316AF007908AE0078085A
:101B6000AD007708AC002F08B3002E08B2002D0896
:101B7000B1002C08B0008312EC210800FA30E30019
:101B8000A230E2004830E1007130E000AC30E70004
:101B90001930E6003930E5007C30E4001030EB000D
:101BA0009830EA006A30E9008530E8009A30EF00AA
:101BB000F830EE004730ED008D30EC00550883160C
:101BC000D500831254088316D4008A118312412150
:101BD0008A157A08D9007908D8007808D7007708DC
:101BE000D60059088316A700831258088316A6004A
:101BF000831257088316A500831256088316A40083
:101C0000AB01AA014030A9008030A80083121B2438
:101C100063088316D300831262088316D2008312EE
:101C200061088316D100831260088316D0007A08F9
:101C3000D7007908D6007808D5007708D4008A1133
:101C40008312F1228A157A088316A3007908A2006C
:101C50007808A1007708A000831259088316A7000E
:101C6000831258088316A600831257088316A5000E
:101C7000831256088316A400AB01AA01A901803083
:101C8000A80083121B2467088316D30083126608FA
:101C90008316D200831265088316D100831264086C
:101CA0008316D0007A08D7007908D6007808D500C6
:101CB0007708D4008A118312F1228A158316A501B0
:101CC0000408A4002510831B251483142308D700BF
:101CD0002208D6002108D5002008D4007A08DB00AD
:101CE0007908DA007808D9007708D8008A118312B9
:101CF00068238A1583162408840083132518831704
:101D00007A08A3007908A2007808A1007708A0004B
:101D100083126B088316D30083126A088316D200DD
:101D2000831269088316D100831268088316D000D5
:101D3000831259088316D700831258088316D600D9
:101D4000831257088316D500831256088316D400D1
:101D50008A118312F1228A158316A7010408A600AE
:101D60002710831B271483102308D7002208D600CE
:101D70002108D5002008D4007A08DB007908DA00B1
:101D80007808D9007708D8008A11831268238A1549
:101D90008316260884008313271883177A08A30064
:101DA0007908A2007808A1007708A000A90104081A
:101DB000A8002910831B291483142308D7002208A4
:101DC000D6002108D5002008D40083126F0883169E
:101DD000DB0083126E088316DA0083126D08831607
:101DE000D90083126C088316D8008A1183126823E5
:101DF0008A158316280884008313291883177A0804
:101E00008312DD007908DC007808DB007708DA004F
:101E10005D088316D30083125C088316D2008312F8
:101E20005B088316D10083125A088316D0008A11EA
:101E30008312D0228A157908DF007808DE005E0858
:101E4000F8005F08F9008A110A163F2B3008831644
:101E5000D50083122F088316D4008A1183124121E2
:101E60008A157A088316D3007908D2007808D10041
:101E70007708D0007B30D7001430D6005E30D50014
:101E80008230D4008A118312F1228A158310370818
:101E90008316D700831236088316D60083123508BE
:101EA0008316D500831234088316D4007A08DB0029
:101EB0007908DA007808D9007708D8008A118312E7
:101EC00068238A157A08B7007908B6007808B50043
:101ED0007708B40037088316D300831236088316B8
:101EE000D200831235088316D1008312340883167A
:101EF000D0008A118312D0228A157908B30078089D
:101F0000B2008A110A16512B37088316D3008312A8
:101F100036088316D200831235088316D100831247
:101F200034088316D000D701D6014030D500803068
:101F3000D4008A118312F1228A157A08BB0079082D
:101F4000BA007808B9007708B8003B088316D300B8
:101F500083123A088316D200831239088316D100FF
:101F6000831238088316D0008A118312D0228A1572
:101F70007908BD007808BC008A110A165A2B83160E
:101F800011141118C12FB430A2008A118312AE2788
:101F90008A1508308316A2008A118312AE278A158B
:101FA0007B088316A2008A118312AE278A15831636
:101FB000A2018A118312AE278A15831611151119F1
:101FC000DF2F83120800A818ED2F281CED2FA8146E
:101FD0000130FC078A11C0278A157C08F800080028
:102000000B08D5008B13831603178C170C140000D4
:1020100000000318332883120C087F390313D600FD
:1020200003170D080313D70003170F080313D80075
:1020300056080C1E19289900570803178D00031322
:10204000580803178F0083168C170C14000000002B
:1020500083120313D40B2D2830288316031733283B
:1020600053288316031783120C0D0E0D7F390313AB
:10207000D60003170D080313D70003170F08031327
:10208000D80056080C1E42289900570803178D00E7
:102090000313580803178F008D0A03198F0A0310C2
:1020A0000313D40B0328D51B8B170800DC0104088D
:1020B000DB005C10831B5C14550EF038D700D7078B
:1020C000E23ED800323EDA0055080F39D807D8076B
:1020D000DA07E93ED900D907D907540E0F39D907D5
:1020E000DA07D90DDA0DDA09DA0D54080F39DA07F3
:1020F000D70D0730D6000A30DA07D903031C7C2835
:10210000D907D803031C8028D807D703031C8428C9
:10211000D707D603031C8828563084008313073062
:102120005B055B1384075A30040203195B17000830
:10213000F700031DA3285B1BA3285B1AAB28DB1940
:10214000A3282030A628DB155B123030F70777086C
:102150000C1EA8289900840A5B1F93280800831688
:1021600011141118B128B430A2000A128312AE273C
:102170000A1605308316A2000A128312AE270A1629
:102180008316A00120087D07840083137E1883171F
:1021900080080319DB2820087D07840083137E183C
:1021A00083170008A100A2000A128312AE270A16A4
:1021B0008316A00AC228A2010A128312AE270A16A9
:1021C000831611151119E2288312080083161114C1
:1021D0001118E828B430A2000A128312AE270A169A
:1021E00002308316A2000A128312AE270A1655087F
:1021F000FA01D6008316A2000A128312AE270A162D
:102200005408F700FA015408D6008316A2000A12F7
:102210008312AE270A168316A2010A128312AE2772
:102220000A1683161115111913298312080000309C
:102230002A180130FB00FC000A128A15E3270A164F
:102240008A112A1078182A1400302A180130003A0E
:10225000031971292C08FC002B08FB007B08F800EF
:102260007C08F9007908AE007808AD002A1001302A
:10227000FB000A128A15BF270A168A11F8011130CD
:10228000F70054308400831378080A1259200A1684
:102290008000F80A840AF70B4429FE015430FD003F
:1022A000AF201130FB000A128A15BF270A168A11C7
:1022B000F8010A30F70054308400831378080A12BA
:1022C0006E200A168000F80A840AF70B5E29FE01C8
:1022D0005430FD00AF20C830FB000A12AF210A16AF
:1022E000B3292908FB000A12EA270A167808A90070
:1022F0002908FB000A12F5270A167808A900013000
:10230000FB000A128A15BF270A168A11F80111303C
:10231000F70065308400831378080A1259200A16E2
:102320008000F80A840AF70B8C29FE016530FD0055
:10233000AF201130FB000A128A15BF270A168A1136
:10234000F8011130F70065308400831378080A1211
:102350007C200A168000F80A840AF70BA629FE01E1
:102360006530FD00AF208A110A16FF2D00302A18B3
:102370000130FB00FC000A128A15E3270A168A11B5
:102380002A1078182A1400302A180130003A03194C
:102390000C2A0D30F8000230F9007908AE007808F8
:1023A000AD002A100130FB000A128A15BF270A1659
:1023B0008A11F8011030F700543084008313780834
:1023C0000A1291200A168000F80A840AF70BDF2906
:1023D000FE015430FD00AF201230FB000A128A15B6
:1023E000BF270A168A11F8010730F700543084001D
:1023F000831378080A12A5200A168000F80A840AB6
:10240000F70BF929FE015430FD00AF20C830FB0066
:102410000A12AF210A164E2A2908FB000A12EA27DF
:102420000A167808A9002908FB000A12F5270A16DF
:102430007808A9000130FB000A128A15BF270A1686
:102440008A11F8011030F700643084008313780893
:102450000A1291200A168000F80A840AF70B272A2C
:10246000FE016430FD00AF201230FB000A128A1515
:10247000BF270A168A11F8010E30F7006430840075
:10248000831378080A12B0200A168000F80A840A1A
:10249000F70B412AFE016430FD00AF208A110A16B5
:1024A000042E831603178715083003139900023092
:1024B0009A00A6309800903083129800FF30A70051
:1024C000A715270883168700831227162708831667
:1024D00087003130930029308312940083169417BB
:1024E0001413FF3093002830831294002810A8148E
:1024F0002811A8152812A8162813A8170130A9001A
:102500002A100230AE000D30AD00B001AF01B101B4
:10251000B301B201AA1033088316D5008312320822
:102520008316D4000A12831241210A167A08B700D2
:102530007908B6007808B5007708B400BB01BA0185
:10254000B901B801BD01BC01831603170908C039E0
:10255000890003131F129F12003003178800831293
:102560008701880189013530031390000B308F00FB
:10257000DC308E0083160C1483128B15831696158F
:1025800083128B158316161583128B1583169614DA
:1025900083128B1583161616C03083128B04831694
:1025A00003170908C039890003131F129F12023054
:1025B00003178800831203131F179F1783169F1793
:1025C00083121F14213003178D0001308F000A126F
:1025D000031360290A160430F8001F08C339780471
:1025E0009F00A630F700F70BF32A00009F149F18F6
:1025F000F72A83161E088312AB001E08AC00643055
:10260000FB000A12AF210A162E08013C03181F2BEB
:10261000FF3A031D0F2B2D080D3C03181F2B0D3007
:102620002D02F7002E08FA000230031C0330FA02D4
:102630007708AB027A08031C7A0FAC02382B2E08FD
:10264000023C031C382B031D292B2D080C3C031CBA
:10265000382B2D080D3CF7000230FA002E08031C21
:102660002E0FFA027708AB077A0803187A0FAC0727
:102670002C08D5002B08D4000A128A15BE2D0A1684
:102680008A117908BF007808BE003F08D5003E08CF
:10269000D4000A126E2F0A16AA1C572B0A128A158A
:1026A000262F0A168A11AA100A12C0270A160A1221
:1026B0008A15842F0A168A11273003178D000130DE
:1026C0008F0003100F300313D4000020103084005B
:1026D0002C08D5002B08D40056200D300C1E6E2B74
:1026E00099000A300C1E722B9900323003178D00AE
:1026F00001308F00031009300313D4000020103084
:1027000084003F08D5003E08D40056200D300C1E32
:10271000872B99000A300C1E8B2B99003A30031737
:102720008D0001308F00031008300313D400002007
:10273000103084003008D5002F08D40056200D300A
:102740000C1EA02B99000A300C1EA42B99002908FE
:10275000053C0318B52B2908D4000630D5000A1211
:10276000D32F0A167708A900042EA908031DBB2B36
:102770000130A900042E290BBA2C2908FB000A12EB
:10278000EA270A167808A9002908FB000A12F5278B
:102790000A167808A9000130FB000A128A15BF2723
:1027A0000A168A11F8010730F700403084008313BD
:1027B00078080A1238200A168000F80A840AF70BF3
:1027C000D82BFE014030FD00AF200730FB000A127D
:1027D0008A15BF270A168A11F8010730F700403022
:1027E0008400831378080A1243200A168000F80A2E
:1027F000840AF70BF22BFE014030FD00AF200D30B4
:10280000FB000A128A15BF270A168A115730C0002A
:102810004130C1005430C200C300C401FE01403049
:10282000FD00AF202C08033C031C292C031D1C2C8D
:102830002B08E73C031C292C1230FB000A128A15D6
:10284000BF270A168A112C08D5002B08D400E620D1
:10285000352C1130FB000A128A15BF270A168A117F
:102860002C08D5002B08D400E6203F08033C031CAD
:102870005D2C031D3F2C3E08E73C031C5D2C1530EE
:10288000FB000A128A15BF270A168A112030C000E1
:10289000C100C200C300C401FE014030FD00AF20F2
:1028A0001930FB000A128A15BF270A168A113F0841
:1028B000D5003E08D400E620792C1530FB000A1222
:1028C0008A15BF270A168A112030C000C100C20035
:1028D000C301FE014030FD00AF201830FB000A129A
:1028E0008A15BF270A168A113F08D5003E08D40072
:1028F000E6203008033C031C9F2C031D832C2F086B
:10290000E73C031C9F2C1C30FB000A128A15BF27D2
:102910000A168A112030C000C100C201FE014030F9
:10292000FD00AF201E30FB000A128A15BF270A16D1
:102930008A113008D5002F08D400E620B92C1C30AD
:10294000FB000A128A15BF270A168A112030C00020
:10295000C101FE014030FD00AF201D30FB000A1216
:102960008A15BF270A168A113008D5002F08D4000F
:10297000E620042E2908023C031DA32D2908FB0094
:102980000A12EA270A167808A9002908FB000A1289
:10299000F5270A167808A9000130FB000A128A15EB
:1029A000BF270A168A11F8010730F7004730840064
:1029B000831378080A124E200A168000F80A840A47
:1029C000F70BD92CFE014730FD00AF200730FB008C
:1029D0000A128A15BF270A168A11F8010730F70074
:1029E00047308400831378080A1243200A168000B7
:1029F000F80A840AF70BF32CFE014730FD00AF20E4
:102A00000D30FB000A128A15BF270A168A115730AB
:102A1000C7004130C8005430C900CA00CB01FE01D4
:102A20004730FD00AF201230FB000A128A15BF2785
:102A30000A168A11D501E630D400E6203F08033C8F
:102A4000031C462D031D282D3E08E73C031C462D84
:102A50001530FB000A128A15BF270A168A1120308A
:102A6000C700C800C900CA00CB01FE014730FD0005
:102A7000AF201930FB000A128A15BF270A168A11E7
:102A80003F08D5003E08D400E620622D1530FB003B
:102A90000A128A15BF270A168A112030C700C800FB
:102AA000C900CA01FE014730FD00AF201830FB000D
:102AB0000A128A15BF270A168A113F08D5003E0858
:102AC000D400E6203008033C031C882D031D6C2D28
:102AD0002F08E73C031C882D1C30FB000A128A15C6
:102AE000BF270A168A112030C700C800C901FE019D
:102AF0004730FD00AF201E30FB000A128A15BF27A9
:102B00000A168A113008D5002F08D400E620A22D1D
:102B10001C30FB000A128A15BF270A168A112030C2
:102B2000C700C801FE014730FD00AF201D30FB008B
:102B30000A128A15BF270A168A113008D5002F08F5
:102B4000D400E620042E2908033C031DFA2D290891
:102B5000FB000A12EA270A167808A9002908FB00D8
:102B60000A12F5270A167808A9000130FB000A129C
:102B70008A15BF270A168A112030CE005530CF00A3
:102B80006E30D0006930D1007430D200D301FE0124
:102B90004E30FD00AF200830FB000A128A15BF2717
:102BA0000A168A113308D5003208D400E620113005
:102BB000FB000A128A15BF270A168A112030CE00A0
:102BC0004230CF006130D0006830D1007430D20084
:102BD000D301FE014E30FD00AF201830FB000A1279
:102BE0008A15BF270A168A113D08D5003C08D40073
:102BF000E620042E2908043C031D002E1729042E6C
:0C2C00002908053C0319B629F62A6300D8
:04400E00C22FFF3F7F
:00000001FF
;PIC16F886
;CRC=A3B3  CREATED="04-¡.¾.-14 20:47"
