:1000000012308A00BE2A0000FF00030E8301A10007
:100010000A08A0008A010408A2007708A300780853
:10002000A4007908A5007A08A600831383128B1D0B
:100030001B280B1832288C308400001C21280C1837
:100040003528220884002308F7002408F800250832
:10005000F9002608FA0020088A00210E8300FF0E0E
:100060007F0E09008A110A12FE288A110A124D29F0
:100070000A108A100A118207573465346C346334CD
:100080006F346D34653400340A108A100A11820707
:10009000533445344E3453344F34523400340A1000
:1000A0008A100A118207203420346D344134203400
:1000B000203400340A108A100A1182072034763462
:1000C0006F346C347434203400340A108A100A11EE
:1000D000820750344F3457344534523420344F342F
:1000E0004634463400340A108A100A118207433419
:1000F0006C3465346134723420344F344B34003402
:100100000A108A100A118207523445345334453498
:100110005434203455346E346934743426344D34B8
:100120006F346E346534793400340A108A100A1141
:100130008207203420342034433441344C34493451
:100140004234523441345434453420342034203441
:10015000203400340A108A100A1182072034203417
:100160004F344B34203421342134213420340034B2
:100170000A108A100A11820720342034543468345B
:1001800069347334203454346F346F346C34203415
:10019000213421342134203400340A108A100A1109
:1001A0008207523445345334453454342034433474
:1001B00041344C344934423452344134543445345B
:1001C00000340A108A100A1182074F344B3420344D
:1001D00021342134213400340A108A100A11820794
:1001E0005434683469347334203454346F346F3485
:1001F0006C342034213421342134003483168615A4
:10020000831286190729A818072928144929831653
:1002100086158312861D1129A81C11292810A810E3
:10022000492983160615831206191A29A8191A29AD
:1002300028154929831606158312061D2429A81D91
:1002400024292811A8114929831686148312861897
:100250002D29A81A2D2928164929831686148312B8
:10026000861C3729A81E37292812A8124929831667
:1002700006168312061A4029A81B40292817492967
:10028000831606168312061E4929A81F492928131A
:10029000A8130B108A110A1221280B308F00DC30B2
:1002A0008E000130B1073108313C03185929B101E2
:1002B000AA140C108A110A1221288E30F700831616
:1002C0005508F8005408F900FA01F808031D7229CE
:1002D0007908F800F9010830F702F808031D7229BF
:1002E000F7017A290310F81B7929F90DF80DF703A6
:1002F0007229F8138312080094138C11831637089F
:10030000831293000230941B8C298C1D85290030A8
:100310008316111B01308312F80008008316111494
:1003200011189029B430B70083127C21063083164F
:10033000B70083127C218316111511199D29831290
:100340000800A818B029281CB029A8140130831669
:10035000B20783128E21A630F700F70BAD290000FB
:1003600083163208F800831208008316111411183E
:10037000B729B430B70083127C2108308316B70048
:1003800083127C2183163108B70083127C218316E7
:10039000B70183127C21831611151119CD298312FF
:1003A0000800831611141118D329B430B700831232
:1003B0007C2105308316B70083127C218316B5019A
:1003C0003508330784008313341883178008031912
:1003D000F72935083307840083133418831700087E
:1003E000B600B70083127C218316B50AE029B70155
:1003F00083127C21831611151119FC298312080020
:10040000B1308400831300080319132A0630F80062
:10041000F701F70B092AF80B082A7B30F700F70BD6
:100420000F2A800B062A080083165108D8005508A9
:10043000D806D81F202A03110310D11B0314532AF6
:100440005108D8005408D9005008D90203192E2A9F
:10045000D81F532A0308013A8300532A5508D900AC
:100460005108D90203193A2AD81F532A0308013A1E
:100470008300532A5608D9005208D9020319462A84
:10048000D81F532A0308013A8300532A5708D9007A
:100490005308D9020319522AD81F532A0308013AD4
:1004A0008300532A03108312080083164908031996
:1004B0001B2BD5004D0803191B2BD502031C652AE5
:1004C0007F30D50703181B2B6B2A8130D502031C04
:1004D0001B2B03191B2B5508F700F801F901FA0132
:1004E000D4014A08D300D3174B08D2004C08D100DE
:1004F0001930D5005008D10203188E2A0130D202DB
:1005000003188E2AD30203188E2AD40203188E2AC7
:10051000D40AD30AD20A5008D107C02A4F08D202FF
:100520000318A92A0130D3020318A92AD4020318F8
:10053000A92AD40AD30A4F08D2075008D107031CAE
:10054000C02AD20A031DC02AD30A031DC02AD40A16
:10055000C02A4E088038D3020318BF2A0130D402C3
:100560000318BF2AD40A4E088038D3074F08D20791
:10057000031C9D2AD30A031D9D2AD40A9D2A7A149E
:10058000D50BC32ACE2A0310D10DD20DD30DD40D15
:100590000310FA0DF90DF80DD60D7A2A561CD62A3D
:1005A0000310F80CF90CFA0CD60CD92AF70303192E
:1005B0001B2BD61B022B0310D10DD20DD30DD40D46
:1005C0005008D1020318EE2A0130D2020318EE2A95
:1005D000D3020318EE2AD402031C112B4F08D202B7
:1005E0000318F92A0130D3020318F92AD402031C94
:1005F000112B4E088038D3020318022B0130D4028D
:10060000031C112BFA0A031D112BF90A031D112BD0
:10061000F80A031D112BF70A03191B2BF80CF90C10
:10062000FA0C4A08D5004E08D506D51F192BF81725
:100630001F2BF8131F2BF701F801F901FA018312A0
:1006400008008E30F70083165008F7025108F900B1
:100650005208F800F917F7080319392B0310F908A5
:10066000031D352BF8080319392BF90CF80CF70B7F
:100670002E2BD11F402BF809F909F80A0319F90AA2
:1006800083120800831650080319B32BD8005408AE
:100690000319B32BD8070318542B7F30D802031C3F
:1006A000B32B0319B32B582B8130D8070318B32B66
:1006B0005808F700F801F901FA015108DC00DC17CD
:1006C0005208DB005308DA001830D800D9015A1C50
:1006D000812B5708FA07031C732BF90A031D732B90
:1006E000F80A0319D9175608F907031C7A2BF80AD8
:1006F0000319D9175508D200D2175208F807031862
:10070000D917D90DF80CF90CFA0CDC0CDB0CDA0C4F
:100710000310D80B662B0130F7070318B32BF81B17
:10072000982BDC0DFA0DF90DF80DF7030319B32B17
:10073000DC1FA92BFA0A031DA92BF90A031DA92BFB
:10074000F80A031DA92BF80CF90CFA0CF70A031987
:10075000B32B5108D9005508D906D91FB12BF8176A
:10076000B72BF813B72BF701F801F901FA0183123F
:1007700008008030831CBF2B8316D9068312831692
:10078000DE01DF015508DD005908DD0654080319B4
:10079000AD2CDC00F70058080319B62CDC02031955
:1007A000522C031C102C5908E200E2175A08E100F1
:1007B0005B08E000DF010310E20CE10CE00CDF0C51
:1007C000DC0BDA2BDD1FE72B5E14CA2C5E105C10ED
:1007D0005E16D73084008313DF2C5E12DD1BFA2BEC
:1007E0005C1C052CE20CE10CE00CDF0CF70A031991
:1007F000C52C052CE21B082C0310DF0DE00DE10DCC
:10080000E20DF7030319C52CFA2B5E17722C5E1349
:100810005508DD00DD1F0E2CE217BE2CE213BE2CA6
:100820005808DC00F7005408DC025508E200E21723
:100830005608E1005708E000DF010310E20CE10C6C
:10084000E00CDF0CDC0B1C2CDD1F292CDE14CA2C69
:10085000DE105C10DE16DB3084008313DF2CDE122A
:10086000DD1B3C2C5C1C472CE20CE10CE00CDF0C8B
:10087000F70A0319C52C472CE21B4A2C0310DF0D85
:10088000E00DE10DE20DF7030319C52C3C2CDE173A
:10089000722CDE135908DD00DD1F502CE217BE2C30
:1008A000E213BE2C5908E200E2175A08E1005B0887
:1008B000E000DD1F5F2CE2135E15CA2C5E11DF0124
:1008C0005C10D73084008313DF2CDD1B882C550887
:1008D000DD005C1C722CE20CE10CE00CDF0CF70A72
:1008E0000319C52CDF1F832CE00A031D832CE10AAA
:1008F000031D832CE20A031D832CE20CE10CE00CA7
:10090000F70A0319C52C5E1B072CDE1B492CA72CEC
:100910008030E206E21F902CCA2C5908DD009D2C85
:100920005508DD00E208031D9D2CE108031D9D2CE8
:10093000E008031D9D2CF701BE2CE21BA72C031021
:10094000DF0DE00DE10DE20DF70B9D2CC52CDD1F39
:10095000AB2CE217BE2CE213BE2C5808F700590846
:10096000E2005A08E1005B08E000BE2C5408F700E2
:100970005508E2005608E1005708E0006208F80058
:100980006108F9006008FA00FD2CF701F801F9018F
:10099000FA01FD2CDF01E009E109E209DF09DF0AC4
:1009A000031DD82CE00A031DD82CE10A0319E20A22
:1009B0005E18E62BDE18282C5E195E2C8D2C0008A4
:1009C000E007031CE92CE10A031DE92CE20A0319E4
:1009D0005C1484030008E107031CF12CE20A0319EC
:1009E0005C1484030008801F803AE20703185C143B
:1009F0005E1AED2BDE1A2F2C652C8312080083164D
:100A00004F104308C8004208C7004108C60040080C
:100A1000C5004308D3004208D2004108D100400875
:100A2000D000D701D601D501D40183121422031CB2
:100A30001F2D83164F144608803AC6008312831672
:100A40004808D3004708D2004608D1004508D00026
:100A5000D701D601D5018E30D40083121422031899
:100A6000332D031D502D83164808D3004708D200AC
:100A70004608D1004508D000831221237908831647
:100A8000D5007808D40083125D217A088316CC0043
:100A90007908CB007808CA007708C900282E83128D
:100AA00083164808D3004708D2004608D1004508FD
:100AB000D0008030D7009630D6001830D500963060
:100AC000D40083121422031C1F2E83164808D3005F
:100AD0004708D2004608D1004508D000D701D6010A
:100AE000D5017030D400831242237A088316D300D4
:100AF0007908D2007808D1007708D000831221232A
:100B000079088316CE007808CD004808D30047083E
:100B1000D2004608D1004508D000D701D601D50142
:100B20007030D400831242237A088316D3007908E8
:100B3000D2007808D1007708D0004E08D5004D08C3
:100B4000D40083125D21831483165308D700520802
:100B5000D6005108D5005008D4007A08DB00790887
:100B6000DA007808D9007708D8008312B9238316F1
:100B7000D301D201D1018E30D0007A08D700790894
:100B8000D6007808D5007708D400831242237A086B
:100B90008316C8007908C7007808C6007708C50022
:100BA0004E08D5004D08D40083125D218316D30171
:100BB000D201D1018E30D0007A08D7007908D60052
:100BC0007808D5007708D400831242237A08831668
:100BD000CC007908CB007808CA007708C90048081B
:100BE000D3004708D2004608D1004508D000831240
:100BF000212379088316D5007808D40083125D215B
:100C0000831083164C08D7004B08D6004A08D5003D
:100C10004908D4007A08DB007908DA007808D9009E
:100C20007708D8008312B9237A088316CC00790894
:100C3000CB007808CA007708C900282E83128316D3
:100C40004808CC004708CB004608CA004508C90040
:100C50004808D3004708D2004608D1004508D00014
:100C60008312212379088316D5007808D4008312D3
:100C70005D21831483164808D7004708D60046082C
:100C8000D5004508D4007A08DB007908DA00780836
:100C9000D9007708D8008312B9237A088316C800D0
:100CA0007908C7007808C6007708C5004F1C5B2E7E
:100CB0004A08803ACA004808D3004708D2004608CC
:100CC000D1004508D000D701D601D501D401831247
:100CD00014220319A82E83164F1C8A2EC408031D44
:100CE0008A2E83144C08D7004B08D6004A08D5003A
:100CF0004908D400DB01DA01D9017F30D800831222
:100D0000B9237A088316CC007908CB007808CA008A
:100D10007708C9004F18A72E440BA72E83104C0844
:100D2000D7004B08D6004A08D5004908D400DB019B
:100D3000DA01D9017F30D8008312B9237A088316EB
:100D4000CC007908CB007808CA007708C900831264
:100D500083164308D3004208D2004108D10040085E
:100D6000D000D701D601D501D40183121422031D6E
:100D7000BF2E8316CC01CB01CA01C9018312831691
:100D80004908F7004A08F8004B08F9004C08FA0037
:100D90008312080083163308D3003208D2003108CA
:100DA000D1003008D000D701D601D501D40183127B
:100DB00014220319972F83162F08CC002E08CB007E
:100DC0002D08CA002C08C9003308D0003208CF0013
:100DD0003108CE003008CD00831255227A088316E0
:100DE000BB007908BA007808B9007708B8003B085A
:100DF000D3003A08D2003908D1003808D000D70112
:100E0000D601D501D40183121422031C382F831676
:100E10002F08CC002E08CB002D08CA002C08C900D2
:100E20003308D0003208CF003108CE003008CD00A2
:100E3000831255227A088316BB007908BA00780815
:100E4000B9007708B8003B08BF003A08BE0039086F
:100E5000BD003808BC003F08C3003E08C2003D0882
:100E6000C1003C08C0000130C4008312FF24672F7A
:100E700083162F08CC002E08CB002D08CA002C08A2
:100E8000C9003308D0003208CF003108CE00300846
:100E9000CD00831255227A088316BB007908BA0068
:100EA0007808B9007708B8003B08BF003A08BE00D0
:100EB0003908BD003808BC003F08C3003E08C20026
:100EC0003D08C1003C08C000C4018312FF247A0819
:100ED0008316B7007908B6007808B5007708B40023
:100EE0003708D3003608D2003508D1003408D000C6
:100EF0003308D7003208D6003108D5003008D400B6
:100F000083124223831483162F08D7002E08D6009D
:100F10002D08D5002C08D4007A08DB007908DA0007
:100F20007808D9007708D8008312B923972F0800D2
:100F30008E30F70083164708F8004608F900FA01DA
:100F4000C71FA72FF809F909F90A0319F80AF808C1
:100F5000031DB42F7908F800F9010830F702F808EA
:100F6000031DB42FF701BD2F0310F81BBB2FF90D84
:100F7000F80DF703B42FC71FF813831208003708C2
:100F80008316D300831236088316D20083123508E5
:100F90008316D100831234088316D000D701D601FE
:100FA0004030D5008030D400831242237A08BB0041
:100FB0007908BA007808B9007708B8003B088316AA
:100FC000D30083123A088316D2008312390883169D
:100FD000D100831238088316D000831221237908A8
:0C0FE000BD007808BC008A110A16372CEE
:1010000083163308B7003208B6003108B50030083F
:10101000B4003708D3003608D2003508D1003408B0
:10102000D000D701D601D5017F30D4008A118312B8
:1010300014228A150319DD298316C601B430C500B0
:10104000450884008313461883177E30800083147C
:101050003708D7003608D6003508D5003408D40044
:10106000DB01DA01D9017F30D8008A118312B9235C
:101070008A157A088316C8007908C7007808C60060
:101080007708C50083103708D7003608D600350822
:10109000D5003408D400DB01DA01D9017F30D80053
:1010A0008A118312B9238A1583164808CC00470891
:1010B000CB004608CA004508C9007A08D000790864
:1010C000CF007808CE007708CD008A118312552210
:1010D0008A157A088316B7007908B6007808B50033
:1010E0007708B4003708D3003608D2003508D1009D
:1010F0003408D0003708D7003608D6003508D500A8
:101100003408D4008A11831242238A157A08831680
:10111000C3007908C2007808C1007708C000993080
:10112000D3004730D2008A30D1007F30D00043084E
:10113000D7004208D6004108D5004008D4008A11E3
:10114000831242238A157A088316C8007908C700DB
:101150007808C6007708C50083104808D7004708FC
:10116000D6004608D5004508D400DB01DA01D901D4
:101170008030D8008A118312B9238A157A08831621
:10118000BB007908BA007808B9007708B8004C307D
:10119000D300F330D2003A30D1007B30D000430886
:1011A000D7004208D6004108D5004008D4008A1173
:1011B000831242238A157A088316C8007908C7006B
:1011C0007808C6007708C50083104808D70047088C
:1011D000D6004608D5004508D4002B30DB009D30F2
:1011E000DA00DF30D9007E30D8008A118312B923AB
:1011F0008A157A088316BF007908BE007808BD00FA
:101200007708BC003F08D3003E08D2003D08D1005B
:101210003C08D0004308D7004208D6004108D5005A
:101220004008D4008A11831242238A157A08831653
:10123000C8007908C7007808C6007708C500831081
:101240004808D7004708D6004608D5004508D4000E
:10125000DB01DA01D9017F30D8008A118312B9236A
:101260008A157A088316BF007908BE007808BD0089
:101270007708BC003708D3003608D2003508D10003
:101280003408D0003B08D7003A08D6003908D5000A
:101290003808D4008A11831242238A157A088316EB
:1012A000C8007908C7007808C6007708C500480854
:1012B000CC004708CB004608CA004508C9003F08D3
:1012C000D0003E08CF003D08CE003C08CD008A117A
:1012D000831255228A157A088316BB007908BA0052
:1012E0007808B9007708B800C601B030C5004508D5
:1012F00084008313461883177E300002C400C41F85
:1013000096294408003CC701C600C61BC7038A11C2
:10131000831298278A1577088316BC007808803ACC
:10132000BD007908BE007A08BF00A829C70144089B
:10133000C600C61BC7038A11831298278A157A082C
:101340008316BF007908BE007808BD007708BC008E
:101350003F08D3003E08D2003D08D1003C08D00031
:101360001830D7007230D6003130D5007E30D4002E
:101370008A11831242238A15831083163B08D700F3
:101380003A08D6003908D5003808D4007A08DB00BE
:101390007908DA007808D9007708D8008A11831212
:1013A000B9238A157A088316BB007908BA00780831
:1013B000B9007708B800E22983128316BB01BA018D
:1013C000B901B8013808F7003908F8003A08F900FF
:1013D0003B08FA008312080083163308D300320852
:1013E000D2003108D1003008D0003B30D700AA30FD
:1013F000D6003830D5007F30D4008A1183124223C2
:101400008A157A088316D3007908D2007808D100AB
:101410007708D0008A11831221238A157808831651
:10142000C00041103308B7003208B6003108B500DB
:101430003008B4003308D3003208D2003108D1009C
:101440003008D000D701D601D501D4018A1183120A
:1014500014228A15031C342A83164114C009C00AB9
:101460003508803AB50083128316BB01BA01B90171
:10147000B801C301B830C200420884008313431886
:1014800083177F30400780003708D3003608D2002A
:101490003508D1003408D0003B30D700AA30D60040
:1014A0003830D5007F30D4008A11831242238A1548
:1014B0007A088316C5007908C4007808C300770845
:1014C000C200C7014008C600C61BC7038A118312A9
:1014D00098278A15831483164508D7004408D60038
:1014E0004308D5004208D4007A08DB007908DA0006
:1014F0007808D9007708D8008A118312B9238A1591
:101500007A088316B7007908B6007808B50077081E
:10151000B4007C30D3008830D2005930D100723012
:10152000D0003708D7003608D6003508D500340873
:10153000D4008A11831242238A157A088316C500C3
:101540007908C4007808C3007708C20083104508F2
:10155000D7004408D6004308D5004208D400E03044
:10156000DB009730DA002630D9007530D8008A11B8
:101570008312B9238A157A088316BF007908BE0042
:101580007808BD007708BC003F08D3003E08D200B1
:101590003D08D1003C08D0003708D7003608D600F7
:1015A0003508D5003408D4008A11831242238A15E5
:1015B0007A088316C5007908C4007808C300770844
:1015C000C20083104508D7004408D6004308D50060
:1015D0004208D400C430DB001D30DA001E30D900D0
:1015E0007830D8008A118312B9238A157A088316B5
:1015F000BF007908BE007808BD007708BC003F082E
:10160000D3003E08D2003D08D1003C08D000370886
:10161000D7003608D6003508D5003408D4008A1122
:10162000831242238A157A088316C5007908C400FC
:101630007808C3007708C20083104508D700440823
:10164000D6004308D5004208D4005E30DB0050309D
:10165000DA006330D9007A30D8008A118312B923B6
:101660008A157A088316BF007908BE007808BD0085
:101670007708BC003F08D3003E08D2003D08D100E7
:101680003C08D0003708D7003608D6003508D5000A
:101690003408D4008A11831242238A157A088316EB
:1016A000C5007908C4007808C3007708C200831019
:1016B0004508D7004408D6004308D5004208D400A6
:1016C0001A30DB00FE30DA007530D9007C30D800EB
:1016D0008A118312B9238A157A088316BF00790804
:1016E000BE007808BD007708BC003F08D3003E0864
:1016F000D2003D08D1003C08D0003708D70036089A
:10170000D6003508D5003408D4008A11831242234C
:101710008A157A088316C5007908C4007808C300C2
:101720007708C20083104508D7004408D600430854
:10173000D5004208D4001830DB007230DA003130B6
:10174000D9007E30D8008A118312B9238A157A080D
:101750008316BF007908BE007808BD007708BC007A
:101760003708D3003608D2003508D1003408D0003D
:101770003F08D7003E08D6003D08D5003C08D400FD
:101780008A11831242238A1583108316D701D6014A
:10179000D5017F30D4007A08DB007908DA007808B8
:1017A000D9007708D8008A118312B9238A158316C5
:1017B0003B08D3003A08D2003908D1003808D000DD
:1017C0007A08D7007908D6007808D5007708D400C1
:1017D0008A11831242238A157A088316BB0079087E
:1017E000BA007808B9007708B800411C112CCC0168
:1017F000CB01CA017F30C9003B08D0003A08CF00B6
:101800003908CE003808CD008A11831255228A1576
:101810007A088316BB007908BA007808B9007708FF
:10182000B8003808F7003908F8003A08F9003B0812
:10183000FA008312080083162708D3002608D20076
:101840002508D1002408D000D701D601D501D40144
:101850008A11831214228A15031C142D83162B0857
:10186000AF002A08AE002908AD002808AC00B3017B
:10187000B201B1017F30B0008A118312CA268A15E5
:101880007A088316AF007908AE007808AD007708B3
:10189000AC002F08D3002E08D2002D08D1002C0850
:1018A000D000D701D601D501D4018A1183121422A8
:1018B0008A15031D142D83162B08AF002A08AE00CD
:1018C0002908AD002808AC00B301B201B101803095
:1018D000B0008A118312CA268A157A088316AF00CF
:1018E0007908AE007808AD007708AC002F08D30067
:1018F0002E08D2002D08D1002C08D000D701D60127
:10190000D501D4018A11831214228A15031DCD2C0E
:1019100083162408AC002508803AAD002608AE00E6
:101920002708AF00B3002E08B2002D08B1002C0824
:10193000B000831200207A088316AF007908AE0049
:101940007808AD007708AC002F08D3002E08D2002D
:101950002D08D1002C08D0002B08D7002A08D6006B
:101960002908D5002808D4008A11831242238A1539
:101970007A088316AF007908AE007808AD007708C2
:10198000AC002F08B3002E08B2002D08B1002C08BF
:10199000B0008312EC21BD2D132D83162408AC005A
:1019A0002508803AAD002608AE002708AF00B30036
:1019B0002E08B2002D08B1002C08B00083120020C0
:1019C0007A088316AF007908AE007808AD00770872
:1019D000AC002F08D3002E08D2002D08D1002C080F
:1019E000D0002B08D7002A08D6002908D5002808DF
:1019F000D4008A11831242238A157A088316AF0015
:101A00007908AE007808AD007708AC002F08B30065
:101A10002E08B2002D08B1002C08B0008312EC2172
:101A20008030F806BD2DBD2D83162708D30026086B
:101A3000D2002508D1002408D000D701D601D50155
:101A4000D4018A11831214228A15031C5A2D83167D
:101A50002B08AF002A08AE002908AD002808AC000A
:101A6000B301B201B1017F30B0008A118312CA26DE
:101A70008A157A088316AF007908AE007808AD00A1
:101A80007708AC002F08D3002E08D2002D08D10013
:101A90002C08D000D701D601D501D4018A118312B8
:101AA00014228A1503195A2DF701F801F901FA01D8
:101AB000BD2DBD2D83162708D3002608D20025088A
:101AC000D1002408D000D701D601D501D4018A1154
:101AD000831214228A15031D822D83162B08D3002E
:101AE0002A08D2002908D1002808D000D701D60141
:101AF000D501D4018A11831214228A150318822D6C
:101B0000031DBD2D83162708B3002608B200250843
:101B1000B1002408B000831200207A088316AF00B9
:101B20007908AE007808AD007708AC002F08D30024
:101B30002E08D2002D08D1002C08D0002B08D70089
:101B40002A08D6002908D5002808D4008A11831253
:101B500042238A157A088316AF007908AE00780808
:101B6000AD007708AC002F08B3002E08B2002D0896
:101B7000B1002C08B0008312EC210800FA30ED000F
:101B8000A230EC004830EB007130EA00AC30F100DC
:101B90001930F0003930EF007C30EE001030F500E5
:101BA0009830F4006A30F3008530F2009A30FE007D
:101BB000F830FD004730FC008D30FB005F088316D5
:101BC000D50083125E088316D4008A1183125D212A
:101BD0008A157A08E3007908E2007808E1007708BE
:101BE000E00063088316A700831262088316A6002C
:101BF000831261088316A500831260088316A4006F
:101C0000AB01AA014030A9008030A80083121B2438
:101C10006D088316D30083126C088316D2008312DA
:101C20006B088316D10083126A088316D0007A08E5
:101C3000D7007908D6007808D5007708D4008A1133
:101C4000831242238A157A088316A3007908A2001A
:101C50007808A1007708A000831263088316A70004
:101C6000831262088316A600831261088316A500FA
:101C7000831260088316A400AB01AA01A901803079
:101C8000A80083121B2471088316D3007008D200A9
:101C900083126F088316D10083126E088316D0005A
:101CA0007A08D7007908D6007808D5007708D400DC
:101CB0008A11831242238A158316A5010408A40001
:101CC0002510831B251483142308D7002208D6006F
:101CD0002108D5002008D4007A08DB007908DA0052
:101CE0007808D9007708D8008A118312B9238A1599
:101CF0008316240884008313251883177A08A30009
:101D00007908A2007808A1007708A0007508D30020
:101D10007408D2007308D1007208D00083126308DF
:101D20008316D700831262088316D60083126108D7
:101D30008316D500831260088316D4008A1183129B
:101D400042238A158316A7010408A6002710831BC7
:101D5000271483102308D7002208D6002108D500B5
:101D60002008D4007A08DB007908DA007808D90066
:101D70007708D8008A118312B9238A15831626089A
:101D800084008313271883177A08A3007908A20018
:101D90007808A1007708A000A9010408A80029106C
:101DA000831B291483142308D7002208D600210896
:101DB000D5002008D4007E08DB007D08DA007C080E
:101DC000D9007B08D8008A118312B9238A1583169B
:101DD000280884008313291883177A088312E700E0
:101DE0007908E6007808E5007708E40067088316BC
:101DF000D300831266088316D20083126508831607
:101E0000D100831264088316D0008A118312212323
:101E10008A157908E9007808E8006808F800690878
:101E2000F9008A110A161B2CE301E201E101E0012D
:101E30005F088316D50083125E088316D4008A11CA
:101E400083125D218A151F308316D3008530D2009E
:101E50006B30D1007C30D0007A08D7007908D600EA
:101E60007808D5007708D4008A11831242238A1596
:101E70007A08E3007908E2007808E1007708E000DA
:101E800063088316D300831262088316D20083127C
:101E900061088316D100831260088316D0008A116E
:101EA000831221238A157908B0007808AF008A11BF
:101EB0000A16282C30088316D50083122F088316A3
:101EC000D4008A1183125D218A157A088316D30003
:101ED0007908D2007808D1007708D0007B30D7008D
:101EE0001430D6005E30D5008230D4008A118312BF
:101EF00042238A15831037088316D70083123608C9
:101F00008316D600831235088316D5008312340851
:101F10008316D4007A08DB007908DA007808D90043
:101F20007708D8008A118312B9238A157A08B70076
:101F30007908B6007808B5007708B400370883162A
:101F4000D300831236088316D20083123508831615
:101F5000D100831234088316D0008A118312212302
:101F60008A157908B3007808B2003208DF00330818
:101F7000DE000B08F7008B1303178D0103135E08B7
:101F800003178C0083168C130C1555308D00AA3066
:101F90008D008C148C18CA2F0C1177088312031330
:101FA0008B040B08F7008B13013003178D0003130C
:101FB0005F0803178C0083168C130C1555308D00A9
:101FC000AA308D008C148C18E32F0C117708831223
:0A1FD00003138B048A110A162F2C4C
:102000008316111411180228B430B7000A12831273
:102010007C210A1602308316B7000A1283127C2133
:102020000A165F08FA01E0008316B7000A1283124D
:102030007C210A165E08F700FA015E08E0008316AC
:10204000B7000A1283127C210A168316B7010A12FE
:1020500083127C210A168316111511192D2883125B
:102060000800A81A4228281E4228A8160130831604
:10207000B1020A1283128E210A16A630F700F70B5E
:102080003F28000083163108F80083120800A81BBF
:102090005828281F5828A81701308316B1070A129C
:1020A00083128E210A16A630F700F70B5528000080
:1020B00083163108F8008312080000302A18013016
:1020C000EF008316B2000A128312A1210A162A1009
:1020D00078182A1400302A180130003A0319C5284C
:1020E0002C088316B20083122B088316B100310826
:1020F000F8003208F90079088312AE007808AD00C4
:102100002A1001308316B1000A128312B5210A1673
:10211000F8011130F7005E308400831378080A124A
:1021200095200A168000F80A840AF70B8E28831679
:10213000B4015E30B3000A128312D1210A161130A5
:102140008316B1000A128312B5210A16F8010A306B
:10215000F7005E308400831378080A12AA200A165A
:102160008000F80A840AF70BAC288316B4015E30AD
:10217000B3000A128312D1210A16C8308316B100A7
:102180000A12831200220A160F2901308316B100A9
:102190000A128312B5210A16F8011130F700A03097
:1021A0008400831378080A1295200A168000F80A22
:1021B000840AF70BD2288316B401A030B3000A12A8
:1021C0008312D1210A1611308316B1000A1283122C
:1021D000B5210A16F8011130F700A03084008313EE
:1021E00078080A12B8200A168000F80A840AF70B49
:1021F000F0288316B401A030B3000A128312D12153
:102200000A1629088316B100831231207808A90024
:1022100029088316B100831247207808A9008A1183
:102220000A16062E00302A180130EE008316B2007E
:102230000A128312A1210A162A1078182A140030D3
:102240002A180130003A031972290D30F8000230C3
:10225000F9007908AE007808AD002A100130831625
:10226000B1000A128312B5210A16F8011030F700E6
:102270005E308400831378080A12CD200A1680008D
:10228000F80A840AF70B3B298316B4015E30B300C9
:102290000A128312D1210A1612308316B1000A12D3
:1022A0008312B5210A16F8010730F7005E3084006A
:1022B000831378080A12E1200A168000F80A840ABB
:1022C000F70B59298316B4015E30B3000A1283124A
:1022D000D1210A16C8308316B1000A1283120022D7
:1022E0000A16BC2901308316B1000A128312B521E7
:1022F0000A16F8011030F700A03084008313780824
:102300000A12CD200A168000F80A840AF70B7F29EA
:102310008316B401A030B3000A128312D1210A1629
:1023200012308316B1000A128312B5210A16F80181
:102330000E30F700A0308400831378080A12EC20D6
:102340000A168000F80A840AF70B9D298316B40147
:10235000A030B3000A128312D1210A16290883166D
:10236000B100831231207808A90029088316B10032
:10237000831247207808A9008A110A160C2E003013
:102380002A180130E7008316B2000A128312A12135
:102390000A162A1078182A1400302A180130003A38
:1023A0000319392AB301B20133088316D500831209
:1023B00032088316D4000A1283125D210A167A08A5
:1023C000B7007908B6007808B5007708B4000B08A4
:1023D000F7008B1303178D018C0183168C130C15DA
:1023E00055308D00AA308D008C148C18F5290C11F5
:1023F0007708831203138B040B08F7008B1301304B
:1024000003178D008C0183168C130C1555308D002D
:10241000AA308D008C148C180B2A0C1177088312AB
:1024200003138B042A1001308316B1000A128312A1
:10243000B5210A16F8010930F7005E3084008313D5
:1024400078080A1273200A168000F80A840AF70B2B
:10245000202A8316B4015E30B3000A128312D12100
:102460000A16C8308316B1000A12831200220A1617
:10247000652A01308316B1000A128312B5210A16AB
:10248000F8011130F700A0308400831378080A1295
:1024900080200A168000F80A840AF70B462A831661
:1024A000B401A030B3000A128312D1210A16290800
:1024B0008316B100831231207808A90029088316F9
:1024C000B100831247207808A9008A110A16122E3B
:1024D00000302A180130E8006808E900A8197E2AAF
:1024E000281D7E2AA8150130E9070A128E210A1636
:1024F000A630F700F70B7A2A0000812A6908F80055
:10250000832A6908F8002A1078182A1400302A183B
:102510000130003A03198F2A2A112A10BB2A0130F0
:102520008316B1000A128312B5210A16F8010A3087
:10253000F7005E308400831378080A1265200A16BB
:102540008000F80A840AF70B9C2A8316B4015E30D7
:10255000B3000A128312D1210A1629088316B1008A
:10256000831231207808A90029088316B10083124C
:1025700047207808A9008A110A16172E8316031718
:10258000871508300313990002309A00A63098008E
:10259000903083129800FF30A700A71527088316F4
:1025A000870083122716270883168700313093008F
:1025B000293083129400831694171413FF3093006C
:1025C0002830831294002810A8142811A815281266
:1025D000A8162813A8170130A9002A100230AE004F
:1025E0000D30AD00B001AF01B10103178D018316AD
:1025F0008C130C1483120C080313DF00DE0101306E
:1026000003178D0083168C130C1483120C0803130C
:10261000DE070318DF0A5E08F8005F08F900790892
:10262000B3007808B200AA1033088316D5008312CD
:1026300032088316D4000A1283125D210A167A0822
:10264000B7007908B6007808B5007708B400BB0178
:10265000BA01B901B801BD01BC012A11BF01BE0117
:10266000831603170908C039890003131F129F122C
:1026700000300317880083128701880189013530F3
:10268000031390000B308F00DC308E0083160C1487
:1026900083128B158316961583128B1583161615C8
:1026A00083128B158316961483128B1583161616B8
:1026B000C03083128B04831603170908C0398900C0
:1026C00003131F129F120230031788008312031393
:1026D0001F179F1783169F1783121F14A71227080F
:1026E000831687008312871283168612831286123E
:1026F0000430F8001F08C33978049F00A630F700A3
:10270000F70B802B000000302A190130003A031D1E
:10271000C82B0130A900BF01BE0183160610831229
:102720000610831606138312061300302A1901308F
:10273000DE008316B2000A128312A1210A162A11A2
:1027400078182A1505308316B1000A128312B521B4
:102750000A16F8010830F700423084008313780825
:102760000A1238200A168000F80A840AF70BAF2BE9
:102770008316B4014230B3000A128312D1210A1623
:1027800064308316B1000A12831200220A16172E33
:102790008316061383120617831606108312061477
:1027A0009F149F18D12B83161E088312AB001E089E
:1027B000AC0064308316B1000A12831200220A169C
:1027C0002E08013C0318FB2BFF3A031DEB2B2D08B1
:1027D0000D3C0318FB2B0D302D02F7002E08FA00DC
:1027E0000230031C0330FA027708AB027A08031C9C
:1027F0007A0FAC02142C2E08023C031C142C031D6F
:10280000052C2D080C3C031C142C2D080D3CF70046
:102810000230FA002E08031C2E0FFA027708AB07CD
:102820007A0803187A0FAC072C08DF002B08DE00AB
:102830000A128A15BE2D0A168A117908C100780875
:10284000C0004108DF004008DE000A128A15142F7C
:102850000A168A11AA1C352C0A128A155A2F0A1632
:102860008A11AA100A128E210A160A12BF2F0A16FE
:102870002908073C03183F2C0730A905172EA90883
:10288000031D452C0130A900172E290BF32C013014
:102890008316B1000A128312B5210A16F801073017
:1028A000F7004A308400831378080A1244200A167D
:1028B0008000F80A840AF70B542C8316B4014A30BE
:1028C000B3000A128312D1210A1607308316B10011
:1028D0000A128312B5210A16F8010730F7004A30B0
:1028E0008400831378080A124F200A168000F80A21
:1028F000840AF70B722C8316B4014A30B3000A1213
:102900008312D1210A160D308316B1000A128312E8
:10291000B5210A165730CA004130CB005430CC00E4
:10292000CD00CE018316B4014A30B3000A128312DF
:10293000D1210A1612308316B1000A128312B52172
:102940000A162C08DF002B08DE0000201530831645
:10295000B1000A128312B5210A162030CA00CB003A
:10296000CC00CD018316B4014A30B3000A128312A1
:10297000D1210A1618308316B1000A128312B5212C
:102980000A164108DF004008DE0000201C308316D4
:10299000B1000A128312B5210A162030CA00CB01F9
:1029A0008316B4014A30B3000A128312D1210A16E9
:1029B0001D308316B1000A128312B5210A163008A1
:1029C000DF002F08DE00002029088316B1008312E3
:1029D00031207808A90029088316B1008312472006
:1029E0007808A900172E2908023C031DA22D0130EA
:1029F0008316B1000A128312B5210A16F8010730B6
:102A0000F70051308400831378080A125A200A16FE
:102A10008000F80A840AF70B042D8316B4015130A4
:102A2000B3000A128312D1210A1607308316B100AF
:102A30000A128312B5210A16F8010730F700513047
:102A40008400831378080A124F200A168000F80ABF
:102A5000840AF70B222D8316B4015130B3000A12F9
:102A60008312D1210A160D308316B1000A12831287
:102A7000B5210A165730D1004130D2005430D3006E
:102A8000D400D5018316B4015130B3000A12831269
:102A9000D1210A1612308316B1000A128312B52111
:102AA0000A16DF01E630DE00002015308316B10083
:102AB0000A128312B5210A162030D100D200D300A9
:102AC000D4018316B4015130B3000A128312D1210C
:102AD0000A1618308316B1000A128312B5210A169D
:102AE0004108DF004008DE0000201C308316B100E2
:102AF0000A128312B5210A162030D100D2018316A2
:102B0000B4015130B3000A128312D1210A161D30CC
:102B10008316B1000A128312B5210A163008DF00AD
:102B20002F08DE00002029088316B100831231200F
:102B30007808A90029088316B10083124720780875
:102B4000A900172E2908033C031D012E013083160E
:102B5000B1000A128312B5210A162030D800553070
:102B6000D9006E30DA006930DB007430DC00DD0142
:102B70008316B4015830B3000A128312D1210A1609
:102B800008308316B1000A128312B5210A163308E1
:102B9000DF003208DE00002011308316B1000A1277
:102BA0008312B5210A162030D8004230D900613096
:102BB000DA006830DB007430DC00DD018316B4011C
:102BC0005830B3000A128312D1210A161830831626
:102BD000B1000A128312B5210A163D08DF003C0835
:102BE000DE00002029088316B10083123120780806
:102BF000A90029088316B100831247207808A9008C
:102C0000172E2908043C031D072E5D28172E2908BE
:102C1000053C031D0D2E1229172E2908063C031D05
:102C2000132EBF29172E2908073C0319682A832B66
:022C300063003F
:024200000000BC
:04400E00C22FFF3F7F
:00000001FF
;PIC16F886
;CRC=3A9D  CREATED="05-¡.¾.-14 03:29"
